:020000040800F2
:1000000000500020A10E0008190A0008250A000867
:100010002D0A0008350A00083D0A0008000000000B
:10002000000000000000000000000000450A000879
:10003000510A0008000000005D0A0008690A000873
:10004000E90E0008E90E0008E90E0008E90E0008B4
:10005000E90E0008E90E0008E90E0008E90E0008A4
:10006000E90E0008E90E0008E90E0008E90E000894
:10007000E90E0008E90E0008E90E0008E90E000884
:10008000E90E0008E90E0008E90E0008E90E000874
:10009000E90E0008E90E0008E90E0008E90E000864
:1000A000E90E0008E90E0008E90E0008E90E000854
:1000B000E90E0008E90E0008E90E0008E90E000844
:1000C000E90E0008E90E0008E90E0008E90E000834
:1000D000E90E0008E90E0008E90E0008E90E000824
:1000E000E90E0008E90E0008E90E00080000000013
:1000F0000000000000000000000000000000000000
:0C01000000000000000000005FF808F1A3
:10010C0010B5054C237833B9044B13B10448AFF345
:10011C0000800123237010BD0000002000000000AF
:10012C00380F0008084B10B51BB108490848AFF34D
:10013C0000800848036803B910BD074B002BFBD0A7
:10014C00BDE81040184700BF00000000040000206C
:10015C00380F0008000000200000000080B582B0BD
:10016C0000AF0121082000F043FE1023FB71802317
:10017C00BB800323BB713B1D1946034800F02EFDC9
:10018C0000BF0837BD4680BD000C014080B582B071
:10019C0000AF0121082000F02BFE0423FB7180230B
:1001AC00BB800323BB713B1D1946034800F016FDB1
:1001BC0000BF0837BD4680BD000C014080B500AFC4
:1001CC00FFF7CCFF80210C4800F0DEFD1E2000F074
:1001DC002DFE8021084800F0E5FD142000F048FEBB
:1001EC008021054800F0D0FD1E2000F01FFEFFF717
:1001FC00CDFF00BF80BD00BF000C014080B582B0B8
:10020C0000AF0023FB710023FB7123E000BF8021B2
:10021C00144800F09FFD0346002BF8D01E2000F080
:10022C0005FEBB795B00BB7180210E4800F092FD8E
:10023C000346012B03D1BB7943F00103BB7100BF13
:10024C008021084800F086FD0346012BF8D0FB798D
:10025C000133FB71FB79072BD8D9BB7918460837CA
:10026C00BD4680BD000C014080B586B000AFFFF7E5
:10027C00A5FF80212D4800F087FD80212B4800F040
:10028C0069FD0346002B40D100BF8021274800F0B8
:10029C0061FD0346002BF8D000BF8021234800F0FD
:1002AC0059FD0346012BF8D0FFF7A8FF03463B612D
:1002BC00FFF7A4FF0346FB60FFF7A0FF0346BB60FC
:1002CC00FFF79CFF03467B60FFF798FF0346FB702C
:1002DC008021164800F066FD372000F0A7FD802134
:1002EC00124800F051FD3A69FB681A44BB681A4485
:1002FC007B681A44FB789A4207D13B69FB75FB6813
:10030C00BB75BB687B757B683B75FB7D084A1360CE
:10031C00BB7D074A53607B7D054A93603B7D044A55
:10032C00D36000BF1837BD4680BD00BF000C014034
:10033C001C00002080B582B000AF0346FB71FB7936
:10034C001A464FF48071034800F03AFD00BF08379D
:10035C00BD4680BD000C014080B582B000AF0346A5
:10036C00FB71FB791A464FF40071034800F028FD2D
:10037C0000BF0837BD4680BD000C014080B584B07D
:10038C0000AF0023FB600CE00023BB6002E0BB6805
:10039C000133BB60BB68B3F57A7FF8D3FB680133DC
:1003AC00FB60FB68B3F57A7FEED30121082000F0E7
:1003BC001FFD1423FB710323BB714FF48073BB80AF
:1003CC003B1D19460A4800F009FC4FF40073BB8032
:1003DC003B1D1946064800F001FC0120FFF7AAFF5F
:1003EC000120FFF7B9FF00BF1037BD4680BD00BF2D
:1003FC00000C014080B500AF0120FFF7ADFF0120DC
:10040C00FFF798FF0020FFF7A7FF0020FFF792FFF0
:10041C0000BF80BD80B500AF0020FFF79DFF01201D
:10042C00FFF788FF0120FFF797FF00BF80BD00BFDB
:10043C0080B584B000AF0346FB710023FB7316E05C
:10044C00FA79FB7B802141FA03F31340002B14BF94
:10045C0001230023DBB21846FFF77EFF0120FFF7D4
:10046C0069FF0020FFF766FFFB7B0133FB73FB7B0F
:10047C00072BE5D90120FFF75DFF0020FFF75AFF9E
:10048C0000BF1037BD4680BD80B582B000AF0346BB
:10049C00FB71FFF7AFFF7820FFF7CAFF0020FFF7D3
:1004AC00C7FFFB791846FFF7C3FFFFF7B3FF00BF89
:1004BC000837BD4680BD00BF80B584B000AF786002
:1004CC000B46FB70FFF796FF7820FFF7B1FF40203B
:1004DC00FFF7AEFF0023FB7309E0FB7B7A68134444
:1004EC001B781846FFF7A4FFFB7B0133FB73FA7BE9
:1004FC00FB789A42F1D3FFF78DFF00BF1037BD4652
:10050C0080BD00BF80B500AFFFF738FFAE20FFF70E
:10051C00BBFFD520FFF7B8FF8020FFF7B5FFA82061
:10052C00FFF7B2FF3F20FFF7AFFFD320FFF7ACFF81
:10053C000020FFF7A9FF4020FFF7A6FFA120FFF73F
:10054C00A3FFC820FFF7A0FFDA20FFF79DFF1220C2
:10055C00FFF79AFF8120FFF797FFCF20FFF794FF5B
:10056C00D920FFF791FFF120FFF78EFFDB20FFF77B
:10057C008BFF3020FFF788FFA420FFF785FFA62014
:10058C00FFF782FF8D20FFF77FFF1420FFF77CFF22
:10059C00AF20FFF779FF00BF80BD00BF80B582B0F0
:1005AC0000AF03460A46FB711346BB71FB7963F03F
:1005BC004F03DBB21846FFF767FFBB791B09DBB2B1
:1005CC0043F01003DBB21846FFF75EFFBB7903F074
:1005DC000F03DBB21846FFF757FF00BF0837BD46C5
:1005EC0080BD00BF80B485B000AF78603960012356
:1005FC00FB6004E0FB687A6802FB03F3FB603B687A
:10060C005A1E3A60002BF5D1FB6818461437BD46CC
:10061C0080BC704780B582B000AF0023FB710FE047
:10062C00FB7900211846FFF7B9FFFB79DB01084A7B
:10063C00134480211846FFF73FFFFB790133FB7110
:10064C00FB79072BECD900BF0837BD4680BD00BF36
:10065C002C00002090B484B000AF0446084611462C
:10066C001A462346FB710346BB710B467B7113463E
:10067C003B7197F90730002B4FDBBB793F2B4ED8E2
:10068C00FA797B791344802B06DDFB79C3F1FF23C8
:10069C0003F57F0380337B71BA793B791344402B8C
:1006AC0003DDBB79C3F140033B71BB79BB732DE018
:1006BC00FB79FB7321E0BB7BDB08DAB21446FB7BD6
:1006CC001146FA7B1848C90101440A44127851B208
:1006DC00BA7B02F00702012000FA02F252B2D243B6
:1006EC0052B20A4052B2D0B20F49E2010A4413444A
:1006FC0002461A70FB7B0133FB73FA7BF9797B7929
:10070C000B449A42D7DBBB7B0133BB73BA7BB97901
:10071C003B790B449A42CBDB02E000BF00E000BF08
:10072C001037BD4690BC70472C00002090B585B0AA
:10073C0002AF0446084611461A462346FB7103468F
:10074C00BB710B467B7113463B713B79082B0CD16B
:10075C007B79203B1B01104A1344B979F87900933B
:10076C001023082200F05EF812E03B79062B0FD123
:10077C007B79A3F1200213465B0013445B00074A0C
:10078C001344B979F87900930823062200F04AF84B
:10079C0000BF0C37BD4690BD500F00084015000837
:1007AC0090B585B000AF3A601A460346FB710B4614
:1007BC00BB7113467B710023FB7329E0FB7B97F81D
:1007CC00202002FB03F3DAB2FB791344DCB27A7912
:1007DC00FB7BD31A013B19460A20FFF703FF0246A5
:1007EC003B68B3FBF2F10E4BA3FB0123DA08134673
:1007FC009B0013445B00CA1AD3B23033DAB297F8B9
:10080C002030B9792046FFF791FFFB7B0133FB7356
:10081C00FA7B7B799A42D1D300BF1437BD4690BD89
:10082C00CDCCCCCC90B585B000AF04460846114673
:10083C001A462346FB710346BB710B467B7113466C
:10084C003B7197F90730002BC0F2A280BB793F2B8C
:10085C0000F2A0803B797A79B979F879FFF7FAFE42
:10086C000023BB7388E00023FB737BE0FA79FB7BEE
:10087C0013447F2B7CDCBB79DB08DBB21A46BB7BD9
:10088C001344072B00F38880BB79DB08D8B20246EF
:10089C00BB7B1A44F979FB7B0B44B97B0844FC798C
:1008AC00F97B21443E4CC00120440144097848B2F4
:1008BC00B97B7C7904FB01F4F97B21440C46396A41
:1008CC00214409780C46B97901F0070104FA01F1C9
:1008DC0049B2014349B2C8B23149D2010A44134466
:1008EC0002461A70BB79DB08DBB21A46BB7B134499
:1008FC000133072B32DCBB79DB08D8B20246BB7B59
:10090C0013445A1CF979FB7B0B44B97B0144481CFA
:10091C00FC79F97B2144224CC00120440144097824
:10092C0048B2B97B7C7904FB01F4F97B21440C4679
:10093C00396A214409780C46B97901F00701C1F1F3
:10094C00080144FA01F149B2014349B2C8B2144951
:10095C00D2010A44134402461A7000E000BFFB7B2C
:10096C000133FB73FA7B7B799A42FFF47FAF00E093
:10097C0000BFBB7B0133BB73BA7B3B79013B002BC4
:10098C0000DA0733DB1001339A42FFF66CAF04E058
:10099C0000BF02E000BF00E000BF1437BD4690BDB1
:1009AC002C00002080B582B002AFFFF7ABFDC82051
:1009BC0000F05EFAFFF758FC134B1A6808230093FB
:1009CC0002230F210A20FFF7EBFE0F4B5A68082376
:1009DC00009302230F211E20FFF7E2FE0A4B9A68B8
:1009EC0008230093022328210A20FFF7D9FE064B87
:1009FC00DA6808230093022328211E20FFF7D0FE7B
:100A0C00FFF708FED3E700BF1C00002080B400AF46
:100A1C0000BFBD4680BC704780B400AFFEE700BF8E
:100A2C0080B400AFFEE700BF80B400AFFEE700BFAC
:100A3C0080B400AFFEE700BF80B400AF00BFBD467E
:100A4C0080BC704780B400AF00BFBD4680BC70470F
:100A5C0080B400AF00BFBD4680BC704780B400AF0F
:100A6C0000BFBD4680BC704780B500AF154A154B22
:100A7C001B6843F0010313601249124B5A68124B66
:100A8C0013404B600F4A0F4B1B6823F0847323F405
:100A9C00803313600B4A0B4B1B6823F480231360C9
:100AAC00084A084B5B6823F4FE035360054B4FF474
:100ABC001F029A6000F00CF8044B4FF000629A6031
:100ACC0000BF80BD001002400000FFF800ED00E008
:100ADC0080B500AF00F002F800BF80BD80B483B0D9
:100AEC0000AF00237B6000233B603A4A394B1B6804
:100AFC0043F480331360374B1B6803F400333B60C3
:100B0C007B6801337B603B68002B03D17B68B3F5BA
:100B1C00A06FF0D12F4B1B6803F40033002B02D0D5
:100B2C0001233B6001E000233B603B68012B4BD170
:100B3C00294A294B1B6843F010031360264A264BA5
:100B4C001B6823F003031360234A234B1B6843F0F9
:100B5C00020313601F4A1F4B5B6853601D4A1D4BF9
:100B6C005B6853601B4A1B4B5B6843F480635360A8
:100B7C00184A184B5B6823F47C135360154A154BC9
:100B8C005B6843F4E8135360124A124B1B6843F042
:100B9C008073136000BF0F4B1B6803F00073002BB6
:100BAC00F9D00C4A0B4B5B6823F003035360094AE2
:100BBC00084B5B6843F00203536000BF054B5B6856
:100BCC0003F00C03082BF9D100BF0C37BD4680BCD9
:100BDC00704700BF001002400020024080B489B072
:100BEC0000AF786039600023FB6100233B61002378
:100BFC00BB610023FB6000237B610023BB603B686F
:100C0C00DB7803F00F03FB613B68DB7803F0100328
:100C1C00002B05D03B689B781A46FB691343FB619C
:100C2C003B681B88DBB2002B44D07B681B687B6164
:100C3C000023BB6138E00122BB6902FA03F3FB60BD
:100C4C003B681B881A46FB6813403B613A69FB689A
:100C5C009A4226D1BB699B00FB600F22FB6802FA0B
:100C6C0003F3BB60BB68DB437A6913407B61FA69B1
:100C7C00FB6802FA03F37A6913437B613B68DB7808
:100C8C00282B05D10122BB699A407B685A6108E088
:100C9C003B68DB78482B04D10122BB699A407B6806
:100CAC001A61BB690133BB61BB69072BC3D97B6874
:100CBC007A691A603B681B88FF2B46D97B685B6896
:100CCC007B610023BB613AE0BB690833012202FA65
:100CDC0003F3FB603B681B881A46FB6813403B61BF
:100CEC003A69FB689A4227D1BB699B00FB600F22D3
:100CFC00FB6802FA03F3BB60BB68DB437A69134001
:100D0C007B61FA69FB6802FA03F37A6913437B612E
:100D1C003B68DB78282B05D1BB69083301229A404C
:100D2C007B685A613B68DB78482B05D1BB6908337B
:100D3C0001229A407B681A61BB690133BB61BB69B4
:100D4C00072BC1D97B687A695A6000BF2437BD462E
:100D5C0080BC704780B485B000AF78600B467B8058
:100D6C000023FB737B689A687B881340002B02D0AE
:100D7C000123FB7301E00023FB73FB7B1846143744
:100D8C00BD4680BC704700BF80B483B000AF7860B4
:100D9C000B467B807A887B681A6100BF0C37BD4696
:100DAC0080BC704780B483B000AF78600B467B800A
:100DBC007A887B685A6100BF0C37BD4680BC70478F
:100DCC0080B483B000AF78600B467B8013467B7099
:100DDC007B78002B03D07A887B681A6102E07A88D2
:100DEC007B685A6100BF0C37BD4680BC704700BFA2
:100DFC0080B483B000AF78600B46FB70FB78002B9F
:100E0C0006D00949084B9A697B6813438B6106E04D
:100E1C000549054B9A697B68DB4313408B6100BF26
:100E2C000C37BD4680BC70470010024080B483B0C4
:100E3C0000AF78600D497A681346DB001344DB0081
:100E4C004B600A4B00229A60084B05221A6000BFC7
:100E5C00064B1B6803F48033002BF9D0034B0422A0
:100E6C001A6000BF0C37BD4680BC704710E000E034
:100E7C0080B582B000AF786003E04FF47A70FFF772
:100E8C00D5FF7B685A1E7A60002BF6D100BF08375D
:100E9C00BD4680BD002103E00B4B5B584350043131
:100EAC000A480B4B42189A42F6D30A4A02E0002336
:100EBC0042F8043B084B9A42F9D3FFF7D5FD00F0FA
:100ECC000FF8FFF76FFD7047841700080000002033
:100EDC0000000020000000202C040020FEE7000091
:100EEC000E4B70B51E460E4C0025E41AA410A542FC
:100EFC0004D056F8253098470135F8E700F016F87D
:100F0C00084B094C1E46E41AA4100025A54204D037
:100F1C0056F8253098470135F8E770BD7C17000866
:100F2C007C1700087C17000880170008F8B500BF74
:100F3C00F8BC08BC9E467047F8B500BFF8BC08BCAE
:040F4C009E46704706
:100F50000000000000000000000000000000000091
:100F6000000000F800000000000000333000000026
:100F700000160E00160E0000000000000000000029
:100F800040C07840C0784000043F04043F0404009F
:100F9000007088FC08300000001820FF211E0000AF
:100FA000F008F000E018000000211C031E211E00C4
:100FB00000F00888700000001E212324192721104A
:100FC000000000160E0000000000000000000000FD
:100FD000000000E018040200000000071820400094
:100FE00000020418E0000000004020180700000084
:100FF000404080F0804040000202010F01020200E8
:10100000000000F0000000000101011F01010100CB
:10101000000000000000000000B0700000000000B0
:1010200000000000000000000001010101010101B9
:101030000000000000000000003030000000000050
:101040000000000080601804006018060100000025
:1010500000E010080810E000000F102020100F0022
:10106000001010F8000000000020203F20200000A9
:101070000070080808887000003028242221300001
:1010800000300888884830000018202020110E0009
:101090000000C02010F8000000070424243F2400B2
:1010A00000F80888880808000019212020110E0087
:1010B00000E0108888180000000F112020110E0099
:1010C00000380808C83808000000003F0000000091
:1010D0000070880808887000001C222121221C0052
:1010E00000E010080810E0000000312222110F007B
:1010F000000000C0C0000000000000303000000010
:10110000000000C0C0000000000080B070000000BF
:101110000000804020100800000102040810200098
:1011200040404040404040000404040404040400E3
:101130000008102040800000002010080402010078
:10114000007048080808F000000000303601000078
:10115000C030C828E810E0000718272423140B002B
:101160000000C038E0000000203C230202273820A5
:1011700008F8888888700000203F202020110E0089
:10118000C030080808083800071820202010080080
:1011900008F808080810E000203F202020100F0069
:1011A00008F88888E8081000203F20202320180035
:1011B00008F88888E8081000203F2000030000009D
:1011C000C03008080838000007182020221E02003E
:1011D00008F808000008F808203F210101213F20FD
:1011E000000808F8080800000020203F2020000028
:1011F00000000808F8080800C08080807F00000018
:1012000008F888C028180800203F20012638200050
:1012100008F8080000000000203F202020203000B7
:1012200008F8F800F8F80800203F003F003F2000D1
:1012300008F830C00008F808203F200007183F00D9
:10124000E01008080810E0000F10202020100F0008
:1012500008F808080808F000203F210101010000FB
:10126000E01008080810E0000F18242438504F0040
:1012700008F8888888887000203F2000030C302000
:1012800000708808080838000038202121221C003E
:10129000180808F8080818000000203F2000000087
:1012A00008F808000008F808001F202020201F0070
:1012B0000878880000C83808000007380E010000D0
:1012C000F80800F80008F800033C0700073C03009A
:1012D000081868808068180820302C03032C302000
:1012E0000838C800C83808000000203F200000006F
:1012F00010080808C83808002038262120201800C7
:10130000000000FE020202000000007F404040009A
:10131000000C30C000000000000000010638C000D2
:1013200000020202FE000000004040407F0000007A
:101330000020100804081020000000000000000039
:10134000000000000000000080808080808080809D
:10135000000204080000000000000000000000007F
:1013600000008080808000000019242222223F207B
:1013700008F8008080000000003F112020110E00BE
:101380000000008080800000000E1120202011004D
:10139000000000808088F800000E112020103F20FF
:1013A0000000808080800000001F22222222130083
:1013B000008080F0888888180020203F20200000CE
:1013C0000000808080808000006B94949493600083
:1013D00008F8008080800000203F210000203F208E
:1013E00000809898000000000020203F202000008E
:1013F000000000809898000000C08080807F00007E
:1014000008F8000080808000203F24022D3020005A
:10141000000808F8000000000020203F2020000005
:101420008080808080808000203F20003F20003F1F
:10143000008080008080000000203F2100203F20AD
:101440000000808080800000001F202020201F00DE
:10145000808000808000000080FFA12020110E000D
:101460000000008080808000000E112020A0FF80FE
:10147000808080008080800020203F2120000100AB
:101480000000808080808000003324242424190000
:10149000008080E0808000000000001F202000000D
:1014A0008080000000808000001F202020103F204E
:1014B000808080000080808000010E3008060100DE
:1014C00080800080008080800F300C030C300F0083
:1014D00000808000808080000020312E0E312000AE
:1014E000808080000080808080818E7018060100DE
:1014F00000808080808080000021302C22213000FC
:1015000000000000807C020200000000003F40401C
:1015100000000000FF00000000000000FF000000CD
:101520000002027C800000000040403F00000000FC
:1015300000804040800000800000000000010100A9
:101540000000000000000000002F00000000070065
:10155000070000147F147F1400242A7F2A1200231E
:10156000130864620036495522500000000700004D
:1015700000001C224100000041221C000014083E13
:1015800008140008083E0808000000A060000008D9
:10159000080808080000606000000020100804022D
:1015A000003E5149453E0000427F400000426151EB
:1015B0004946002141454B31001814127F10002785
:1015C00045454539003C4A49493000017109050348
:1015D00000364949493600064949291E0000363679
:1015E00000000000563600000008142241000014DC
:1015F00014141414000041221408000201510906B9
:10160000003E4955592E007C1211127C007F494939
:101610004936003E41414122007F4141221C007F6A
:1016200049494941007F09090901003E4149497A78
:10163000007F0808087F0000417F410000204041F2
:101640003F01007F08142241007F40404040007F5E
:10165000020C027F007F0408107F003E4141413EA2
:10166000007F09090906003E4151215E007F0919EA
:1016700029460046494949310001017F0101003FE7
:101680004040403F001F2040201F003F4038403F67
:1016900000631408146300070870080700615149CB
:1016A000454300007F414100000204081020000073
:1016B00041417F00000402010204004040404040DC
:1016C000000001020400002054545478007F484474
:1016D000443800384444442000384444487F0038AB
:1016E0005454541800087E0901020018A4A4A47CD4
:1016F000007F080404780000447D4000004080849E
:101700007D00007F102844000000417F4000007CE5
:1017100004180478007C08040478003844444438F1
:1017200000FC242424180018242418FC007C08043D
:10173000040800485454542000043F444020003C16
:101740004040207C001C2040201C003C4030403C9D
:10175000004428102844001CA0A0A07C004464542D
:101760004C440000087F41000000007F00000000A2
:0C177000417F0800000804081008000079
:04177C00310100082F
:041780000D0100084F
:0400000508000EA140
:00000001FF
