:020000040800F2
:1000000000500020AD0200088102000885020008AF
:10001000890200088D02000891020008000000001B
:100020000000000000000000000000009502000831
:1000300099020008000000009D020008A1020008CB
:10004000F5020008F5020008F5020008F5020008B4
:10005000F5020008F5020008F5020008F5020008A4
:10006000F5020008F5020008F5020008F502000894
:10007000F5020008F5020008F5020008F502000884
:10008000F5020008F5020008F5020008F502000874
:10009000F5020008F5020008F5020008F502000864
:1000A000F5020008F5020008F5020008F502000854
:1000B000F5020008F5020008F5020008F502000844
:1000C000F5020008F5020008F5020008F502000834
:1000D000F5020008F5020008F5020008F502000824
:1000E000F5020008F5020008F50200080000000013
:1000F0000000000000000000000000000000000000
:0C01000000000000000000005FF808F1A3
:10010C0010B5054C237833B9044B13B10448AFF345
:10011C0000800123237010BD380400200000000073
:10012C00600E0008084B10B51BB108490848AFF326
:10013C0000800848036803B910BD074B002BFBD0A7
:10014C00BDE81040184700BF000000003C04002030
:10015C00600E0008380400200000000030B587B0A5
:10016C00002402940394049405940F4B9A6942F072
:10017C0010029A619B6903F010030193019B0B4DD4
:10018C0022464FF40051284600F056FA4FF4005323
:10019C0002930123039304940223059302A9284696
:1001AC0000F05CF907B030BD0010024000100140B7
:1001BC0072B6FEE700B591B02822002106A800F027
:1001CC0085FD00230193029303930493059302236B
:1001DC00069301230A9310230B9306A800F052FAFE
:1001EC0008B1FFF7E5FF0F23019300210291039162
:1001FC000491059101A800F089FC08B1FFF7D8FF24
:10020C0011B05DF804FB00BF08B500F095F8FFF7DE
:10021C00D1FFFFF7A3FF4FF40051044800F012FA8E
:10022C004FF4FA7000F0ACF8F5E700BF0010014095
:10023C0082B00E4B9A6942F001029A619A6902F0FF
:10024C0001020092009ADA6942F08052DA61DB69AD
:10025C0003F080530193019B054A536823F0E0633C
:10026C0043F08063536002B0704700BF001002403F
:10027C0000000140FEE700BFFEE700BFFEE700BF45
:10028C00FEE700BFFEE700BF704700BF704700BF2E
:10029C00704700BF08B500F061F808BD704700BF9B
:1002AC00FFF7FCFF0B480C490C4A002302E0D45822
:1002BC00C4500433C4188C42F9D3094A094C0023A6
:1002CC0001E013600432A242FBD300F0D7FCFFF72D
:1002DC009BFF70470000002038040020AC0E000883
:1002EC003804002058040020FEE7000010B5044636
:1002FC000E4B18784FF47A73B3FBF0F30C4A10687A
:10030C00B0FBF3F000F094F858B90F2C0BD8002286
:10031C0021464FF0FF3000F059F8064B1C600020CE
:10032C0010BD012010BD012010BD00BF0800002031
:10033C00000000200400002008B5074A136843F0B1
:10034C0010031360032000F02FF80F20FFF7CEFFEF
:10035C00FFF76EFF002008BD00200240034A13681F
:10036C00034909780B441360704700BF5404002004
:10037C0008000020014B1868704700BF540400208F
:10038C0038B50446FFF7F6FF0546B4F1FF3F02D03F
:10039C00044B1B781C44FFF7EDFF401B8442FAD83A
:1003AC0038BD00BF08000020074AD36823F4E0637F
:1003BC001B041B0C000200F4E060184340F0BF600B
:1003CC0040F40030D060704700ED00E030B4164BC4
:1003DC00DB68C3F30223C3F10704042C28BF0424F5
:1003EC001D1D062D01D9DD1E00E00025012303FA99
:1003FC0004F4013C2140A940AB40013B1A400A43A4
:10040C00002808DB1201D2B200F1604000F5614017
:10041C0080F8002305E000F00F001201D2B2034B6C
:10042C001A5430BC704700BF00ED00E014ED00E042
:10043C000138B0F1807F0AD2064B5860F021064A91
:10044C0082F823100020986007221A607047012060
:10045C00704700BF10E000E000ED00E0F0B583B0A5
:10046C0000263446D4E00122A24013409A4240F0C8
:10047C00CE804D68122D2DD00BD8022D27D003D84D
:10048C005DB3012D1ED035E0032D30D0112D1BD0C6
:10049C0030E0634FBD4220D008D8A7F58017BD428D
:1004AC001BD007F58037BD4224D116E05D4FBD420D
:1004BC0013D007F58037BD420FD0A7F58017BD428A
:1004CC0018D10AE0CE6815E0CE68043612E0CE688A
:1004DC0008360FE0CE680C360CE08D684DB1012D5E
:1004EC0002D10261082605E04261082602E00026DE
:1004FC0000E00426FF2B01D8864601E000F1040E33
:10050C00FF2B01D8A20002E0A4F108029200DEF851
:10051C0000700F25954027EA050506FA02F22A43DA
:10052C00CEF800204A6812F0805F70D03E4A956980
:10053C0045F001059561926902F001020192019A60
:10054C00A708BD1C394A52F8255004F0030292004A
:10055C004FF00F0E0EFA02FE25EA0E0E344DA84295
:10056C000DD005F58065A8420BD005F58065A84235
:10057C0009D005F58065A84207D1032506E00025C2
:10058C0004E0012502E0022500E0042505FA02F250
:10059C004EEA02020237254D45F827204A6812F42C
:1005AC00801F05D005F58065AA681A43AA6004E08F
:1005BC00204DAA6822EA0302AA604A6812F4001FBE
:1005CC0004D01C4DEA681A43EA6004E0194DEA684D
:1005DC0022EA0302EA604A6812F4003F04D0154D87
:1005EC006A681A436A6004E0124D6A6822EA0302E0
:1005FC006A604A6812F4803F04D00E4D2A68134397
:10060C002B6004E00B4D2A6822EA03032B600134B3
:10061C000B6833FA04F27FF426AF03B0F0BD00BFD1
:10062C0000002110000031100010024000000140B9
:10063C0000080140000401400AB10161704709043F
:10064C0001617047C36803EA010221EA030141EA30
:10065C0002410161704700BF82B0084B1B68084A19
:10066C00A2FB03235B0A00FB03F0019000BF019B7C
:10067C005A1E0192002BF9D102B0704700000020E5
:10068C00D34D6210002800F0EC8170B582B00446A6
:10069C00036813F0010F6BD0A84B5B6803F00C03DD
:1006AC00042B0AD0A54B5B6803F00C03082B0DD16F
:1006BC00A24B5B6813F4803F08D0A04B1B6813F46B
:1006CC00003F55D06368002B52D1CCE16368B3F581
:1006DC00803F05D1994A136843F48033136026E0B8
:1006EC0063B903F1804303F504331A6822F48032B2
:1006FC001A601A6822F480221A6018E0B3F5A02F51
:10070C000CD103F18043A3F53C331A6842F48022E8
:10071C001A601A6842F480321A6008E0874B1A6833
:10072C0022F480321A601A6822F480221A606368FC
:10073C007BB1FFF71FFE054605E0FFF71BFE401BD4
:10074C00642800F292817D4B1B6813F4003FF4D0B7
:10075C000EE0FFF70FFE054605E0FFF70BFE401B12
:10076C00642800F28481754B1B6813F4003FF4D1AC
:10077C00236813F0020F50D0704B5B6813F00C0F12
:10078C000AD06E4B5B6803F00C03082B16D16B4B35
:10079C005B6813F4803F11D1684B1B6813F0020F98
:1007AC0003D02369012B40F06481644A136823F061
:1007BC00F803616943EAC10313602EE02369D3B1E6
:1007CC0001225F4B1A60FFF7D5FD054605E0FFF7E8
:1007DC00D1FD401B022800F24E81584B1B6813F0D0
:1007EC00020FF4D0554A136823F0F803616943EA09
:1007FC00C103136011E00022514B1A60FFF7BAFDE0
:10080C00054605E0FFF7B6FD401B022800F23581D6
:10081C004A4B1B6813F0020FF4D1236813F0080F36
:10082C0029D0A369ABB10122464B1A60FFF7A2FD98
:10083C00054605E0FFF79EFD401B022800F21F81D4
:10084C003E4B5B6A13F0020FF4D00120FFF704FF5C
:10085C0011E000223B4B1A60FFF78CFD054605E0CA
:10086C00FFF788FD401B022800F20B81334B5B6ABB
:10087C0013F0020FF4D1236813F0040F00F08B80F7
:10088C002E4BDB6913F0805F0BD12C4BDA6942F0F5
:10089C008052DA61DB6903F080530193019B0125DF
:1008AC0000E00025284B1B6813F4807F13D1264AE7
:1008BC00136843F480731360FFF75CFD064605E094
:1008CC00FFF758FD801B642800F2DD801E4B1B686F
:1008DC0013F4807FF4D0E368012B05D1174A136A17
:1008EC0043F00103136222E063B903F1804303F583
:1008FC0004331A6A22F001021A621A6A22F0040204
:10090C001A6214E0052B09D10C4B1A6A42F004024E
:10091C001A621A6A42F001021A6208E0074B1A6A5C
:10092C0022F001021A621A6A22F004021A62E368C7
:10093C00D3B1FFF71FFD064610E000BF00100240C8
:10094C00000042428004424200700040FFF712FD5A
:10095C00801B41F28833984200F29780544B1B6AFB
:10096C0013F0020FF2D010E0FFF704FD064607E08B
:10097C00FFF700FD801B41F28833984200F287801C
:10098C004B4B1B6A13F0020FF2D125B1484AD369C5
:10099C0023F08053D361E369002B7AD0444A526828
:1009AC0002F00C02082A4CD0022B37D10022414B0A
:1009BC001A60FFF7DFFC054604E0FFF7DBFC401B89
:1009CC00022868D83A4B1B6813F0007FF5D1236AD4
:1009DC00B3F5803F06D136494B6823F40032A36847
:1009EC0013434B603248436823F47411236A626AE0
:1009FC0013430B43436001222E4B1A60FFF7BAFCE2
:100A0C00044604E0FFF7B6FC001B022845D8284B2F
:100A1C001B6813F0007FF5D0002047E00022254B27
:100A2C001A60FFF7A7FC044604E0FFF7A3FC001BC9
:100A3C00022834D81E4B1B6813F0007FF5D1002020
:100A4C0034E0012B2DD01A4B5B6803F48031226A01
:100A5C00914228D103F47013626A934225D001208D
:100A6C0024E001207047012020E003201EE0032039
:100A7C001CE001201AE0032018E0032016E00320FC
:100A8C0014E0032012E0032010E003200EE003200A
:100A9C000CE000200AE0032008E0032006E003201D
:100AAC0004E0012002E0012000E0002002B070BD53
:100ABC0000100240600042420F4B5B6803F00C02D6
:100ACC00082A16D1C3F383420C49885C13F4803F87
:100ADC000BD0094B5B68C3F34043094AD25C094B0A
:100AEC0003FB00F0B0FBF2F07047074B03FB00F088
:100AFC0070470448704700BF00100240880E000881
:100B0C00980E000800127A0000093D00002800F041
:100B1C009D8070B50446544B1B6803F007038B4251
:100B2C000BD2514A136823F007030B43136013686D
:100B3C0003F00703994240F08B80236813F0020FF7
:100B4C0017D013F0040F04D0484A536843F4E06301
:100B5C005360236813F0080F04D0444A536843F4DD
:100B6C00605353604148436823F0F002A368134379
:100B7C0043600D46236813F0010F2ED06268012AE2
:100B8C0005D13A4B1B6813F4003F0DD162E0022AE9
:100B9C0005D1364B1B6813F0007F05D15CE0334B5D
:100BAC001B6813F0020F59D030494B6823F0030334
:100BBC0013434B60FFF7DEFB064606E0FFF7DAFB5C
:100BCC00801B41F2883398424AD8284B5B6803F06B
:100BDC000C036268B3EB820FF0D1234B1B6803F05C
:100BEC0007039D420AD2204A136823F007032B43C4
:100BFC001360136803F007039D4233D1236813F08D
:100C0C00040F06D019494B6823F4E062E3681343E0
:100C1C004B60236813F0080F07D0144A536823F471
:100C2C006053216943EAC1035360FFF745FF0F4B43
:100C3C005B68C3F303130E4AD35CD8400D4B1860AA
:100C4C000D4B1868FFF752FB002070BD0120704758
:100C5C00012070BD012070BD012070BD012070BD50
:100C6C00032070BD012070BD002002400010024026
:100C7C00780E0008000000200400002070B50F4E14
:100C8C000F4D761BB61018BF002405D0013455F853
:100C9C00043B9847A642F9D10A4E0B4D00F0DAF806
:100CAC00761BB61018BF002406D0013455F8043B4F
:100CBC009847A642F9D170BD70BD00BFA00E0008C8
:100CCC00A00E0008A80E0008A00E000870B484073F
:100CDC0046D0541E002A41D0CDB2034602E0621E1B
:100CEC00E4B3144603F8015B9A07F8D1032C2ED910
:100CFC00CDB245EA05250F2C45EA054519D92646FE
:100D0C0003F11002103E0F2E42F8105C42F80C5CFE
:100D1C0042F8085C42F8045C02F11002F2D8A4F12B
:100D2C00100222F00F0204F00F041032032C1344B3
:100D3C000DD91E462246043A032A46F8045BFAD81B
:100D4C00221F22F003020432134404F003042CB1DA
:100D5C00C9B21C4403F8011BA342FBD170BC704701
:100D6C0014460346C2E700BF024B13B1024800F021
:100D7C0005B8704700000000950D000800230146DF
:100D8C001A46184600F014B838B5074D074C2C1B02
:100D9C00A41005D0013C55F8043D9847002CF9D11E
:100DAC00BDE8384000F05CB8AC0E0008A80E000896
:100DBC002DE9F047254C064625688846D5F848416C
:100DCC0092469946C4B360681F2817DC411C76B163
:100DDC0004EB8003C3F888A0D4F888510122824028
:100DEC001543022EC4F88851C3F808911ED0831CF9
:100DFC006160002044F82380BDE8F087144B03B3F6
:100E0C004FF4C870AFF300800446D0B1D5F8483128
:100E1C00002784E888003846C5F848410121C4F809
:100E2C008871C4F88C71002EE1D0D1E7D4F88C31E4
:100E3C001A43C4F88C21DAE705F5A674C5F84841C5
:100E4C00C1E74FF0FF30BDE8F08700BF9C0E0008F3
:100E5C0000000000F8B500BFF8BC08BC9E46704707
:0C0E6C00F8B500BFF8BC08BC9E467047FB
:100E78000000000000000000010203040607080942
:100E880002030405060708090A0B0C0D0E0F1010C3
:080E980001020000100000201F
:080EA000750D00083101000886
:040EA8000D01000830
:100EAC000024F4001000000001000000000000000D
:100EBC0000000000FC02002064030020CC03002092
:100ECC000000000000000000000000000000000016
:100EDC000000000000000000000000000000000006
:100EEC0000000000000000000000000000000000F6
:100EFC0000000000000000000000000000000000E6
:100F0C0000000000000000000000000000000000D5
:100F1C0000000000000000000000000000000000C5
:100F2C0000000000000000000000000000000000B5
:100F3C0000000000000000000000000000000000A5
:100F4C000000000000000000000000000000000095
:100F5C000000000000000000010000000000000084
:100F6C000E33CDAB34126DE6ECDE05000B00000049
:100F7C000000000000000000000000000000000065
:100F8C000000000000000000000000000000000055
:100F9C000000000000000000000000000000000045
:100FAC000000000000000000000000000000000035
:04000005080002AD40
:00000001FF
