:020000040800F2
:10000000E80C0020DD0400083D0200083F02000863
:1000100049020008530200085D02000800000000C9
:10002000000000000000000000000000670200085F
:100030006902000800000000F30400086B020008D9
:10004000F7040008F7040008F70400086F0200082E
:10005000F7040008F70400086D02000819130008EF
:10006000F7040008F7040008F7040008F704000884
:10007000F7040008F7040008F7040008F704000874
:10008000F7040008F7040008F7040008F704000864
:10009000F7040008F7040008F7040008F704000854
:1000A000F7040008F7040008F7040008F704000844
:1000B000F7040008F7040008F7040008F704000834
:1000C000F7040008F7040008F7040008F704000824
:1000D000F704000837120008FD340008F704000890
:1000E000F7040008F7040008F704000800F002F81D
:1000F00000F094F80AA090E8000C82448344AAF12E
:100100000107DA4501D100F089F8AFF2090EBAE82B
:100110000F0013F0010F18BFFB1A43F0010318473B
:10012000588B0000788B0000103A24BF78C878C143
:10013000FAD8520724BF30C830C144BF04680C60ED
:10014000704700000023002400250026103A28BF35
:1001500078C1FBD8520728BF30C148BF0B60704739
:100160006E2905F0B383702904F05187662908F0E1
:100170005E83652908F05B83672908F0588361294D
:10018000AFF3008003681B0A28BF41F08001692992
:1001900004F0C286642904F0BF86752904F0BC8689
:1001A0006F2905F0B086782904F01D87E92905F04C
:1001B0004B86E42905F04886F52905F04586EF29A8
:1001C00005F0AD86F82904F01C870368DB0928BF19
:1001D00041F08001632905F0CC85732905F0D185B4
:1001E000E32905F0A987F32905F0AE8700207047C1
:1001F0001FB59DE8030005F0BDFA05F0E3FE04001D
:100200000020002107F094FC401C606000200021C9
:1002100007F0A4FCE0601FBD10B510BD06F0ECF9BE
:100220001146FFF7E5FF01F08FF906F00AFA03B473
:10023000FFF7F2FF03BC06F07BFA000070470CA149
:100240001A4800F0D8FFFEE719A1184800F0D3FFC4
:10025000FEE726A1154800F0CEFFFEE732A11348C5
:1002600000F0C9FFFEE7704770477047704770475E
:100270000D0A2A2A2A2A2A2A2A2A2A2A2A2A2A2A1B
:100280002A2A2A2A2A486172644661756C745F487A
:10029000616E646C65722A2A2A2A2A2A2A2A2A2A44
:1002A0002A2A2A2A2A2A2A2A2A0D0A000038014044
:1002B0000D0A2A2A2A2A2A2A2A2A2A2A2A2A2A2ADB
:1002C0002A2A2A2A2A4D656D4D616E6167655F484D
:1002D000616E646C65722A2A2A2A2A2A2A2A2A2A04
:1002E0002A2A2A2A2A2A2A2A2A0D0A000D0A2A2A12
:1002F0002A2A2A2A2A2A2A2A2A2A2A2A2A2A2A2A5E
:100300002A4275734661756C745F48616E646C65F2
:10031000722A2A2A2A2A2A2A2A2A2A2A2A2A2A2AF5
:100320002A2A2A2A0D0A00000D0A2A2A2A2A2A2AFB
:100330002A2A2A2A2A2A2A2A2A2A2A2A2A55736172
:1003400067654661756C745F48616E646C65722A9E
:100350002A2A2A2A2A2A2A2A2A2A2A2A2A2A2A2AFD
:100360002A2A0D0A000000000CB50022019200921A
:100370005248016841F4803101604FF4A063016884
:1003800001F4003100910199491C0191009911B9C2
:1003900001999942F3D10168890302D501210091A5
:1003A00000E000920099012930D145490A6842F0E5
:1003B00010020A600A6822F003020A600A6842F02A
:1003C00002020A604168416041684160416841F44D
:1003D00080614160416821F47C114160416841F4D1
:1003E000E8114160016841F0807101600168890194
:1003F000FCD5416821F003014160416841F00201F0
:1004000041604168C1F381010229FAD10CBDABE71B
:1004100010B52A48016841F0010101604168294A8C
:10042000114041600168284A11400160016821F4CF
:1004300080210160416821F4FE0141604FF41F01F9
:100440008160FFF7E4FF21494FF00060086010BDB4
:1004500010B51A4A506800F00C011D4B1D480029C8
:100460000ED004290ED008290ED003605168194A15
:10047000C1F30311121D515C0268CA40026010BD35
:100480000360F3E70360F1E7516801F4701153680A
:1004900003F48033022404EB914133B153689B038E
:1004A00007D50D4B59430160E0E70B4B5943016001
:1004B000DCE7074B59430160D8E700000010024019
:1004C000002002400000FFF8FFFFF6FE08ED00E00C
:1004D00000127A000000002000093D000948804712
:1004E00009480047FEE7FEE7FEE7FEE7FEE7FEE716
:1004F000FEE7FEE7FEE7FEE704480549054A064B2E
:100500007047000011040008ED000008E802002018
:10051000E80C0020E8040020E80400202A490843F1
:100520002A490860704770B50F23C2780126017808
:10053000002A1ED0254A126802F4E062C2F5E06289
:10054000120AC2F10404D3404578A54082781A40CB
:100550002A43120101F1E02181F80024007800F023
:100560001F018E404009800000F1E020C0F80061CA
:1005700070BD01F01F0086404809800000F1E020B6
:10058000C0F8806170BD124A114001430F48001F3E
:10059000016070470D4A121D002903D01168014304
:1005A0001160704711688143116070474FF0E0217E
:1005B000042804D0086920F0040008617047086925
:1005C00040F00400086170470000FA050CED00E0FF
:1005D00080FFFF1F10B59C49884209D101210420EA
:1005E00000F07DFA0021BDE81040042000F077BA49
:1005F0009649884209D10121082000F070FA0021B3
:10060000BDE81040082000F06ABA9149884209D13B
:100610000121102000F063FA0021BDE810401020F5
:1006200000F05DBA8B49884209D10121202000F0F9
:1006300056FA0021BDE81040202000F050BA86494B
:10064000884209D10121402000F049FA0021BDE88B
:100650001040402000F043BA8049884209D101216E
:10066000802000F03CFA0021BDE81040802000F01E
:1006700036BA7B4988420AD184150121204600F010
:100680002EFA2046BDE81040002100F028BA10BD27
:1006900010B50121084600F022FA0021BDE8104003
:1006A000012000F01CBA2DE9F0410022CC7804F0C2
:1006B0000F03E40601D58C7823430C784FF00F0725
:1006C00014F0FF0F4FF0010C1CD005680CFA02F477
:1006D0000E882640A64211D1960007FA06F825EAB0
:1006E000080503FA06F848EA0505CE78282E02D058
:1006F000482E02D002E0446100E00461521C082A46
:10070000E4D305600A88FF2A1ED94568002202F159
:1007100008060CFA06F40E882640A64210D1960070
:1007200007FA06F825EA080503FA06F848EA050577
:10073000CE78282E00D14461CE78482E00D10461B5
:10074000521C082AE3D34560BDE8F0814FF6FF71E3
:100750000180022181700421C1707047024600208F
:1007600092680A4200D001207047806880B27047CA
:1007700002460020D2680A4200D001207047C068BB
:1007800080B270470161704741617047002A01D013
:100790000161704741617047C160704741F4803228
:1007A00082618161826181698069704710B52D4BDA
:1007B0001A684FF68074224042EA0010084318601D
:1007C00010BD2949C8617047F0B5264C002801DAF0
:1007D000E36900E06368C0F30346420D120185B28D
:1007E000C0F301579540032F07D0C2020CD5032256
:1007F000B240934343F0706209E023F07062636893
:1008000023F07063636002E0AB4343F0706201B1B8
:100810002A43002801DAE261F0BD6260F0BD10B544
:100820008A07120F0F23934021F003040D4921443E
:100830008C689C438C608B68904003438B6010BD38
:100840000949DC310860704700080140000C014094
:10085000001001400014014000180140001C01403C
:10086000002001400000014000002042B44801681F
:1008700041F0010101604168B24A114041600168E4
:10088000B14A11400160016821F480210160416892
:1008900021F4FE0141604FF41F0181607047A849B7
:1008A0000A6822F480320A600A6822F480220A6010
:1008B000B0F5803F07D0B0F5802F03D1086840F431
:1008C000A02008607047086840F4803008607047D6
:1008D0000346002059099A4A01290AD002290AD060
:1008E000516A03F01F02012393400B4200D0012004
:1008F00070471168F5E7116AF3E718B5002000901A
:100900004FF4A0643120FFF7E3FF0099491C0091E8
:100910000099A14201D00028F4D03120FFF7D8FF80
:1009200008B1012018BD002018BD854A116821F0CA
:10093000F80141EAC00010607047844908607047C0
:100940007F4B5A6822F47C1208431043586070476A
:100950007E49086670477A4A516821F003010143D5
:10096000516070477648406800F00C007047744A48
:10097000516821F0F001014351607047704A51689D
:1009800021F4E0610143516070476D4A516821F4E0
:10099000605141EAC00050607047694A002903D0A5
:1009A000517A014351727047517A814351727047B5
:1009B0006649D83108607047614A516821F4404166
:1009C0000143516070475E49002220310A7001F8EE
:1009D0002029012805D0042802D1052081F8200013
:1009E0007047012081F8200070475949086070471E
:1009F00053490A6A02430A627047554944390860FC
:100A0000704710B54E4A516801F00C01514B002956
:100A100027D0042927D0082927D00360516801F086
:100A2000F00109094C4B5C5C0168E140416054688D
:100A300004F4E064240A1C5D21FA04F48460546820
:100A400004F46054E40A1B5DD940C160526802F4AA
:100A50004042920B404B1B1F9A5CB1FBF2F10161CB
:100A600010BD0360DAE70360D8E7516801F4701144
:100A7000536803F48033022404EB914133B153688B
:100A80009B0307D5354B59430160C7E7334B5943A7
:100A90000160C3E72F4B59430160BFE7284A002993
:100AA00003D05169014351617047516981435161DC
:100AB0007047234A002903D091690143916170472F
:100AC00091698143916170471D4A002903D0D16922
:100AD0000143D1617047D1698143D1617047184AA0
:100AE000002903D0D1680143D1607047D1688143A8
:100AF000D1607047124A002903D011690143116186
:100B0000704711698143116170471149403908608C
:100B100070470E49C86470470949C8717047084852
:100B2000416A41F080714162704701460020044AE9
:100B300092680A4200D001207047014988727047CC
:100B4000001002400000FFF8FFFFF6FE00004242E6
:100B50008004424200127A001800002000093D0083
:100B600010B5E14988420AD101218C032046FFF7E4
:100B7000B6FF2046BDE810400021FFF7B0BFDB49BB
:100B800088420AD101214C042046FFF7B3FF2046DA
:100B9000BDE810400021FFF7ADBFD54988420AD11A
:100BA00001218C042046FFF7A5FF2046BDE8104038
:100BB0000021FFF79FBFCF4988420AD10121CC0411
:100BC0002046FFF797FF2046BDE810400021FFF7C1
:100BD00091BFC94988420AD101210C052046FFF77F
:100BE00089FF2046BDE810400021FFF783BF10BDFC
:100BF00030B585B004460D46208A4CF6FF7108409A
:100C0000E98801432182A0894EF6F3110840A988A2
:100C10002A8911436A8902431143A181A08A4FF6B0
:100C2000FF410840A9890143A1826846FFF7E9FE18
:100C3000AD48844201D1039800E00298A1890904DB
:100C400008D500EBC00101EB001029684900B0FB9A
:100C5000F1F007E000EBC00101EB0010296889000A
:100C6000B0FBF1F06422B0FBF2F109010B096FF067
:100C700018056B4300EB8300A3891D044FF032037A
:100C800007D503EBC000B0FBF2F000F0070008430B
:100C900006E003EB0010B0FBF2F000F00F00084399
:100CA000208105B030BD4FF41651016000218180D4
:100CB000C18001810C2242818181704710B5038A75
:100CC0004FF2FF0213400A884C8822438C88C9885F
:100CD0000C4322431A43028210BD0021018041804F
:100CE0008180C1807047002904D0818941F400517E
:100CF00081817047818921F400518181704710B54D
:100D000040F66A13C1F3421301F01F040121A14010
:100D1000012B07D0022B07D014303AB102680A43E6
:100D2000026010BD0C30F8E71030F6E702688A4325
:100D3000026010BD002A03D0828A0A438282704773
:100D4000828A8A4382827047028A22F00F020282DC
:100D5000028A0A4302827047828922F400628281F9
:100D600082890A4382817047002904D0818941F039
:100D7000020181817047818921F0020181817047E0
:100D8000028A22F020020282028A0A43028270470B
:100D9000002904D0018A41F4804101827047018A10
:100DA00021F4804101827047C1F3080181807047BE
:100DB0008088C0F308007047818941F0010181817A
:100DC0007047028BD2B20283028B42EA0121018377
:100DD0007047028B02F47F420283028B0A43028334
:100DE0007047002904D0818A41F020018182704738
:100DF000818A21F0200181827047002904D0818AF4
:100E000041F0100181827047818A21F010018182B6
:100E10007047002904D0818A41F00801818270471F
:100E2000818A21F0080181827047002904D08189DC
:100E300041F40041818170478189C1F30E018181B4
:100E40007047002904D0818A41F400618182704793
:100E5000818A21F4006181827047828A22F0040233
:100E60008282828A0A4382827047002904D0818A62
:100E700041F0020181827047818A21F00201818262
:100E800070470246002012880A4200D001207047B5
:100E90008A05C9430180704770B5002440F66A1284
:100EA000C1F3421301F01F05012606FA05F2012BDA
:100EB0000CD0022B0DD0838A1340090A8E40008883
:100EC00030400BB100B10124204670BD838913402E
:100ED000F3E7038A1340F0E740F66A120A0A012199
:100EE0009140C943018070470038014000440040F0
:100EF00000480040004C00400050004038490020AD
:100F00000860091D0860091D0860091D0860344952
:100F1000344814310860704730B5314A837901682C
:100F2000002B2AD013688B431360111D0B680468D3
:100F3000A3430B60017911440B68046823430B60E1
:100F4000274C08342168036899432160231D1968E0
:100F50000568A94319604179102905D011440A6830
:100F6000006802430A6030BD2168026811432160B5
:100F7000196800680143196030BD007910440268A7
:100F80008A43026030BD0021016001710C22427170
:100F900081717047124910310A6802430A60704734
:100FA000014600200E4A143212680A4200D0012085
:100FB00070470B4914310860704701460020084A09
:100FC00012680A40064B14331B680B4202D0002AF9
:100FD00000D00120704702491431086070470000BA
:100FE00000040140FFFF0F004FF0E020016921F0F5
:100FF0000401016122480921017042F22831418037
:1010000070471F49097848434FF0E02148610023A9
:101010008B61012008610869C20701D0C003FAD5BD
:101020000B618B617047002810D0154949884843EF
:101030004FF0E021486100238B61012008610869BD
:10104000C20701D0C003FAD50B618B61704770B540
:101050004FF4FA75B0FBF5F1CCB2B0FBF5F105FB3E
:10106000110604E02846FFF7DEFF641EE4B2002C00
:10107000F8D1002E03D03046BDE87040D3E770BDF4
:101080002800002070B586B0044601210420FFF737
:1010900010FD01218803FFF70CFD18218DF81710B2
:1010A0004FF40071ADF8141003258DF816506A4EF8
:1010B00005A93046FFF7F7FA04218DF81710090249
:1010C000ADF814108DF8165005A93046FFF7EBFA6D
:1010D00001940024ADF810400C20ADF80E00ADF8DE
:1010E0000C40ADF80A40ADF808405C4D01A9284617
:1010F000FFF77EFD01212846FFF7F5FD012240F2B2
:1011000025512846FFF7FBFD25208DF80000012022
:101110008DF803008DF8014002208DF8020068462A
:10112000FFF701FA06B070BDF0B587B005460121A2
:101130000420FFF7BEFC01214804FFF7C5FC18217D
:101140008DF81B100426ADF8186003248DF81A40A2
:10115000414F06A93846FFF7A6FA8DF81B60082113
:10116000ADF818108DF81A4006A93846FFF79BFA1B
:1011700002950024ADF814400C20ADF81200ADF833
:101180001040ADF80E40ADF80C40354D02A9284690
:10119000FFF72EFD01212846FFF7A5FD012240F2B1
:1011A00025512846FFF7ABFD26208DF804000120CD
:1011B0008DF807008DF805408DF8064001A8FFF76F
:1011C000B2F907B0F0BD2DE9F04107460D461646CD
:1011D00000240CE015F8011B3846FFF7E5FD40211F
:1011E0003846FFF74EFE0028F9D0641CA4B2B44282
:1011F000F0D3BDE8F0810FB430B5CBB0054601ACFB
:1012000050AB4FF4947101A84F9A03F0E9FD002010
:10121000009009E0641C2846FFF7C6FD40212846DF
:10122000FFF72FFE0028F9D021780029F2D14BB02A
:1012300030BC5DF814FB10B5084C40F22551204637
:10124000FFF72AFE002805D02046BDE810402021E7
:10125000FFF71EBE10BD000000080140003801402D
:101260000044004010B5044684F001024FF40051E0
:101270000D48FFF78BFA0D48047010BD08B5012129
:101280001020FFF716FC10208DF803004002ADF887
:10129000000003208DF8020069460348FFF703FAB7
:1012A0000020FFF7DFFF08BD001001402C000020E8
:1012B0007FB501210420FFF7FCFB01210846FFF761
:1012C000F8FB48208DF80F000224ADF80C400320F5
:1012D0008DF80E0003A91D48FFF7E5F90121002054
:1012E000FFF79DFA019400208DF808000C208DF87E
:1012F000090001258DF80A5001A8FFF70DFE07200F
:101300008DF800008DF801408DF802408DF80350F3
:101310006846FFF708F97FBD10B50A20FFF783FE86
:1013200002210A48FFF71AFA30B909480078012863
:1013300007D00120FFF796FFBDE810400220FFF71D
:101340004ABE0020FFF78EFFF6E7000000080140CC
:101350002C00002070B56748016821F470410160DD
:10136000016841F440510160C414051F0022214668
:101370002846FFF70BFA1420FFF755FE01222146FD
:101380002846FFF703FABDE870401E20FFF739BE7C
:1013900070B500245748016821F47041016001686C
:1013A00041F400410160C614051F04E0641CE4B26E
:1013B0000120FFF726FE31462846FFF7CFF908B196
:1013C000642CF3D3642C01D3012070BD002404E00D
:1013D000641CE4B20120FFF714FE31462846FFF7F3
:1013E000BDF908B9642CF3D3642C01D3012070BD7E
:1013F000002070BD70B500243E4D4FF400662D1FD7
:1014000004E0641CE4B20120FFF7FBFD31462846EE
:10141000FFF7A4F908B1642CF3D3002404E0641CA2
:10142000E4B20120FFF7EDFD31462846FFF796F9BB
:1014300008B9642CF3D32820FFF7E3FD3146284692
:10144000FFF78CF908B1012070BD002070BD70B5A8
:10145000002000244006050EFFF7CCFF2843641C43
:10146000E4B2082CF6D370BD2DE9FC4106460F46C8
:10147000FFF770FFFFF78CFF10B10120BDE8FC8182
:1014800000246D46FFF7E3FF2855641CE4B2052CE9
:10149000F8D39DF800109DF801009DF803300A185C
:1014A0009DF8020003441A449DF804309A4201D189
:1014B000397030700020E1E738B501210420FFF7D2
:1014C000F8FA4FF40064ADF8004010208DF80300E6
:1014D00003208DF80200074D69462D1F2846FFF7AF
:1014E000E2F821462846FFF74DF9FFF733FFFFF7F3
:1014F0004FFF38BD0408014070B54FF4A060FFF7FE
:101500000DF8FFF771FD4FF4E1342046FFF7BAFD07
:101510002046FFF709FEFFF7CBFEFFF7AFFE2A4C90
:101520004FF47A7506E029A12046FFF764FE2846AD
:10153000FFF78DFDFFF7C0FF0028F4D12046BDE87E
:10154000704026A1FFF757BE0024FFF7D5FF01F03A
:1015500091FF1D4E26A13046FFF74DFE4FF4FA7560
:1015600002E02846FFF75FFD28A12AA001F02FFF27
:101570000028F6D133A13046FFF73DFE02E02846B1
:10158000FFF751FD00F0E4F90028F8D100F08BFCE2
:101590003546641CA4B2642C0CD33249481EFFF7B4
:1015A00063FF31A12846FFF726FE00F088FA0024E9
:1015B00001F0F4FE002001F043FF08B100F09FFCB1
:1015C0000A20FFF744FDE4E7003801404448543165
:1015D00031204572726F72200D0A0000204861723E
:1015E000647761726520696E6974204F4B0D0A0043
:1015F000436F6E6E656374204D5154547320536570
:10160000727665722E2E2E0D0A000000434F4E4E4C
:101610004543540041542B43495053544152543D87
:1016200022544350222C226D717474732E686563AA
:101630006C6F7564732E636F6D222C313838330DE7
:101640000A000000436F6E6E656374204D51545460
:101650002053657276657220537563636573730DED
:101660000A0000002E0000204F6E654E65745F5327
:10167000656E64446174610D0A0000002DE9F04359
:101680008BB005460024284603F016FFC7B20DB103
:101690001C2F03D201200BB0BDE8F0834FF00009EE
:1016A0000DF1040806E0285D08F8040005F8049030
:1016B000641CE4B2BC42F6D308F80490002600246F
:1016C00018E018F806002B281AD008DC20281ED0B5
:1016D000232838D025282FD0262806D13AE02F28D5
:1016E0001CD03D283DD03F281FD02855641CE4B2B3
:1016F000761CF6B2BE42E4D305F804900020CAE797
:101700002819FEA103F042FFE41CE4B2F0E7281917
:10171000FBA103F03BFFE41CE4B2E9E72819F9A1BF
:1017200003F034FFE41CE4B2E2E72819F6A103F069
:101730002DFFE41CE4B2DBE72819F4A103F026FF37
:10174000E41CE4B2D4E72819F1A103F01FFFE41C64
:10175000E4B2CDE72819EFA103F018FFE41CE4B2CE
:10176000C6E72819ECA103F011FFE41CE4B2BFE7BF
:101770002DE9F04FC9B00546DDF84CB1DDF85491C4
:10178000DDF848810C4616461F464FF0000ACDF89A
:1017900020A1002D0AD04CB1E048864206D32FB1DB
:1017A000BBF1000F02D05498782803D2012049B031
:1017B000BDE8F08F402118A803F08DFF384603F0F4
:1017C0007BFE00903B4648AA402118A800F0E6FEA8
:1017D000482106A803F07FFFB9F1000F09D0D0A07F
:1017E0008DE831003346D0A2482106A803F028FB3B
:1017F00009E0CBA08DE811013346D1A24821039521
:1018000006A803F01DFB402128A803F064FF06A8EA
:1018100003F052FE074618A803F04EFE014628A822
:1018200000903B4606AA18A800F0AFFDCDF820A115
:10183000402138A803F04FFF28A803F03DFE009098
:1018400028AB48AA402138A800F024FE38A8FFF7AA
:1018500015FF38A8B9F1000F0BD0B1A1CDE90210E6
:10186000CDE900462B46BEA25846549903F0E8FA4B
:101870000BE0CDE90186AAA10094CDE903102B4627
:10188000C54A5846549903F0DBFA00208FE7F0B5BB
:10189000ABB001240D26FD2003F03FFA054615B13B
:1018A0004FF4FA7705E020462BB0F0BD3846FFF73D
:1018B000BAFBBAA1BBA001F08AFD0028F6D1012035
:1018C000902107AA0027CDE90210CDE90072BFA33D
:1018D000CA4ACBA1CDA0FFF74BFFCFA00D21CDE988
:1018E000001007ABCD4A06F1F001284603F0A8FA34
:1018F000284603F0E1FD81B2284601F089FDFA2077
:1019000001F09EFD10B1C6A103F0A0FDB8B1029791
:10191000C64E02A9CDE9001603ABA6F11002C449D8
:1019200003F044FC04280AD10298CDE9000603AB79
:10193000A6F11002BFA1C748FFF75DFC00242846AE
:1019400003F01AFAC4A1C5A001F041FD2046ABE79F
:1019500070B5B2B000242E942F94309431940125A8
:10196000A02006AEACA1CDE90016CDE9020497A3F4
:10197000A24AA3A1A5A0FFF7FBFE0096B54EA0A327
:10198000A5A2BAA13046FFF736FC2EA8CDE9044047
:101990000120CDE900040302029403949EA206A94B
:1019A00097A000F03EFF30B1BCA13046FFF723FC0A
:1019B00032B0284670BD2F9881B22E9801F028FDD4
:1019C000FA2001F03DFD0446002C31D0204600F005
:1019D000F9FE02282CD1204601F06AF8062823D20D
:1019E000DFE800F003090E13181DB5A13046FFF71C
:1019F00002FC00251CE0B7A13046FFF7FCFB17E016
:101A0000BBA13046FFF7F7FB12E0C2A13046FFF75B
:101A1000F2FB0DE0C7A13046FFF7EDFB08E0CEA1D9
:101A20003046FFF7E8FB03E0D6A13046FFF7E3FBC3
:101A30002EA800F088FEBBE710B58CB0044630211C
:101A4000684603F048FED6A1204603F011FD302180
:101A5000684603F040FED84968460A78D7A103F0EB
:101A6000D9F96946204603F091FD3021684603F01C
:101A700032FED84968460A78D7A103F0CBF9694607
:101A8000204603F083FD3021684603F024FED84948
:101A9000097809B1D7A200E0D8A2DAA1684603F01C
:101AA000B9F96946204603F071FDDBA1204603F039
:101AB0006DFD204603F000FD0CB0C0B210BD30B586
:101AC000C5B00020419042904390449000244FF4D0
:101AD000807101A803F0FFFD01A8FFF7ADFF0546E7
:101AE00028000AD041A8009000232A464AA144A019
:101AF00001F0B2F800B191E196E193E125324200A4
:101B00002532300025324600253346002532350087
:101B10002532330025323600253344009554415D8B
:101B2000736861310000000025640A25730A707231
:101B30006F64756374732F25730A257300000000AA
:101B400025640A25730A70726F64756374732F2598
:101B5000732F646576696365732F25730A25730097
:101B600076657273696F6E3D2573267265733D707D
:101B7000726F647563747325253246257326657408
:101B80003D2564266D6574686F643D257326736911
:101B9000676E3D2573000000A08B0008434F4E4E3A
:101BA0004543540041542B43495053544152543DF2
:101BB00022544350222C223138332E3233302E34EB
:101BC000302E3333222C38300D0A00005155316E3F
:101BD0004E586F784F584A4455456473537A513183
:101BE0004E56426B61465A33647A6B314E465A53B5
:101BF00061485A365344593D3D00000000CF9D7462
:101C000059346C39493468686D68000032303138B5
:101C10002D31302D3331000064310000E88B000895
:101C20006465766963655F696400000054000020A4
:101C3000548B00086372656174652064657669631E
:101C4000653A2025732C2025732C2025642C202513
:101C5000730D0A00003801404F4B000041542B43E4
:101C60004950434C4F53450D0A0000004F6E654EDE
:101C700045545F4465764C696E6B0D0A4E414D4587
:101C80003A2025732C0950524F49443A2025732C91
:101C9000094B45593A25730D0A0000005741524E31
:101CA0003A094D5154545F5061636B6574436F6ED4
:101CB0006E656374204661696C65640D0A000000FE
:101CC000546970733A09C1ACBDD3B3C9B9A60D0A42
:101CD000000000005741524E3A09C1ACBDD3CAA71B
:101CE000B0DCA3BAD0ADD2E9B4EDCEF30D0A00005A
:101CF0005741524E3A09C1ACBDD3CAA7B0DCA3BA12
:101D0000B7C7B7A8B5C4636C69656E7469640D0A1A
:101D1000000000005741524E3A09C1ACBDD3CAA7DA
:101D2000B0DCA3BAB7FECEF1C6F7CAA7B0DC0D0A85
:101D3000000000005741524E3A09C1ACBDD3CAA7BA
:101D4000B0DCA3BAD3C3BBA7C3FBBBF2C3DCC2EBFB
:101D5000B4EDCEF30D0A00005741524E3A09C1AC22
:101D6000BDD3CAA7B0DCA3BAB7C7B7A8C1B4BDD3A7
:101D700028B1C8C8E7746F6B656EB7C7B7A8290DDF
:101D80000A0000004552523A09C1ACBDD3CAA7B0FF
:101D9000DCA3BACEB4D6AAB4EDCEF30D0A0000008F
:101DA0007B226964223A22313233222C2270617202
:101DB000616D73223A7B00002D0000202274656D56
:101DC00070223A7B2276616C7565223A25647D2CFF
:101DD000000000002E0000202268756D69223A7B09
:101DE0002276616C7565223A25647D2C0000000026
:101DF0002C000020747275650000000066616C7331
:101E000065000000226C6564223A7B2276616C7565
:101E100065223A25737D00007D7D000072A17A481D
:101E2000FFF7E9F945B030BD01A807E0429B025D2C
:101E3000591C42914199CA54641C24B2AC42F5DB4E
:101E4000429881B2419801F0E3FA41A800F07BFC8E
:101E5000E8E770B588B006460D4600240494059462
:101E6000069407942B46324668A16748FFF7C3F9EA
:101E7000284603F021FB01210094CDE901410346EE
:101E800004A803902A4631460A2000F01EFE0028CE
:101E900007D1059881B2049801F0BAFA04A800F0BD
:101EA00052FC08B070BD00B595B0002011901290A2
:101EB0001390149003A80290AFF2A420AFF2C023B5
:101EC00000905AA2382103A802F0BAFF03AA5FA12A
:101ED0004D48FFF790F911A80090012302AA0021B4
:101EE000142000F0A5FF002807D1129881B21198A4
:101EF00001F08EFA11A800F026FC15B000BD2DE906
:101F0000F04188B0064600200790069005900490A6
:101F100003900024304600F055FC05463A4F032D4F
:101F200015D0042D43D0092D4FD0641E01F036FA90
:101F3000641C09D00F2D01D0032D05D1069802F0A5
:101F40001BFF079802F018FF08B0BDE8F08103A955
:101F500004AACDE900214348029007AB05AA06A9CF
:101F6000304601F05BF80446200020D1BDF8100097
:101F70000799CDE90010BDF814303BA13846069A08
:101F8000FFF739F9079802F0C2F8804645A14046AC
:101F900002F044FC45A102F041FC28B1C0680128D0
:101FA0000FD00020FFF75EF9404601F088FB304675
:101FB00001F039F90028B9D13DA13846FFF71BF9E6
:101FC000B4E70120FFF74EF9EEE7304600F09EFF40
:101FD00020B13FA13846FFF70EF9A7E743A13846E5
:101FE000FFF709F9A2E700005741524E3A0945446C
:101FF000505F4E6577427566666572204661696C12
:1020000065640D0A00000000003801405075626CE4
:1020100069736820546F7069633A2025732C204DD2
:1020200073673A2025730D0A00000000247379734A
:102030002F25732F25732F7468696E672F70726F49
:1020400070657274792F7365740000005375627344
:10205000637269626520546F7069633A2025730D5D
:102060000A00000030000020746F7069633A202578
:10207000732C20746F7069635F6C656E3A20256401
:102080002C207061796C6F61643A2025732C20706C
:1020900061796C6F61645F6C656E3A2025640D0A2E
:1020A00000000000706172616D7300006C65640077
:1020B000546970733A094D515454205075626C69DB
:1020C00073682053656E64204F4B0D0A00000000BA
:1020D000546970733A094D515454205375627363B7
:1020E00072696265204572720D0A0000546970734E
:1020F0003A094D5154542053756273637269626595
:10210000204F4B0D0A00000070B5044601EA02059D
:10211000142C03DA28468B43584070BD81EA02062E
:102120005E40282C01DA304670BD3C2C05DA19409F
:10213000694002EA0300484070BD502CFCDA30468A
:1021400070BD0146142901DACB487047282901DA0D
:10215000CA4870473C2901DAC94870475029FCDA5F
:10216000C848704710B5024601209040401EC44345
:1021700001EA0403D3400140C2F1200081400B4337
:10218000184610BD30B50446C4F1200301229A4020
:10219000521ED54301EA0200A040294021FA03F271
:1021A000104330BD2DE9F04FD8B08146154601F1FE
:1021B0000800401CCA00C31700EB93639C1156949F
:1021C00023F03F03C01A002802DD5698401C5690A9
:1021D0000846002302E009F80030401C569CB0EB92
:1021E000841FF8DB802009F80100569809EB801065
:1021F000001FC270110A8170110C4170110E017024
:10220000A1485190A14852909F48C04353909F4885
:10221000C04354909E4855900020579077E000248A
:10222000102C19D257986A46800100EB840019F8E7
:10223000001009064DF824104844437801EB03418F
:1022400042F82410837801EB032142F82410C0786F
:10225000084442F8240018E0502C16D2E01EA4F1E5
:1022600010025DF82010401F5DF822205DF820006C
:102270006E464140A4F10E005DF820005040414000
:102280000120FFF77FFF46F82400641C502CC7D3C1
:10229000DDF8448152985090539F549EDDF854A12C
:1022A000002441460520FFF76DFF834633463A463A
:1022B00020465099FFF728FF584400EB0A022046B9
:1022C000FFF73FFF10445DF8241001EB000BB2460E
:1022D0003E461E205099FFF755FF0746CDF8408136
:1022E000D846641C502CDCD35198404451905299EC
:1022F000509808445290539838445390549830441E
:1023000054905598504455905798401C5790569962
:102310005798884283DB5198E8705198000AA8705A
:102320005198000C68705198000E28705298E8710E
:102330005298000AA8715298000C68715298000EC9
:1023400028715398E8725398000AA8725398000CA9
:1023500068725398000E28725498E8735498000AD3
:10236000A8735498000C68735498000E28735598FD
:10237000E8745598000AA8745598000C687455982C
:10238000000E287458B0BDE8F08F2DE9F04FADF283
:10239000945D8C46DDF8B8759346984640254FF01D
:1023A00036094FF05C0A002100220DF25456725497
:1023B000491C4029FBDBAC4513D00ADD3A46614697
:1023C000FFF7F0FE0020395C3154401C1428FADB82
:1023D0000EE0002402E0015D3155641C6445FADB27
:1023E00006E0002102E0425C7254491CA942FADB7B
:1023F00000200DF21452315C81EA09011154401C95
:102400004028F8DB002015A9135C0B54401C402821
:10241000FADB002005E00B181BF8002083F84020B1
:10242000401C4045F7DB08EB05013A4615A8FFF7CD
:10243000B9FE00200DF2D441325C82EA0A020A544D
:10244000401C4028F8DB00206A460B5C1354401CFB
:102450004028FADB00201318395C83F84010401C38
:102460001428F8DB3A4605F114016846FFF79AFE96
:102470000DF2945D87E700009979825AA1EBD96E3D
:10248000DCBC1B8FD6C162CA0123456789ABCDEF87
:10249000F0E1D2C32DE9F04F099D0024A146002DA3
:1024A00014D00327B5FBF7F6B5FBF7FC07FB165670
:1024B00006B1012666446FF0290CB6F1804F09D3AE
:1024C0004FF0FF3010606046BDE8F08FC2F800901A
:1024D0000020F9E7B600761CB14208D338B1B5FB4D
:1024E000F7F101EB410A0146DFF8008224E01660B3
:1024F0006046E9E71E785F789B1C13F801CB4FEA32
:10250000960B18F80BB081F800B0360106EB2716D1
:1025100006F03F0618F806604E70BE0006EBAC16DB
:1025200006F03F0618F806608E700CF03F0618F8AB
:102530000660CE70091DE41C5445DBD3AC4225D2A5
:1025400013F8016B641C3D27AC4201D21B7801E0FB
:102550004FF00003C6F3850418F804400C704FEAEE
:10256000061404EB231404F03F0418F804404C70E4
:1025700001F1020106D203F00F0318F8233001F82D
:10258000013B01E001F8017B01F8017BA1EB0000B8
:10259000106081F800904FF0000095E72DE9F047BA
:1025A000089F0024A446A046DFF840A16FF02B0549
:1025B0000AF1400A43E0002601E0641C761CBC429C
:1025C00004D213F80490B9F1200FF6D0BC4238D0F1
:1025D000A7EB0409B9F1020F0BD313F80490B9F17A
:1025E0000D0F06D103EB040999F80190B9F10A0F18
:1025F00024D013F80490B9F10A0F1FD016B1284661
:10260000BDE8F087B9F13D0F06D108F10108B8F136
:10261000020F01D92846F3E7B9F17F0F0AD81AF85B
:1026200009607F2E06D0402E06D2B8F1000F03D0ED
:102630002846E5E72846E3E70CF1010C641CBC42A0
:10264000B9D3BCF1000F16D04FEADC0505EB450508
:102650006E000CF0070505EB4505072707EB450560
:1026600006EBD505A5EB080508B1A94206D2156011
:102670006FF02900C4E700201060C1E703260021A5
:102680008C4605462CE01F780D2F27D00A2F25D029
:10269000202F23D01AF80770402F0DD04FF00008DC
:1026A000A6EB08068846394668F39F110CF1010C29
:1026B000BCF1040F03D011E04FF00108F0E74FF038
:1026C000000C16B10F0C05F8017B012E02D90F0A80
:1026D00005F8017B022E01D905F8011B641E5B1C65
:1026E000002CD0D1281A1060002089E72289000828
:1026F0002DE9F04104460F460025206800260028F9
:1027000002D00220207315E001202073384602F029
:1027100004FB2060002808D06660A76002E0206803
:1027200046556D1CA068A842F9D8BDE8F081206824
:1027300046556D1CA068A842F9D86660A068B842EA
:10274000F3D22660F1E710B50446207B012802D1C0
:10275000206802F011FB002020606060A060207300
:1027600010BD012200F07F030B70C00948B143F097
:10277000800301F8013B521C042AF3DD4FF0FF30C7
:10278000704710467047F0B50446012300201060E2
:102790005D0512E0275C166807F07F0707FB0366FC
:1027A0001660265C360601D4401CF0BDDB01AB424E
:1027B00002D36FF00100F0BD401C8842EADB4FF00D
:1027C000FF30F0BD38B50446FF2120780009421ED5
:1027D0000E2A01D3084638BD0328FCD10020009002
:1027E0006A460421601CFFF7CEFF2044401C00997C
:1027F000022902D32278D20701D0FF2038BD4278C7
:10280000037842EA0322921C8A4201D9FF2038BD94
:10281000FEA1801C02F01AFE08B10F2038BD032073
:1028200038BD2DE9FF5F9246DDF838B0DDF8448011
:10283000139C99460025504602F03EFE06B2BAF1BE
:10284000000F20D006F1110087B2BBF1000F00D0BD
:102850000225109868B145F00405109802F02CFE8E
:1028600000F0FF0B404602F027FE58443844001D9C
:1028700087B20F9870B1012807D0022808D0022033
:1028800004B0BDE8F09F0120FAE745F00C0501E037
:1028900045F01405129808B145F02405009858B386
:1028A000019848B345F0C005009802F005FE834644
:1028B000019802F001FE58443844001D87B23946A1
:1028C0002046FFF715FF2068C0B1394602F0E1FE4F
:1028D00060681022411C616021680A54D4E900013B
:1028E0000144781FFFF73DFF00B2002808DA2046B8
:1028F000FFF729FF0520C3E70320C1E70420BFE756
:10290000616808440022411C616021680A546068C3
:102910000421421C62602268115460684D23421CED
:1029200062602268135460685123421C626022680E
:10293000135460685422431C636023681A5460680F
:10294000431C636023681A546068421C62602268FA
:1029500011546068411C616021680D5460684FEA41
:102960001922411C616021680A546068411C616041
:10297000216801F800906068320A411C616021689A
:102980000A546068411C616021680E54D4E900015A
:1029900008443246514602F047FD606830446060AA
:1029A000680736D5B8F1000F01D10FF268281098EA
:1029B00002F082FD86B26068320A411C61602168C3
:1029C0000A546068411C616021680E54D4E900011A
:1029D00008443246109902F027FD60683044606078
:1029E000404602F069FD86B26068320A411C6160AF
:1029F00021680A546068411C616021680E54D4E962
:102A0000000108443246414602F00EFD6068304441
:102A10006060280618D5009802F04EFD86B2606806
:102A2000320A411C616021680A546068411C61607F
:102A300021680E54D4E9000108443246009902F09E
:102A4000F3FC606830446060680618D5019802F0B5
:102A500033FD85B260682A0A411C616021680A540E
:102A60006068411C616021680D54D4E9000108448C
:102A70002A46019902F0D8FC606828446060002072
:102A8000FEE610B5044602212046FFF731FE21681C
:102A900061B16068E023421C62600B5460680022F0
:102AA000411C616021680A54002010BD012010BD46
:102AB0004178022901D001207047817819B101299C
:102AC00001D0FF207047C07870472DE9FF4F81B0DB
:102AD0008246119C0F9991469B46002500270022B3
:102AE000BAF1000F08D1012005B0BDE8F08F23280E
:102AF00016D02B2814D06D1C0298405D0028F6D10A
:102B000042F0300809B148F0010805EB0B06B61C8D
:102B10000E9870B1012805D0022807D00320E3E702
:102B20000220E1E748F00208B61C02E048F0040881
:102B3000B61CB9F1000F28D099F80000022809D07E
:102B4000711D2046FFF7D4FD2068E0B1711D02F031
:102B5000A0FD23E0002738467F1C19F800007D28DF
:102B6000F9D13F1DABEB0700311A0091C91C20467B
:102B7000FFF7BEFD206820B10099C91C02F089FD55
:102B80000CE00420B0E70420AEE7711D2046FFF7FB
:102B9000AFFD2068A8B1711D02F07BFD6068411C8B
:102BA0006160216801F80080D4E9000101443046E9
:102BB000FFF7D7FD002806DA2046FFF7C4FD052001
:102BC00092E7042090E7616808442A0A411C61608A
:102BD00021680A546068411C616021680D54D4E981
:102BE000000108442A46029902F01EFC606828444D
:102BF00060600E9991B1411C616021684FEA1A2210
:102C00000A546068411C6160216805E024637265B4
:102C1000710000000000000001F800A0B9F1000FF1
:102C20000DD099F8000002280BD0D4E90001084427
:102C30005A46494602F0B6FC60685844606000207D
:102C400052E7D4E9000108443A46494602F0AAFC9A
:102C5000606838446060F2E730B591B01546149C66
:102C600003460091FDA2302105A802F0E9F80120F9
:102C70000021CDE90204CDE900010A462B4605A951
:102C80000A20FFF722FF10B1012011B030BD002053
:102C9000FBE72DE9FF5F04460D4693464FF001091F
:102CA000204602F009FC0D3002F037F807463800E4
:102CB00033D02246F1A102F0ADF8384602F0FCFB19
:102CC000C6B206EB050808F10708A8EB050002F0FC
:102CD00024F80446200022D0022020704FF0000A81
:102CE00084F801A0A67032463946E01C02F05AFC76
:102CF000290EA019C170290C0171290A4171857131
:102D00000120CDE9000ACDE9020B43462246DFA1AE
:102D10000A20FFF7DAFE38B108E04846B0E5384649
:102D200002F02AF84846ABE54FF00009384602F0B9
:102D300023F8204602F020F84846A1E52DE9F843A3
:102D400080460C4617461D462F2108F1060002F06A
:102D500061FB0021009148B3461C6A46042108F13A
:102D60000100FFF710FD252001F0D7FF2060F8B12A
:102D7000252102F08EFC24223146206802F012FC4C
:102D8000243600982C3880B22880401C01F0C5FF02
:102D9000386078B12988491C02F07BFC2A883146CA
:102DA000386802F0FFFB0020BDE8F8830120FBE754
:102DB0000220F9E7206801F0DFFF0320F4E72DE9A6
:102DC000FF47814688461746484602F075FB84B2A5
:102DD000404602F071FB0026E01D01F09EFF054613
:102DE00025B3E11D284602F054FCA9A00168296022
:102DF0008088A88022464946284602F015FB4046B6
:102E000002F05AFB0346002001AC0121009083C46C
:102E1000424629460A20FFF758FE00B101262846FF
:102E200001F0AAFF304604B0BDE8F0870120FAE7C0
:102E30002DE9F0478246089C8946174698460026A9
:102E40000025BAF1000F09D10120EDE757F8250060
:102E500018B302F031FB06446D1CEDB24545F5D3C5
:102E600008EB48008519AD1C691D2046FFF740FCA2
:102E70002168A1B160688223421C62600B54D4E9CE
:102E8000000101442846FFF76CFC00B2002808DA74
:102E90002046FFF758FC0420C6E70220C4E70320C1
:102EA000C2E761680844411C616021684FEA1A2248
:102EB0000A546068411C6160216801F800A0002587
:102EC00020E057F8250002F0F7FA06466068320A5B
:102ED000411C616021680A546068411C616021687E
:102EE0000E54D4E90001084457F82510324602F088
:102EF0009BFA60683044411C6160216801F80090D1
:102F00006D1CEDB24545DCD300208DE70146FF2066
:102F10008A78002A0BD1CA78142A08D1087938B1E6
:102F2000012805D0022803D0802803D00220704752
:102F300000207047012070472DE9F04781460F4679
:102F400090461C4600260025B9F1000F09D101204A
:102F50006AE757F8250010B302F0AEFA06446D1C7C
:102F6000EDB24545F5D306EB4805AD1C691D20467D
:102F7000FFF7BEFB2168A1B16068A223421C62601A
:102F80000B54D4E9000101442846FFF7EAFB00B2E4
:102F9000002808DA2046FFF7D6FB042044E7022089
:102FA00042E7032040E761680844411C61602168F2
:102FB0004FEA19220A546068411C6160216801F8D7
:102FC000009000251CE057F8250002F075FA06462F
:102FD0006068320A411C616021680A546068411CC3
:102FE000616021680E54D4E90001084457F82510A7
:102FF000324602F019FA6068304460606D1CEDB230
:103000004545E0D300200FE7014601208A78002AD9
:1030100003D1C9781E2900D1002070472DE9F84F4F
:103020000546DDE90A7B0E4614469846287800F0EE
:103030000F090020009009F0080AC9F341008BF83D
:1030400000006A460421681CFFF79DFB05446D1CC7
:103050000098022821D35FEAC9701DE024737973B8
:103060002F25732F25732F7468696E672F70726F09
:1030700070657274792F706F737400007B226473B3
:103080005F6964223A222573227D00002464700067
:1030900024637273702F000002D0FF20BDE8F88F08
:1030A0006878297840EA012020800099801C8842B5
:1030B00001D9FF20F2E7AFF2AC41A81C02F0C6F93B
:1030C00008B10F20EAE79BF8000028B1012837D0AB
:1030D000022835D0FF20E1E7BAF1000F01D0FF2030
:1030E000DCE72088401C01F018FE306008B321881E
:1030F000491C02F0CEFA2288A91C306802F052FA6C
:1031000020880099081A801E80B23880401C01F087
:1031100004FEC8F8000070B13988491C02F0B9FA01
:103120002088AD1C41193A88D8F8000002F03AFA1C
:103130003EE0FF20B2E7306801F01EFEFF20ADE761
:103140002088009A811C914201D9FF20A6E7E91C42
:10315000425CA91C405C42EA00210C9801800C985A
:1031600060B32088401C01F0D8FD306040B3218856
:10317000491C02F08EFA2288A91C306802F012FA6B
:1031800020880099081A001F80B23880401C01F086
:10319000C4FDC8F80000A8B13988491C02F079FACA
:1031A00020882D1D41193A88D8F8000002F0FAF95C
:1031B0002B21304602F02EF970B908E0FF206DE7B0
:1031C000FF206BE7306801F0D7FDFF2066E7232181
:1031D000304602F01FF908B1FF205FE700205DE7ED
:1031E00070B505460C4604212046FFF781FA216898
:1031F000B9B160684023421C62600B5460680222CF
:10320000411C616021680A5460682A0A411C61609F
:1032100021680A546068411C616021680D540020D7
:1032200070BD012070BD4178022901D00120704796
:10323000817811B9C0780A2801D001207047002098
:10324000704770B505460C4604212046FFF750FA3A
:103250002168B9B160685023421C62600B546068F9
:103260000222411C616021680A5460682A0A411CDC
:10327000616021680A546068411C616021680D54D6
:10328000002070BD012070BD4178022901D00120CD
:103290007047817811B9C0780A2801D001207047A1
:1032A0000020704770B505460C4604212046FFF704
:1032B0001FFA2168B9B160686223421C62600B5436
:1032C00060680222411C616021680A5460682A0A11
:1032D000411C616021680A546068411C616021687A
:1032E0000D54002070BD012070BD4278022A01D02B
:1032F000012070478278B2EB112F05D1C078C9B296
:10330000884201D1002070470120704770B5054602
:103310000C4604212046FFF7EBF92168B9B160683B
:103320007023421C62600B5460680222411C616081
:1033300021680A5460682A0A411C616021680A54A5
:103340006068411C616021680D54002070BD01203F
:1033500070BD4178022901D001207047817811B9F0
:10336000C0780A2801D0012070470020704710B5AE
:10337000044602212046FFF7BBF9216861B160686D
:10338000C023421C62600B5460680022411C6160D3
:1033900021680A54002010BD012010BD10B54FF463
:1033A0000071664802F075F965490020088010BD7B
:1033B00063490888002805D04A88904204D100203B
:1033C000088070470120704748800120704770B521
:1033D00006460D46C824304602F06EF882B23146E9
:1033E0005848FDF7F0FE0EE0FFF7E2FF40B929462E
:1033F000524802F02BF818B1FFF7D0FF002070BD43
:103400000A20FDF710FE641EE4B2EDD2012070BD6B
:1034100030B589B004460D46FFF7C0FF2A464AA1E1
:1034200001A801F0F7FC4CA101A8FFF7D0FF00288C
:1034300004D12A4621464348FDF7C5FE09B030BDF8
:1034400010B50446FFF7B4FF60B944A13B4801F052
:10345000FDFF38B13A2101F0DDFF08B1401C10BD7D
:10346000002010BD0520FDF7DEFD641EA4B2E9D2E8
:10347000002010BD70B5FFF791FF3C4D39A12846E3
:10348000FDF7B9FE4FF4FA7402E02046FDF7CBFDDC
:1034900037A138A0FFF79BFF0028F6D137A12846B7
:1034A000FDF7A9FE02E02046FDF7BDFD30A136A0E4
:1034B000FFF78DFF0028F6D137A12846FDF79BFEC8
:1034C00002E02046FDF7AFFD29A137A0FFF77FFFFF
:1034D0000028F6D138A12846FDF78DFE02E02046EF
:1034E000FDF7A1FD37A139A0FFF771FF0028F6D144
:1034F0002846BDE870403DA1FDF77DBE10B5114CDA
:1035000040F225512046FDF7C7FC002814D00C4A94
:103510001088B0F5007F01D3002010800948001DFD
:10352000008811884B1C1380044A50542046BDE883
:1035300010402021FDF7ACBC10BD0000840000202D
:10354000320000200044004041542B434950534571
:103550004E443D25640D0A003E0000004950442CB5
:1035600000000000312E2041540D0A0000380140B7
:103570004F4B000041540D0A00000000322E204342
:10358000574D4F44450D0A0041542B43574D4F446E
:10359000453D310D0A000000332E2041542B435786
:1035A000444843500D0A000041542B4357444843BC
:1035B000503D312C310D0A00342E2043574A4150E2
:1035C0000D0A0000474F54204950000041542B433E
:1035D000574A41503D22696B756E222C223132339D
:1035E000343536373839220D0A000000352E204593
:1035F00053503832363620496E6974204F4B0D0ACD
:1036000000000000FE488068704770B504460D4613
:10361000002C01D02DB10AE00DB1012070BD0020B9
:1036200070BD012070BD207898B1641C6D1C20789D
:1036300001F0C9FB0646287801F0C5FB8642F2D0AE
:10364000207801F0C0FB0446287801F0BCFB201A6A
:1036500070BD002070BD70B50646304601F02CFFED
:10366000451CE74B28461B689847041E06D02A468F
:103670003146204601F096FF204670BD002070BD07
:10368000DF4A002802D0016831B904E0DD4810604B
:10369000DD4850607047DB491160406800B9DA4886
:1036A0005060704710B5D6492820096888470446FD
:1036B0001CB12821204602F00EF8204610BD70B53E
:1036C0000446CF4E19E02568A089C00503D4A06840
:1036D00008B1FFF7F4FFA089C00503D4206908B141
:1036E00071688847A089800503D4206A08B1716891
:1036F00088477168204688472C46002CE3D170BD6E
:103700002DE9F34F85B08A4600242546BF490020A5
:10371000CDE90201002637468346012001909AF840
:1037200000002D2805D1BA490020CDE902010AF197
:10373000010A9AF80000302801D10AF1010A9AF82A
:1037400000003138082817D89AF80000303804F003
:103750009AFC804689460022AE4B2046294604F05A
:10376000E5FC42464B4604F00FFA04460D461AF8B3
:10377000010F30380928E7D99AF800002E2827D100
:103780009AF80100302823D3392821D80AF1010AF8
:103790009AF80000303804F076FC80468946002212
:1037A0009C4B2046294604F0C1FC42464B4604F09F
:1037B000EBF904460D460022944B3046394604F09E
:1037C000DBFE06460F461AF8010F30380928DFD90C
:1037D0009AF80000652801D045281DD11AF8010F7C
:1037E0002B2802D02D2803D010E00AF1010A0DE0A9
:1037F0004FF0FF3001900AF1010A07E00BEB8B015B
:1038000000EB410B0AF1010AABF1300B9AF8000012
:10381000A0F130010929F1D901980BFB00F004F067
:1038200032FC32463B4604F0AFF902460B4600201C
:10383000784903F06BFC06460F46DDE9020122469B
:103840002B4604F073FC32463B4604F06FFC044602
:103850000D460598C0E906452046294604F0E4FBDC
:103860000599486105980321C16007B05046BDE83D
:10387000F08F401E40EA600040EAA00040EA2010BD
:1038800040EA202040EA2040401C70472DE9F041EA
:103890000446002C09D022683AB1A3685818616820
:1038A000814204DBD018BDE8F0810020FBE7FFF780
:1038B000E0FF0746524E384631688847054665B1F5
:1038C000D4E90012284601F06DFE7168206888472F
:1038D00067602560A0682844E5E77168206888472C
:1038E000002060602060DEE710B50446002C08D0A0
:1038F000206830B1A168084401F0DEFDA1680844E9
:1039000010BD002010BD2DE9F04707460E46DFF838
:10391000F080DFF80491D7E90645002213462046DF
:10392000294604F045FB13D12EB102213046FFF7A2
:10393000ADFF804604E0D8F800100220884780469A
:10394000B8F1000F03D035A00088A8F8000098E077
:10395000786904F098FB22462B4604F00DFE21F016
:10396000004100224B4604F0A5FB22D82C4A2D4BE7
:103970002046294604F09EFB1BD800222A4B2046F5
:10398000294604F0D1FC14D82EB115213046FFF79A
:103990007DFF804604E0D8F8001015208847804657
:1039A000B8F1000F6DD021A140467A6901F032FADA
:1039B00067E02EB140213046FFF768FF804604E003
:1039C000D8F80010402088478046B8F1000F58D042
:1039D0002046294603F02CFB22462B4604F0CCFD62
:1039E00021F0004100224B4604F064FB2BD825F067
:1039F000004120460E4A0F4B04F05CFB23D21BE033
:103A0000380000201B4D0008794D00080000F03FF1
:103A10000000F0BF000024400000B03C3000000077
:103A20000000C0FFFFFFDF410000E0C1256400008F
:103A300044F3C2E4E4E9634C22462B46F7A1404636
:103A400001F0E8F91DE0204625F0004106460F464A
:103A5000F44AF54B04F02EFB06D3304639460022DB
:103A6000F24B04F061FC06D222462B46F0A1404600
:103A700001F0D0F905E022462B46EEA1404601F0C8
:103A8000C9F94046BDE8F0870178A1F13002092A62
:103A900001D811460AE0A1F14102052A01D83739BF
:103AA00004E0A1F16102052A0AD857390A01401C35
:103AB0000178A1F13003092B04D8303A11440EE00B
:103AC00000207047A1F14103052B02D8373A114479
:103AD00005E0A1F16103052B0BD8573A11440A0107
:103AE000401C0178A1F13003092B04D8303A11446D
:103AF0000EE000207047A1F14103052B02D8373AB0
:103B0000114405E0A1F16103052B0AD8573A11448D
:103B100009014078A0F13002092A04D8303908445C
:103B2000704700207047A0F14102052A02D83739BA
:103B300008447047A0F16102052A02D857390844A9
:103B40007047002070472DE9F04780460D466C1CF9
:103B500000202A78B849222A05D08D6092E7641C9B
:103B60005C2A00D1641C2278222A02D00AB1401CAF
:103B7000F5D10968401C88470746380004D0681C06
:103B80003C464FF480691AE000207BE75C2903D0B3
:103B900004F8011B401C12E0461C3078722825D026
:103BA00006DC622816D0662818D06E2804D119E0E9
:103BB00074281FD0752821D004F8010B701C0178DF
:103BC000222901D00029E1D1002121700178222988
:103BD0006AD06AE0082004F8010BEFE70C2004F833
:103BE000010BEBE70A2004F8010BE7E70D2004F8CE
:103BF000010BE3E7092004F8010BDFE7701CFFF776
:103C000043FF0546361DA5F55C404845D6D3002D3B
:103C1000D4D0A5F55840484513D270785C28CDD152
:103C2000B0787528CAD1F01CFFF72EFFB61DA0F59D
:103C30005C414945C2D2C5F3090161F39F2000F5FB
:103C400080350421802D01D2012108E0B5F5006FF7
:103C500001D2022103E0B5F5803F00D203216018B4
:103C600001291AD0022911D0032908D0042919D119
:103C700005F0BF0242F0800200F8012DAD0905F009
:103C8000BF0242F0800200F8012DAD0905F0BF022D
:103C900042F0800200F8012DAD09684A525C2A43C7
:103CA00000F8012D441889E7401CC8F81070042161
:103CB000C8F80C10E6E62DE9F05F05468A460024B8
:103CC0000021A9460AE0421E1F2A15D3222813D03C
:103CD0005C2811D00020014309F1010999F8000086
:103CE0000028F0D1DFF850B180462227DBF8002011
:103CF00021B125B32E4643E00120ECE7A9EB0506F0
:103D0000BAF1000F05D0F11C5046FFF7BFFD044685
:103D100002E0F01C904704467CB1277004F10109D1
:103D20002946484601F0A4FB09F8067009EB060095
:103D300080F801802046BDE8F09F0020FBE7BAF143
:103D4000000F05D003215046FFF7A0FD044602E016
:103D50000320904704462CB139A1204601F088FB8E
:103D60002046E8E70020E6E7494636A001F052FB8E
:103D700008B1641C03E0B9F1200F00D2641D761C69
:103D800096F80090B9F1000F01D0641CECD1BAF1A3
:103D9000000F05D0E11C5046FFF778FD064604E011
:103DA000DBF80010E01C884706462EB1304600F8CC
:103DB000017B4FF05C0925E00020BCE71F2907D9F3
:103DC000222905D05C2903D000F8011B6D1C19E0E5
:103DD00000F8019B044615F8012B0C2A41D006DCA3
:103DE000082A3AD0092A48D00A2A06D13DE00D2AED
:103DF0003FD0222A2ED05C2A0CD014A1204601F0FC
:103E000009F8601D29780029D8D1077080F8018051
:103E1000304690E784F80090601CF3E7252E30666A
:103E2000000000008DEDB5A0F7C6B03E65CDCD41D8
:103E3000256500002566000038000020E2890008A2
:103E400022220000225C080C0A0D0900752530347E
:103E5000780000002770601CD4E762202070601C8E
:103E6000D0E766202070601CCCE76E202070601CBC
:103E7000C8E772202070601CC4E774202070601CAA
:103E8000C0E7006917E700E0401C002804D0017873
:103E9000002901D02029F7D970472DE9F0410746C4
:103EA0000878FE4E7B2802D0B1600020FBE406209B
:103EB000F860481CFFF7E7FF054628787D2818D0F2
:103EC000FFF7F0FB0446B860A8B12846FFF7DBFF18
:103ED00001462046FFF737FEFFF7D5FF68B121699D
:103EE00021620027276101783A2908D0B0600020BC
:103EF000D9E4681CD7E40020D5E40020D3E4401CBA
:103F0000FFF7C1FF0146204600F086F8FFF7BBFF30
:103F10000546280028D1C6E4FFF7C4FBA8B12060FD
:103F200044600446681CFFF7AEFF01462046FFF7D9
:103F30000AFEFFF7A8FF50B12169216227610178CD
:103F40003A2906D0B0600020ADE40020ABE40020A8
:103F5000A9E4401CFFF797FF0146204600F05CF8FB
:103F6000FFF791FF054645B128782C28D4D0287852
:103F70007D2804D0B560002095E4002093E4681CFF
:103F800091E42DE9F04107460878C44E5B2802D041
:103F9000B160002087E40520F860481CFFF773FF3C
:103FA000044620785D2811D0FFF77CFB0546B860F9
:103FB00070B12046FFF767FF0146284600F02CF855
:103FC000FFF761FF0446200004D016E0601C6AE49D
:103FD000002068E4002066E4FFF764FBB0B12860CD
:103FE00045600546601CFFF74EFF0146284600F07D
:103FF00013F8FFF748FF044654B120782C28EBD083
:1040000020785D2806D0B46000204CE400204AE40B
:10401000002048E4601C46E470B505460C46002CC0
:1040200020D004229EA1204601F065FAE0B10522CD
:104030009DA1204601F05FFAD0B104229CA1204648
:1040400001F059FAC0B1207822281AD02D2803D0C7
:10405000A0F13001092919D821462846BDE8704051
:10406000FFF74EBB002070BD0220E860201D70BD30
:104070000020E860601D70BD0120E8606861201DBF
:1040800070BD21462846BDE870405CE55B2805D040
:104090007B2808D081488460002070BD21462846D6
:1040A000BDE870406DE721462846BDE87040F4E663
:1040B0002DE9F04104460D469046FFF7F3FA064617
:1040C000764F0020B860BEB12046FFF7DCFE014607
:1040D0003046FFF7A1FF044684B1B8F1000F12D0BB
:1040E0002046FFF7D0FE0446207860B13046FFF747
:1040F000E6FABC600020D9E60020D7E63046FFF79C
:10410000DEFA0020D2E605B12C603046CEE6002271
:104110001146CDE72DE9FF5F8346894615461F46C8
:1041200000200390072001900024DBF808000026FF
:104130000021009101E0761C00680028FBD1DFF827
:104140005C81D8F800102EB1002F7DD0BE687DB301
:1041500002242FE04FB115B109F1040100E0032161
:104160003846FFF793FB024606E015B109F104005B
:1041700000E003208847024662B110467B2100F828
:10418000011B7DB10A2100F8011B00210923A9F1BF
:10419000010905E0002004B0CDE500F8013B491C11
:1041A0004945FADB7D210170002141701046F2E79C
:1041B000FFE70124611C3846FFF768FB90B17B21C3
:1041C00000F8011B15B10A2100F8011B4FF000088F
:1041D00080F80080B8682044B860DBF8084009F136
:1041E00001096DE00020D6E78DB149463846FFF75A
:1041F0004DFB10B10021092204E00020CBE700F8BC
:10420000012B491C4945FADBB8684844B860394677
:10421000206AFFF750FD3846FFF766FBB86015B11E
:104220004FF0020A01E04FF0010A51463846FFF70D
:104230002DFBB8B13A2100F8011B0DB10921017025
:10424000B8685044B86000E05CE03B462A46494606
:10425000204600F039FA3846FFF746FBB8601DB13A
:10426000012002E0002096E70020216809B1012129
:1042700000E0002100EB010A0AF101013846FFF7D6
:1042800005FB18B3216811B12C2100F8011B15B1F1
:104290000A2100F8011B80F800800DE038000020A2
:1042A0006E756C6C0000000066616C736500000048
:1042B0007472756500000000B8685044B8602468E6
:1042C000002C91D125B109F1010102E0002062E743
:1042D00002213846FFF7DAFA28B15DB1002609213C
:1042E000A9F1010904E0002055E700F8011B761C44
:1042F0004E45FADB7D21017080F80180386830443A
:104300000390E1E04FEA860A5046884707463800A6
:1043100018D0FC4950460968884780465FEA080083
:1043200012D05146384601F0D6F95146404601F0C8
:10433000D2F9DBF808B009F1010A9DB301985044A5
:10434000019034E0002026E7EE4938464968884766
:10435000002020E70021DBF82000FFF7ACFC0290F2
:1043600048F8240000232A465146584600F0ACF98C
:104370002146641C47F821000299A1B198B101F0CF
:104380009BF88146029801F097F809EB000115B1FE
:104390000AF1020000E00020014401980844801C5A
:1043A000019002E003E001200090DBF800B0BBF1D7
:1043B000000FCFD1009820B9D249019809688847E9
:1043C0000390039808B9012000900098B8B1002428
:1043D000CC4D0AE058F8240008B16968884757F8BE
:1043E000240008B169688847641CB442F2DB69683C
:1043F000404688476968384688470020CBE60399DD
:104400007B200870039C641C15B10A2004F8010B82
:104410000020207081463FE03DB10020092102E0EC
:1044200004F8011B401C5045FADB58F8290001F044
:1044300043F8834658F829105A46204601F0B2F84E
:104440005C443A2004F8010B15B1092004F8010B73
:1044500057F82910204601F00BF857F8290001F011
:104460002BF80444701E814502D02C2004F8010B67
:1044700015B10A2004F8010B00202070DFF884B287
:1044800058F82900DBF804108847DBF8041057F8C7
:104490002900884709F10109B145BDDB994E404625
:1044A000716888477168384688474DB100200921F6
:1044B000AAF1010A02E004F8011B401C5045FADB96
:1044C0007D20207000206070039864E62DE9FF4F86
:1044D00083B0834690461F464FF000094FF0050A0F
:1044E000DBF8080000260025002401E0761C0068A7
:1044F0000028FBD1834A11687EB1002F60D0BE68CE
:1045000001213846FFF7C2F9D0B15B210170B868CC
:10451000401CB860DBF808503EE02FB1032138465C
:10452000FFF7B4F9044602E00320884704461CB1B3
:1045300075A1204600F09CFF204607B0BDE8F08F33
:104540000020FAE704993B464246491C284600F001
:10455000BBF83846FFF7C8F9B8602868D8B1B8F199
:10456000000F02D04FF0020901E04FF0010909F1FC
:1045700001013846FFF78AF9F0B12C2100F8011B40
:10458000B8F1000F02D0202100F8011B00210170BA
:10459000B8684844B8602D680DB1002CD2D0022113
:1045A0003846FFF773F948B15D2101700021417071
:1045B000386800EB060985E00020BEE70020BCE774
:1045C000B000029088470746380005D0029901F0F4
:1045D00082F8DBF808B01EE00020AEE70499002363
:1045E0004246491C584600F06FF829466D1C47F8B2
:1045F000210068B100F060FF0146B8F1000F01D062
:10460000012000E00020084482440AF1020A00E090
:104610000124DBF800B0BBF1000F01D0002CDDD08D
:1046200024B938495046096888478146B9F1000FD6
:1046300000D101247CB10024324D05E057F824005C
:1046400008B169688847641CB442F7DB696838467A
:104650008847002071E75B2089F800004C464FF046
:10466000000A04F801AF0025DFF898B020E057F801
:10467000250000F021FF019057F825102046019AEF
:1046800000F090FF01980444701E85420AD02C204F
:1046900004F8010BB8F1000F02D0202004F8010B40
:1046A00084F800A0DBF8041057F8250088476D1C3B
:1046B000B542DCDBDBF80410384688475D2020700B
:1046C00084F801A0484638E770B50024002809D0D6
:1046D000ABB3057B072D73D2DFE805F01825063252
:1046E000373C4000002070BD05211846FFF7CEF88A
:1046F0000446002C64D0AFF25841204600F0B8FECA
:104700005EE00000380000205B5D000006211846D6
:10471000FFF7BCF80446002C52D0AFF2744120469B
:1047200000F0A6FE4CE005211846FFF7AFF804465E
:1047300034B3AFF28441204600F09AFE40E011E02D
:104740001946FFF7E0F804463AE01946FFF799FBEF
:10475000044635E0FFF7BAFE044631E0FFF7DAFC25
:1047600004462DE0037B072B2AD2DFE803F00A1072
:1047700004161B202500AFF2D840FEF76CFF04465C
:104780001EE0AFF2DC40FEF766FF044618E0AFF231
:10479000E040FEF760FF044612E00021FFF7B3F8A7
:1047A00004460DE00021FFF76CFB044608E00023FF
:1047B000FFF78CFE044603E00023FFF7ABFC044642
:1047C000204670BD0023012219467DE700231A46CA
:1047D000194679E7FEB505460C461646F74B2046C6
:1047E0001B68984700900194002002906B46324667
:1047F00000212846FFF768FFFEBD8168002001E028
:10480000401C09680029FBD17047806801E0491EFF
:104810000068002801D00029F9DC704770B50D460A
:10482000846800E024682CB12946206AFEF7EDFE7A
:104830000028F7D1204670BD01604860704770B510
:104840000546FEF72FFF044674B12822294620466C
:1048500000F0EDFE00202062E16841F48071E1602B
:1048600060602060204670BD002070BD02469068E8
:10487000002901D010B991607047104610B102684C
:10488000002AFAD1D8E770B505460E461446002C2A
:104890000DD0206A10B1C949496888473046FEF7F3
:1048A000DAFE206221462846BDE87040DEE770BD92
:1048B00070B506460D461446002C11D0A08980051F
:1048C00004D4206A10B1BD49496888472562E06870
:1048D00040F40070E06021463046BDE87040C5E716
:1048E00070BD10B504460846FFF7A9FF01462046F3
:1048F000BDE81040BAE770B504460D461046FFF714
:104900009EFF024629462046BDE87040BBE70246AE
:10491000906801E00068491E08B10029FADC80B106
:10492000416809B103680B60016809B143684B60D5
:104930009168814201D1016891600021016041606C
:1049400070470020704710B5FFF7E1FFBDE8104049
:10495000FEF7B5BE2DE9F04106460F460025B468C6
:1049600001E06D1C24682CB13946206AFEF74DFE2B
:104970000028F6D124B129463046BDE8F041C6E70B
:104980000020BDE8F08110B5FFF7E4FFBDE810405E
:10499000FEF795BE30B40C461146836801E01B68F3
:1049A000641E0BB1002CFADC4BB10B605A684A60F4
:1049B000596082689A4204D1816030BC704730BC33
:1049C00054E748680160F8E730B40346986801E0AE
:1049D0000068491E08B10029FADC0028EDD0016802
:1049E00011604468546001B14A609968814201D104
:1049F0009A6001E051680A6000214160016030BCAA
:104A0000FEF75DBED9E72DE9F04106468846174618
:104A10000025B46801E06D1C24682CB14146206A71
:104A2000FEF7F3FD0028F6D1002CAAD04046FEF791
:104A300012FE38623A4629463046BDE8F041C3E7E7
:104A40009FE710B5FEF72EFE002801D00221C160BD
:104A500010BD10B5FEF726FE002801D00121C1606F
:104A600010BD10B5FEF71EFE002801D00021C16068
:104A700010BD10B50446FEF715FE002804D00CB199
:104A8000012100E00021C16010BD70B504460D4653
:104A9000FEF708FE064646B10320F060C6E906456B
:104AA0002046294603F0C0FA7061304670BD70B5EB
:104AB0000546FEF7F7FD04462CB10420E0602846C9
:104AC000FEF7C9FD2061204670BD10B5FEF7EAFD76
:104AD000002801D00521C16010BD10B5FEF7E2FD30
:104AE000002801D00621C16010BD2DE9F0478046A5
:104AF00089460027FFF7E9FF064600240DE058F835
:104B0000240003F0C0FAFFF7C0FF05465CB1294658
:104B10003846FFF791FE2F46641C0EB14C45EEDB84
:104B20003046BDE8F087B560F5E72DE9F0478046EF
:104B300089460027FFF7C9FF064600240DE058F814
:104B4000240003F003FEFFF7A0FF054654B12946F9
:104B50003846FFF771FE2F46641C0EB14C45EEDB64
:104B60003046DEE7B560F6E72DE9F0478046894636
:104B70000027FFF7AAFF064600240CE008EBC4015B
:104B800003C9FFF782FF054654B129463846FFF7AF
:104B900053FE2F46641C0EB14C45EFDB3046C0E798
:104BA000B560F6E72DE9F047074688464FF0000963
:104BB000FFF78BFF064600240EE0000038000020BF
:104BC00057F82400FFF773FF054654B129464846BD
:104BD000FFF732FEA946641C0EB14445F0DB3046B7
:104BE0009FE7B560F6E72DE9F04106460F46002441
:104BF000002E1DD0FEF756FD054628001AD0F0689D
:104C000020F48070E86070696861D6E90601C5E942
:104C10000601306918B1FEF71EFD286160B1306AE7
:104C200018B1FEF718FD286258B17FB1B66821E0CF
:104C30000020A6E60020A4E62846FEF740FD00205E
:104C40009FE62846FEF73BFD00209AE6284698E6B8
:104C500001213046FFF7C7FF20B144B12060446016
:104C6000044606E02846FEF72AFD002089E6A860F3
:104C700004463668002EEBD1284682E6014626E03F
:104C8000202A08D0092A08D00D2A08D00A2A08D0DC
:104C90002F2A08D00AE0401C19E0401C17E0401CF5
:104CA00015E0401C13E043782F2B03D02F2A06D0A9
:104CB00008E0401C027852B10A2A08D0F9E743788C
:104CC0002A2B0BD0222A12D001F8012B401C02788B
:104CD000002AD5D1002008707047401C027822B10C
:104CE0002A2AFAD142782F2AF7D1801CEFE701F85F
:104CF000012B401C08E05C2A02D101F8012B401C6A
:104D000010F8012B01F8012B02780AB1222AF2D106
:104D100010F8012B01F8012BD9E770B5064600F019
:104D20000DFD056806F10B0020F00704B4429CBF9E
:104D3000002070BD2B466A68BAB11068A04210D33B
:104D400004F1080188423CBF5068586007D351689D
:104D5000101941601168091B016058601460101D32
:104D600070BD13465268002AE7D12146284600F05C
:104D7000EDFC0028DED170BD70B50446051F00F0C3
:104D8000DDFC0068002C14BF446870BD002C18BF07
:104D9000AC423CBF20466468F8D301680A18AA42B6
:104DA00018BF456003D12A68054611440160286890
:104DB0004119A1421CBF6C6070BD616869602168C7
:104DC0000844286070BD10B5044600F0AFFC0068D0
:104DD000005DC00602D504F1200010BD204610BDC4
:104DE0007CB51D4616460C00009001D02044401EA4
:104DF000074B7B442A4669460190304600F08FFFFE
:104E000005461CB10020694600F09CFF28467CBD89
:104E1000590F00000FB41CB5084B06AA7B44694625
:104E20000090059800F07BFF04460020694600F0E2
:104E300089FF20461CBC5DF814FB0000250F000014
:104E40000FB47CB50C0009AA009001D02044401E8C
:104E5000084B7B4469460190089800F060FF0546C6
:104E60001CB10020694600F06DFF28467CBC5DF84F
:104E700014FB0000F90E000070B504468569006857
:104E8000C10601D5302600E02026C00707D070BD3E
:104E9000D4E9012130469047206A401C20626D1EF3
:104EA000F6D570BD70B5044685690078C00707D196
:104EB00070BDD4E9012120209047206A401C206267
:104EC0006D1EF6D570BD70B50C460546012A05D09D
:104ED0002878800600D5EA69002302E0012305E076
:104EE0005B1C934202D2E05C0028F9D1A869E61865
:104EF000C01AA861286A184428622846FFF7BCFF38
:104F000004E0D5E9012114F8010B9047B442F8D32D
:104F10002846FFF7C7FF70BD2DE9F0410646002483
:104F200010687529314616A510D000F064FC0028E1
:104F300002DA404213A507E031688A0701D512A5BD
:104F400002E0490704D511A5012401E000F05CFC52
:104F500000210A2206F1240709E0B0FBF2FCB0FBB5
:104F6000F2F302FB1C00303078541846491C00282C
:104F7000F3D123462A463046BDE8F04100F04DBC4F
:104F8000000000002D0000002B00000020000000A9
:104F9000F0B40D460188090502D5214C7C4402E09D
:104FA0001F4C7C440E34002100F1240608E002F07E
:104FB0000F071209E75D42EA03721B097754491C87
:104FC00052EA0307F3D102780023120704D5702DAB
:104FD00006D009B1022311342246F0BC00F01DBCFA
:104FE00001231034F8E770B504460D4621461068D9
:104FF00000F00AFC024629462046BDE87040002326
:10500000C6E7D21D22F00703D3E90023C0E70368F7
:10501000126843F0200303600823C3610023B7E74D
:10502000493A00002DE9F05F894604464FF0000A36
:10503000DFF874B1FB44C0F820A02046E16888473F
:10504000002874D0252806D0D4E901219047206A91
:10505000401C2062F1E700265F462046E168884751
:105060002028054607DB312D05D2781910F8200CD1
:1050700008B10643F1E7B00701D526F00406C4F8ED
:105080001CA00027C4F818A02A2D09D0284601F03A
:10509000C7FF38B304EB8708303DC8F8185019E053
:1050A00059F8041B204604EB87029161E1688847A8
:1050B000012F054618D1E069002820DA26F02006E5
:1050C0001DE0D8F8180000EB800005EB40003038F8
:1050D000C8F818002046E1688847054601F0A0FF9F
:1050E0000028EED1012F0AD02E2D08D12046E168EC
:1050F00088477F1C0546022F46F02006C4DBA069C6
:10510000002803DA404246F00106A061F00701D012
:1051100026F010066C2D0BD0682D09D04C2D39D0FF
:105120006A2D35D0742D35D07A2D33D016E038E085
:10513000E1682F4620468847B842054609D16C2FC2
:1051400026D04FF48060E168064320468847054634
:1051500004E06C2F1AD04FF4807006430DB3A5F114
:105160004100192802D8203546F400664A462946EF
:10517000204626604E46FAF7F3FF80B101280BD097
:10518000F61D26F0070000F1080956E74020E4E785
:105190008020D8E70020D6E706F104094DE728462D
:1051A00052E7206ABDE8F09FD93900000FB400B57E
:1051B0008DB010A9099000910B904FF0FF300A902C
:1051C00000200C90064878440690064878446A46C9
:1051D00007900F9909A800F0C1FE0DB05DF814FB0F
:1051E000B30D0000CB0D00002DE9FF5F1D464FF011
:1051F000FF3B91464FF000085F46D5E90146A9699B
:1052000001987F1C8847296A824688470028F6D182
:10521000BAF1FF3F0CD0002E24F4C06419DD600603
:1052200014D5BAF12B0F09D0BAF12D0F0ED103E02E
:10523000584604B0BDE8F09F44F48064A969019821
:105240007F1C8847761E8246002E02DDBAF1300FA1
:1052500003D0B9F1000F26D032E0A969761E01987B
:105260007F1C44F400748847002E824605DDBAF1A5
:10527000780F06D0BAF1580F03D0B9F1000F10D053
:105280001EE0B9F1000F02D0B9F1100F18D1A969D1
:10529000761E01987F1C24F40074884782461020F3
:1052A00002E0082000E00A20814609E0A96908FB25
:1052B0000908761E01987F1C44F4007488478246D2
:1052C000002E05DD4946504600F034FE0028EDDA98
:1052D000E96901988847A00502D46FF00100A8E7AA
:1052E000E00725D1600613D5600502D5C8F100009E
:1052F00000E0404629680A1D2A600968220501D598
:10530000087015E0220701D5088011E008600FE061
:105310002868011D29600068210502D580F80080F9
:1053200006E0210702D5A0F8008001E0C0F8008067
:1053300038467EE72DE9FF5F4FF000089946144696
:1053400046469169D2E901A7DDF838B0019888474F
:10535000054659EA0B0005D009E0A1690198761CC1
:1053600088470546216A284688470028F5D1681CE9
:1053700003D05FEACA7005D015E04FF0FF3004B0EB
:10538000BDE8F09F2068011D2160D0F800800AE090
:105390005FEACA7001D108F8015BA169761C019827
:1053A0007F1E88470546002F1ADD681C18D0B9F10A
:1053B000000F0DD0E81705EBD060421120F01F0060
:1053C00059F822102A1A012090400142E0D107E04A
:1053D000BBF1000FDCD12846216A88470028D7D0CE
:1053E000E16901988847BBF1000F07D1002E05DD68
:1053F0005FEACA7002D1002188F80010A068B842A4
:1054000003DDBBF1000F03D017B16FF00100B6E769
:105410003046B4E7401ECAB210F8011F8A4202D0DB
:105420000029F9D10020704710B5431E13F8014F31
:10543000002CFBD105E011F8014B002C03F8014BC7
:1054400003D0521EF7D20021197010BD30B50546A9
:105450000B462A4613F8014B12F8010B08B1A04283
:10546000F8D01CB1002802D06D1CF1E7284630BDF1
:1054700040EA0103024630B59B0710D14FF00134DA
:1054800000E008C208C91D1B9D4315EAC41FF8D0DF
:1054900013F0FF0102F8011B0DD01B0AF8E711F809
:1054A000013B002B02F8013B05D011F8013B002B1A
:1054B00002F8013BF3D130BD10B5431C02E010F8F7
:1054C000011B71B18107FAD14FF0013202C88C1A69
:1054D0008C4314EAC211F9D0C01A0A0603D0C01EC8
:1054E00010BDC01A10BD0A0401D0801E10BD0902F3
:1054F000FCD0401E10BD40EA010370B59B072ED1C1
:105500004FF00136042A2AD308C810C99D1B9D43B9
:10551000121F15EAC61517D0D8B2E1B2401A50EAE8
:10552000056110D198B2A1B2401A50EA05410AD1E2
:1055300023F07F4024F07F41401A50EA052102D138
:10554000180EA0EB146070BDA342DBD018BA21BACC
:10555000884201D9012070BD4FF0FF3070BD0AB9FB
:10556000002070BD10F8013B11F8014B63B1A3425C
:105570000AD1521E08D010F8013B11F8014B1BB1A3
:10558000A34201D1521EEDD1181B70BD421E12F86C
:10559000013F002BFBD111F8013B002B02F8013B2E
:1055A000F9D17047032A40F2308010F0030C00F06C
:1055B000158011F8013BBCF1020F624498BF11F84D
:1055C00001CB00F8013B38BF11F8013BA2F1040206
:1055D00098BF00F801CB38BF00F8013B11F003037E
:1055E00000F02580083AC0F0088051F8043B083AE2
:1055F00051F804CBA0E80810F5E7121D5CBF51F884
:10560000043B40F8043BAFF30080D20724BF11F8FD
:10561000013B11F801CB48BF11F8012B24BF00F862
:10562000013B00F801CB48BF00F8012B704710B5D3
:10563000203AC0F00B80B1E81850203AA0E818508A
:10564000B1E81850A0E81850BFF4F5AF5FEA027C4B
:1056500024BFB1E81850A0E8185044BF18C918C0BA
:10566000BDE810405FEA827C24BF51F8043B40F85B
:10567000043B08BF7047D20728BF31F8023B48BF40
:1056800011F8012B28BF20F8023B48BF00F8012B7E
:1056900070474FF000020429C0F0128010F0030C94
:1056A00000F01B80CCF1040CBCF1020F18BF00F815
:1056B000012BA8BF20F8022BA1EB0C0100F00DB8C4
:1056C0005FEAC17C24BF00F8012B00F8012B48BF22
:1056D00000F8012B70474FF0000200B513469446C6
:1056E0009646203922BFA0E80C50A0E80C50B1F13A
:1056F0002001BFF4F7AF090728BFA0E80C5048BF4E
:105700000CC05DF804EB890028BF40F8042B08BFEB
:10571000704748BF20F8022B11F0804F18BF00F8E7
:10572000012B7047704770477047000010B500F0BC
:1057300049FC001D10BD00BFF92300000048704760
:105740008C020020704770477047704738B5044698
:105750000A4600206946AFF30080002808BF38BD24
:1057600002460099204600F035FC012038BD01209A
:1057700000F03ABFF8B5AFF30080054600200C46B4
:10578000102000BF0646A819A0420DD9324669462E
:105790000020AFF30080070008BF00F025FF00984D
:1057A000A04218BF0546C419FFF7C8FF05600746A9
:1057B000F01D20F007004619284600F00AF8B44210
:1057C00008BFF8BDA21B31463868BDE8F84000F0BC
:1057D00001BC00210160C0E9011070471020704732
:1057E00010B500F0F3FB006810BD10B5044600F0E2
:1057F000EDFB046010BD09684A0501D540B2704751
:10580000C905FCD500B2704709684A0501D5C0B288
:105810007047C905FCD580B270472DE9F0470D46A9
:1058200099469246044600F124080168880604D58A
:10583000E06921F01001216000E00120A84201DDB3
:10584000471B00E00027A1697A1902EB0900081A3A
:10585000A0612078C00602D42046FFF70DFB002689
:1058600008E0D4E901211AF806009047206A401C9C
:10587000761C20624E45F4DB2078C0060AD520460F
:10588000FFF7FAFA06E0D4E9012130209047206AB8
:10589000401C2062381EA7F10107F4DC07E0D4E9C0
:1058A000012118F805009047206A401C2062281E3C
:1058B000A5F10105F3DC2046FFF7F4FA2078000695
:1058C00002D50220BDE8F0870120FBE711680268DD
:1058D000006A530501D508700AE0D30501D5088098
:1058E00006E0130603D5C217C1E9000200E0086014
:1058F0000120704770472DE9FF4F0C461E464FF0C0
:10590000FF378BB0D2E90001DDF860800A908A464B
:10591000C1F30A5505B93D46002108464FF0000085
:10592000BAF1000F00F4400005DA00EB80004FF4FC
:10593000400101EA50004FEA9059B9F1010F00DD32
:10594000B9460A9850EA4A000ED044F61050A5F223
:10595000FF3545432F14B8F1000F1ED07542291EA4
:105960001EDDC9F100021CE0B8F1010F4FF000008C
:1059700001D0302103E0F24305E02154401CB04245
:10598000FBDB30460022002121540B99C1F808802E
:10599000C1E900200FB0BDE8F08FBD1B6D1CDEE734
:1059A0004A4600DA694206A800F08CFD06AB93E88F
:1059B000070003AB83E8070050460A9900F0DEFEBB
:1059C0008DE80700A0F500501F3800900398002DC7
:1059D0000ADD42F21F014A460844002303A903904E
:1059E000684601F047F909E0A0F500504A461F3823
:1059F000002303A90390684601F051F98DE80700E0
:105A00000004000C03D04FF0FF30410800E01046C6
:105A1000B8F1000F03D00022009215461EE0751E5B
:105A200005D400F0F1FA303262556D1EF9D5B34657
:105A30000122084302D000227F1C04E02078302895
:105A400001D100227F1E002A099784D01DE0112D6C
:105A500007DA00F0D9FA303262556D1C50EA0102C3
:105A6000F5D1084302D00098C8B10EE00021681EAD
:105A700005E0235C625C63542254401E491C814251
:105A8000F7DBAB46A81B401E0990002004F80B0072
:105A90000B98099AC0F80880C0E9002B7AE7112614
:105AA0004FF0000857E72DE9F04F88460446D21D15
:105AB00022F0070191B0D1E90001CDE90A0101F01E
:105AC00025FA02460B98C00F01D02D2007E0206870
:105AD000810701D52B2002E0202101EAC000032A22
