:020000040800F2
:1000000000500020610800080502000811020008E5
:10001000190200082102000829020008000000005F
:100020000000000000000000000000003102000895
:100030003D020008000000004902000855020008C7
:10004000A9080008A9080008A9080008A9080008CC
:10005000A9080008A9080008A9080008A9080008BC
:10006000A9080008A9080008A9080008A9080008AC
:10007000A9080008A9080008A9080008A90800089C
:10008000A9080008A9080008A9080008A90800088C
:10009000A9080008A9080008A9080008A90800087C
:1000A000A9080008A9080008A9080008A90800086C
:1000B000A9080008A9080008A9080008A90800085C
:1000C000A9080008A9080008A9080008A90800084C
:1000D000A9080008B5070008A9080008A908000831
:1000E000A9080008A9080008A908000800000000E5
:1000F0000000000000000000000000000000000000
:0C01000000000000000000005FF808F1A3
:10010C0010B5054C237833B9044B13B10448AFF345
:10011C0000800123237010BD0800002000000000A7
:10012C00F8080008084B10B51BB108490848AFF394
:10013C0000800848036803B910BD074B002BFBD0A7
:10014C00BDE81040184700BF000000000C00002064
:10015C00F8080008080000200000000080B582B0FC
:10016C0000AF0121102000F03DFA1023FB714FF479
:10017C000053BB800323BB713B1D1946054800F09F
:10018C003FF94FF40051034800F010FA00BF083754
:10019C00BD4680BD0010014080B500AF4FF400514A
:1001AC00094800F0E9F90346002B05D14FF4005142
:1001BC00054800F0FBF904E04FF40051024800F050
:1001CC0003FA00BF80BD00BF0010014080B500AF36
:1001DC00FFF7C4FF00F08EFA05E04FF4FA7000F060
:1001EC00AFFAFFF7D9FF034B1B68002BF5D10023A7
:1001FC00184680BD0000002080B400AF00BFBD4693
:10020C0080BC704780B400AFFEE700BF80B400AF85
:10021C00FEE700BF80B400AFFEE700BF80B400AFC4
:10022C00FEE700BF80B400AF00BFBD4680BC704786
:10023C0080B400AF00BFBD4680BC704780B400AF37
:10024C0000BFBD4680BC704780B400AF00BFBD4648
:10025C0080BC704780B500AF154A154B1B6843F046
:10026C00010313601249124B5A68124B13404B6036
:10027C000F4A0F4B1B6823F0847323F480331360F5
:10028C000B4A0B4B1B6823F480231360084A084B62
:10029C005B6823F4FE035360054B4FF41F029A6016
:1002AC0000F00CF8044B4FF000629A6000BF80BD68
:1002BC00001002400000FFF800ED00E080B500AF38
:1002CC0000F002F800BF80BD80B483B000AF002303
:1002DC007B6000233B603A4A394B1B6843F4803304
:1002EC001360374B1B6803F400333B607B680133AE
:1002FC007B603B68002B03D17B68B3F5A06FF0D11A
:10030C002F4B1B6803F40033002B02D001233B60FE
:10031C0001E000233B603B68012B4BD1294A294B60
:10032C001B6843F010031360264A264B1B6823F00E
:10033C0003031360234A234B1B6843F0020313602F
:10034C001F4A1F4B5B6853601D4A1D4B5B68536013
:10035C001B4A1B4B5B6843F480635360184A184B71
:10036C005B6823F47C135360154A154B5B6843F4AC
:10037C00E8135360124A124B1B6843F080731360EE
:10038C0000BF0F4B1B6803F00073002BF9D00C4A15
:10039C000B4B5B6823F003035360094A084B5B6803
:1003AC0043F00203536000BF054B5B6803F00C0382
:1003BC00082BF9D100BF0C37BD4680BC704700BF7D
:1003CC00001002400020024080B483B000AF78607F
:1003DC007B68042B06D1094A084B1B6843F00403C5
:1003EC00136005E0054A054B1B6823F004031360FA
:1003FC0000BF0C37BD4680BC704700BF10E000E06A
:10040C0080B489B000AF786039600023FB610023B1
:10041C003B610023BB610023FB6000237B61002355
:10042C00BB603B68DB7803F00F03FB613B68DB7858
:10043C0003F01003002B05D03B689B781A46FB6930
:10044C001343FB613B681B88DBB2002B44D07B68F9
:10045C001B687B610023BB6138E00122BB6902FA97
:10046C0003F3FB603B681B881A46FB6813403B6137
:10047C003A69FB689A4226D1BB699B00FB600F224C
:10048C00FB6802FA03F3BB60BB68DB437A69134079
:10049C007B61FA69FB6802FA03F37A6913437B61A7
:1004AC003B68DB78282B05D10122BB699A407B681D
:1004BC005A6108E03B68DB78482B04D10122BB6908
:1004CC009A407B681A61BB690133BB61BB69072B1E
:1004DC00C3D97B687A691A603B681B88FF2B46D9A5
:1004EC007B685B687B610023BB613AE0BB690833C6
:1004FC00012202FA03F3FB603B681B881A46FB6877
:10050C0013403B613A69FB689A4227D1BB699B0057
:10051C00FB600F22FB6802FA03F3BB60BB68DB4392
:10052C007A6913407B61FA69FB6802FA03F37A6912
:10053C0013437B613B68DB78282B05D1BB690833FF
:10054C0001229A407B685A613B68DB78482B05D1C5
:10055C00BB69083301229A407B681A61BB6901337D
:10056C00BB61BB69072BC1D97B687A695A6000BF34
:10057C002437BD4680BC704780B485B000AF78602E
:10058C000B467B800023FB737B68DA687B88134007
:10059C00002B02D00123FB7301E00023FB73FB7BD8
:1005AC0018461437BD4680BC704700BF80B483B07A
:1005BC0000AF78600B467B807A887B681A6100BF3D
:1005CC000C37BD4680BC704780B483B000AF7860F8
:1005DC000B467B807A887B685A6100BF0C37BD461E
:1005EC0080BC704780B483B000AF78600B46FB7062
:1005FC00FB78002B06D00949084B9A697B6813439A
:10060C008B6106E00549054B9A697B68DB43134017
:10061C008B6100BF0C37BD4680BC70470010024098
:10062C0080B483B000AF78607B689B889BB2C3F3C7
:10063C0008039BB218460C37BD4680BC704700BF00
:10064C0080B487B000AF78600B467B800023FB60E2
:10065C0000237B610023BB600023FB747B88DBB22F
:10066C005B09DBB2BB607B8803F01F037B6101225B
:10067C007B6902FA03F37B61BB68012B07D17B68B2
:10068C009B899BB21A467B6913407B6111E0BB6866
:10069C00022B07D17B681B8A9BB21A467B691340DD
:1006AC007B6106E07B689B8A9BB21A467B69134090
:1006BC007B617B881B0A9BB2FB600122FB6802FA00
:1006CC0003F3FB607B681B889BB21A46FB681340E4
:1006DC00FB607B69002B05D0FB68002B02D001234B
:1006EC00FB7401E00023FB74FB7C18461C37BD46F1
:1006FC0080BC704780B500AF6FF00400FFF764FE5C
:10070C000B4B1B680B4AA2FB03235B0DDAB20A4BA3
:10071C001A70094B1B789BB21A465201D21A9200DE
:10072C001344DB009AB2054B1A8000BF80BD00BF9A
:10073C000400002083DE1B43240000202600002040
:10074C0080B485B000AF0346FB80154AFB88154981
:10075C00098801FB03F35360114B00229A60104A85
:10076C000F4B1B6843F0010313600D4B1B68FB60C0
:10077C00FB6803F00103002B04D0FB6803F4803307
:10078C00002BF2D0064A064B1B6823F001031360C2
:10079C00034B00229A6000BF1437BD4680BC7047E3
:1007AC0010E000E02600002080B582B000AF40F2DF
:1007BC0025512548FFF744FF0346002B3FD0224824
:1007CC00FFF72EFF0346FB71204B1B881BB2002B3F
:1007DC0035DB1E4B1B8803F48043002B10D0FB79B8
:1007EC000A2B03D0194B00221A8028E0174B1B88C8
:1007FC006FEA43436FEA53439AB2144B1A801EE0DC
:10080C00FB790D2B07D1114B1B8843F480439AB213
:10081C000E4B1A8013E00D4B1B88C3F30D030C49D0
:10082C00FA79CA54094B1B8801339AB2074B1A80C8
:10083C00064B1B88C72B02D9044B00221A8000BF21
:10084C000837BD4680BD00BF00380140F0000020D5
:10085C0028000020002103E00B4B5B58435004316F
:10086C000A480B4B42189A42F6D30A4A02E000237C
:10087C0042F8043B084B9A42F9D3FFF7EBFC00F02B
:10088C000FF8FFF7A3FC70471809000800000020C0
:10089C000800002008000020F4000020FEE7000003
:1008AC000E4B70B51E460E4C0025E41AA410A54242
:1008BC0004D056F8253098470135F8E700F016F8C3
:1008CC00084B094C1E46E41AA4100025A54204D07E
:1008DC0056F8253098470135F8E770BD1009000827
:1008EC00100900081009000814090008F8B500BF29
:1008FC00F8BC08BC9E467047F8B500BFF8BC08BCF5
:04090C009E4670474C
:0409100031010008A9
:040914000D010008C9
:080918000100000000A24A04E6
:040000050800086186
:00000001FF
