:10016E000000E43F282028258108421002020802E0
:10017E00E83F04020707840A4412346204020002B4
:10018E0088208824882488248824BF2488248824CE
:10019E00882488248824B8248724422440202020C0
:1001AE00800080004001200210040808F4178360CC
:1001BE008000FC1F8000880890089004FF7F0000DC
:1001CE0080008200840F44082004F03F272224225E
:1001DE00E43F0405840C8454444424780A00F17FDF
:1001EE00F80F0808F80F0808F80F0000FC3F04008D
:1001FE00F41F0400FC7F941014091206521831608B
:10020E00800080008000FC1F841084108410FC1F6E
:10021E00841084108410FC1F845080408040007F26
:10022E000000FE1F00080004000280018000FF7F16
:10023E00800080008000800080008000A0004000D0
:1004C100E4FDD3EF9400EE940040080DEF1F70F2AD
:0304D1001E80EF9B
:0104D4002205
:10046800E4FDFCC3ED9FEC9E5015E4FBFA0BBB00CA
:0F047800010ABA03F8BB84F50DBD00010C80E446
:010487002252
:10048800E4FE53B0FEEF20E70553B0FD800343B010
:0F04980002EF25E0FF43B0010EBE08E653B0FEB1
:0104A7002232
:0C04A8007F011203FC7F401203FC7F2C3C
:0D04B40053B0F753B0EF12048843B010228C
:1003D7007F2A1204B4E4FF1203FCE4FF1203FCE4D7
:1003E700FF1203FC7FF01203FC7F2B1204B4E4FF1F
:0503F7001203FCE4FF0D
:0D03FC0043B00853B0EF12048843B0102244
:10043B001203D71204A8E4FDFCE4FBFA7FFF1203BE
:10044B00FC7FFF1203FC0BBB00010AEB64F04A704C
:0C045B00EB0DBD00010CBC01E0BD40DD5C
:010467002272
:040409008E088F09C1
:10040D001203D71204A8E4FDFCE4FBFAE508FF1281
:10041D0003FCAF091203FC0BBB00010AEB64F04AAD
:0D042D0070EA0DBD00010CBC01DFBD40DC1C
:01043A00229F
:1000030043B00153B0FB7F327E0012046843B00457
:100013007F0A1204687F111204B47F787E001204F1
:10002300687F3A1204B47F051203FC7FC51204B43F
:100033007F1A1203FC7F361204B4E4FF1203FC7F21
:10004300B21204B47F051203FC7F051203F77F335A
:100053001203FC7F331203FC7FB71204B47F051233
:1000630003FC7FBB1204B47F3F1203FC7FC0120466
:10007300B47F2C1203FC7FC21204B47F011203FC71
:100083007FC31204B47F0F1203FC7FC41204B47F36
:10009300201203FC7FC61204B47F011203FC7FD03D
:1000A3001204B47FA41203FC7FA11203FC7FE812A5
:1000B30004B47F031203FC7FE91204B47F09120323
:1000C300FC7F091203FC7F081203FC7FE01204B4D7
:1000D3007FD01203FC7F051203FC7F091203FC7F10
:1000E300091203FC7F081203FC7F141203FC7F2810
:1000F3001203FC7F331203FC7F3F1203FC7F0712C2
:1001030003FC7F131203FC7F141203FC7F281203EA
:10011300FC7F301203FC7FE11204B47FD01203FC96
:100123007F051203FC7F091203FC7F091203FC7F86
:10013300081203FC7F031203FC7F241203FC7F32AB
:100143001203FC7F321203FC7F3B1203FC7F141269
:1001530003FC7F131203FC7F281203FC7F2F12037F
:0B016300FC7F201204B47F290204B4CA
:040329008E088F09A2
:10032D00E4FBFAF97F2A1204B4E508FF1203FCAFCF
:10033D00091203FC740F2509F509E43508F508FFCA
:10034D001203FCAF091203FC7F2B1204B4AF04128D
:10035D0003FCAF051203FC740F2DFDE43CFCFF12F2
:10036D0003FCAF051204AFE4F511F512E510C4332B
:10037D0054E0246EF582E43401F583E58229F5829B
:10038D00E43583F583E493FAE4FBEA30E017AF0F2D
:10039D00AE0EAD0DAC0C78081204D51203FCAF0FE8
:1003AD001203FC800A7FFF1203FC7FFF1203FCEA9D
:1003BD00C313FA0BBB08D3090512E5127002051120
:0903CD00C39420E511940040A343
:0103D6002204
:0404F40075A0FF22CE
:10024E001204F453B0FE12000343B0207F007EF878
:10025E001204097F0A7E001204687FE07E071204F2
:10026E00097F147E001204687F1F1204097F147E1A
:10027E000012046812043BE4750F1FF50EF50DF520
:10028E000CF5107DA0FC7F14FE120329E4750FE01F
:10029E00750E07F50DF50C7510017DA0FC7F24FE83
:1002AE00120329E4F50F750EF8F50DF50C75100215
:1002BE007DA0FC7F3CFE120329E4750F1FF50EF5A1
:1002CE000DF50C7510037DA0FC7F4CFE120329E486
:1002DE00750FE0750E07F50DF50C7510047DA0FC7D
:1002EE007F5CFE120329E4750F1FF50EF50DF50C5C
:1002FE007510057DA0FC7F76FE120329E4F50F75BF
:10030E000EF8F50DF50C7510067DA0FC7F86FE121D
:0B031E0003297F0A7E00120468415A88
:030000000204E80F
:0C04E800787FE4F6D8FD75811502024E05
:1004D500E8600FECC313FCED13FDEE13FEEF13FF05
:0304E500D8F12229
:00000001FF
