:020000040800F2
:1000000000500020250D0008F1070008FD0700083A
:10001000050800080D080008150800080000000089
:100020000000000000000000000000001D080008A3
:1000300029080008000000003508000841080008F1
:100040006D0D00086D0D00086D0D00086D0D0008A8
:100050006D0D00086D0D00086D0D00086D0D000898
:100060006D0D00086D0D00086D0D00086D0D000888
:100070006D0D00086D0D00086D0D00086D0D000878
:100080006D0D00086D0D00086D0D00086D0D000868
:100090006D0D00086D0D00086D0D00086D0D000858
:1000A0006D0D00086D0D00086D0D00086D0D000848
:1000B0006D0D00086D0D00086D0D00086D0D000838
:1000C0006D0D00086D0D00086D0D00086D0D000828
:1000D0006D0D0008790C00086D0D00086D0D00080D
:1000E0006D0D00086D0D00086D0D0008000000008A
:1000F0000000000000000000000000000000000000
:0C01000000000000000000005FF808F1A3
:10010C0010B5054C237833B9044B13B10448AFF345
:10011C0000800123237010BD0000002000000000AF
:10012C00BC0D0008084B10B51BB108490848AFF3CB
:10013C0000800848036803B910BD074B002BFBD0A7
:10014C00BDE81040184700BF00000000040000206C
:10015C00BC0D0008000000200000000080B582B03B
:10016C0000AF0121082000F0F9FC1423FB710323DC
:10017C00BB714FF48073BB803B1D19460D4800F0DA
:10018C0019FC4FF40073BB803B1D1946094800F065
:10019C0011FC01224FF48071064800F0C7FC0122CB
:1001AC004FF40071034800F0C1FC00BF0837BD4696
:1001BC0080BD00BF000C014080B500AF01224FF4A0
:1001CC0000710B4800F0B2FC01224FF4807108481A
:1001DC0000F0ACFC00224FF40071054800F0A6FCC6
:1001EC0000224FF48071024800F0A0FC00BF80BDDB
:1001FC00000C014080B500AF00224FF4007108489C
:10020C0000F094FC01224FF48071054800F08EFC44
:10021C0001224FF40071024800F088FC00BF80BD41
:10022C00000C014080B584B000AF0346FB71002385
:10023C00FB731EE0FB7B802242FA03F35AB297F960
:10024C00073013405BB2DBB21A464FF40071124810
:10025C0000F06CFC01224FF480710F4800F066FC3A
:10026C0000224FF480710C4800F060FCFB7B0133E2
:10027C00FB73FB7B072BDDD901224FF48071064801
:10028C0000F054FC00224FF48071034800F04EFC47
:10029C0000BF1037BD4680BD000C014080B582B058
:1002AC0000AF0346FB71FFF787FF7820FFF7BAFF1B
:1002BC000020FFF7B7FFFB791846FFF7B3FFFFF7F6
:1002CC0099FF00BF0837BD4680BD00BF80B582B026
:1002DC0000AF0346FB71FFF76FFF7820FFF7A2FF1B
:1002EC004020FFF79FFFFB791846FFF79BFFFFF7B6
:1002FC0081FF00BF0837BD4680BD00BF80B582B00E
:10030C0000AF03460A46FB711346BB71FB7963F0E1
:10031C004F03DBB21846FFF7C1FFBB791B09DBB2F9
:10032C0043F01003DBB21846FFF7B8FFBB7903F0BC
:10033C000F03DBB21846FFF7B1FF00BF0837BD460D
:10034C0080BD00BF80B582B000AF0023BB7114E04C
:10035C00BB7900211846FFF7D1FF0023FB7105E0A4
:10036C000020FFF7B3FFFB790133FB7197F90730DE
:10037C00002BF5DABB790133BB71BB79072BE7D9BD
:10038C0000BF0837BD4680BD80B584B000AF0346C2
:10039C00FB710B46BB7113467B71FB79013BDBB2E6
:1003AC005B00DAB2BB79013BDBB2DB00DBB2194696
:1003BC001046FFF7A3FF0023FB730EE07B79A3F13C
:1003CC002002FB7B1B4912010A4413441B7818467C
:1003DC00FFF77CFFFB7B0133FB73FB7B072BEDD91A
:1003EC00FB79013BDBB25B00DBB20133DAB2BB79E8
:1003FC00013BDBB2DB00DBB219461046FFF77EFF98
:10040C000023FB730FE07B79A3F12002FB7B083305
:10041C00084912010A4413441B781846FFF756FF8B
:10042C00FB7B0133FB73FB7B072BECD900BF103735
:10043C00BD4680BDE00D000880B584B000AF03461A
:10044C003A60FB710B46BB710023FB730EE0BA796B
:10045C00FB7B1344D9B2FB7B3A6813441A78FB79C3
:10046C001846FFF791FFFB7B0133FB73FB7B3A686C
:10047C0013441B78002BEAD100BF1037BD4680BD5A
:10048C0080B485B000AF786039600123FB6004E074
:10049C00FB687A6802FB03F3FB603B685A1E3A6008
:1004AC00002BF5D1FB6818461437BD4680BC70474D
:1004BC0090B585B000AF3A601A460346FB710B4607
:1004CC00BB7113467B710023FB7323E0BA79FB7B72
:1004DC001344DCB27A79FB7BD31A013B19460A2010
:1004EC00FFF7CEFF02463B68B3FBF2F10D4BA3FBCB
:1004FC000123DA0813469B0013445B00CA1AD3B2DB
:10050C003033DAB2FB7921461846FFF73DFFFB7B0F
:10051C000133FB73FA7B7B799A42D7D300BF143734
:10052C00BD4690BDCDCCCCCC90B585B000AF3A607B
:10053C001A460346FB710B46BB7113467B713B6835
:10054C00002B08DBB979FB792B221846FFF71CFF2F
:10055C003B68BB6008E0B979FB792D221846FFF7A0
:10056C0013FF3B685B42BB600023FB7325E0BA7949
:10057C00FB7B1344DBB20133DCB27A79FB7BD31AFD
:10058C00013B19460A20FFF77BFF0246BB68B3FB11
:10059C00F2F10E4BA3FB0123DA0813469B00134424
:1005AC005B00CA1AD3B23033DAB2FB792146184653
:1005BC00FFF7EAFEFB7B0133FB73FA7B7B799A42F4
:1005CC00D5D300BF1437BD4690BD00BFCDCCCCCC2D
:1005DC0080B584B000AF3A601A460346FB710B46F7
:1005EC00BB7113467B710023FB732CE07A79FB7B88
:1005FC00D31A013B19461020FFF742FF02463B6815
:10060C00B3FBF2F3DBB203F00F03BB73BB7B092B21
:10061C000BD8BA79FB7B1344D9B2BB7B3033DAB23B
:10062C00FB791846FFF7B0FE0AE0BA79FB7B13445E
:10063C00D9B2BB7B3733DAB2FB791846FFF7A4FE8D
:10064C00FB7B0133FB73FA7B7B799A42CED300BFE1
:10065C001037BD4680BD00BF90B585B000AF3A6085
:10066C001A460346FB710B46BB7113467B71002384
:10067C00FB731DE0BA79FB7B1344DCB27A79FB7B0C
:10068C00D31A013B19460220FFF7FAFE02463B68DB
:10069C00B3FBF2F3DBB203F00103DBB23033DAB2BB
:1006AC00FB7921461846FFF76FFEFB7B0133FB738A
:1006BC00FA7B7B799A42DDD300BF1437BD4690BDDF
:1006CC0080B582B000AF00237B600CE000233B6060
:1006DC0002E03B6801333B603B68B3F57A7FF8D3AB
:1006EC007B6801337B607B68B3F57A7FEED3FFF7D1
:1006FC0035FDAE20FFF7D2FDD520FFF7CFFD8020D2
:10070C00FFF7CCFDA820FFF7C9FD3F20FFF7C6FD82
:10071C00D320FFF7C3FD0020FFF7C0FD4020FFF7FB
:10072C00BDFDA120FFF7BAFDC820FFF7B7FDDA2009
:10073C00FFF7B4FD1220FFF7B1FD8120FFF7AEFDEE
:10074C00CF20FFF7ABFDD920FFF7A8FDF120FFF775
:10075C00A5FDDB20FFF7A2FD3020FFF79FFDA420B5
:10076C00FFF79CFDA620FFF799FD8D20FFF796FD66
:10077C001420FFF793FDAF20FFF790FDFFF7E2FD8C
:10078C0000BF0837BD4680BD80B500AFFFF798FFAE
:10079C00412201210120FFF7F7FD114A032101201D
:1007AC00FFF74AFE052343F2390201210220FFF72D
:1007BC007FFE02236FF0410207210220FFF7B4FEF7
:1007CC0004234AF6552201210320FFF701FF1023D1
:1007DC004AF6552201210420FFF73EFFFEE700BF39
:1007EC00D40D000880B400AF00BFBD4680BC70477C
:1007FC0080B400AFFEE700BF80B400AFFEE700BFDF
:10080C0080B400AFFEE700BF80B400AFFEE700BFCE
:10081C0080B400AF00BFBD4680BC704780B400AF51
:10082C0000BFBD4680BC704780B400AF00BFBD4662
:10083C0080BC704780B400AF00BFBD4680BC704721
:10084C0080B500AF154A154B1B6843F001031360CC
:10085C001249124B5A68124B13404B600F4A0F4B04
:10086C001B6823F0847323F4803313600B4A0B4B07
:10087C001B6823F480231360084A084B5B6823F43D
:10088C00FE035360054B4FF41F029A6000F00CF806
:10089C00044B4FF000629A6000BF80BD0010024014
:1008AC000000FFF800ED00E080B500AF00F002F8AA
:1008BC0000BF80BD80B483B000AF00237B600023F9
:1008CC003B603A4A394B1B6843F480331360374B17
:1008DC001B6803F400333B607B6801337B603B682F
:1008EC00002B03D17B68B3F5A06FF0D12F4B1B68A5
:1008FC0003F40033002B02D001233B6001E0002302
:10090C003B603B68012B4BD1294A294B1B6843F0B8
:10091C0010031360264A264B1B6823F00303136055
:10092C00234A234B1B6843F0020313601F4A1F4BDF
:10093C005B6853601D4A1D4B5B6853601B4A1B4B25
:10094C005B6843F480635360184A184B5B6823F46C
:10095C007C135360154A154B5B6843F4E8135360E2
:10096C00124A124B1B6843F08073136000BF0F4B8D
:10097C001B6803F00073002BF9D00C4A0B4B5B681F
:10098C0023F003035360094A084B5B6843F00203EE
:10099C00536000BF054B5B6803F00C03082BF9D1C7
:1009AC0000BF0C37BD4680BC704700BF0010024032
:1009BC000020024080B489B000AF78603960002319
:1009CC00FB6100233B610023BB610023FB60002320
:1009DC007B610023BB603B68DB7803F00F03FB619A
:1009EC003B68DB7803F01003002B05D03B689B7849
:1009FC001A46FB691343FB613B681B88DBB2002B77
:100A0C0044D07B681B687B610023BB6138E001220A
:100A1C00BB6902FA03F3FB603B681B881A46FB6850
:100A2C0013403B613A69FB689A4226D1BB699B0033
:100A3C00FB600F22FB6802FA03F3BB60BB68DB436D
:100A4C007A6913407B61FA69FB6802FA03F37A69ED
:100A5C0013437B613B68DB78282B05D10122BB69F2
:100A6C009A407B685A6108E03B68DB78482B04D1DC
:100A7C000122BB699A407B681A61BB690133BB6177
:100A8C00BB69072BC3D97B687A691A603B681B88E2
:100A9C00FF2B46D97B685B687B610023BB613AE026
:100AAC00BB690833012202FA03F3FB603B681B8825
:100ABC001A46FB6813403B613A69FB689A4227D19E
:100ACC00BB699B00FB600F22FB6802FA03F3BB605F
:100ADC00BB68DB437A6913407B61FA69FB6802FAF5
:100AEC0003F37A6913437B613B68DB78282B05D1D0
:100AFC00BB69083301229A407B685A613B68DB78FA
:100B0C00482B05D1BB69083301229A407B681A61D6
:100B1C00BB690133BB61BB69072BC1D97B687A699F
:100B2C005A6000BF2437BD4680BC704780B483B088
:100B3C0000AF78600B467B8013467B707B78002B74
:100B4C0003D07A887B681A6102E07A887B685A61E4
:100B5C0000BF0C37BD4680BC704700BF80B483B06B
:100B6C0000AF78600B46FB70FB78002B06D0094970
:100B7C00084B9A697B6813438B6106E00549054B6A
:100B8C009A697B68DB4313408B6100BF0C37BD4611
:100B9C0080BC70470010024080B483B000AF786016
:100BAC007B689B889BB2C3F308039BB218460C3737
:100BBC00BD4680BC704700BF80B487B000AF786082
:100BCC000B467B800023FB6000237B610023BB6012
:100BDC000023FB747B88DBB25B09DBB2BB607B88D8
:100BEC0003F01F037B6101227B6902FA03F37B6133
:100BFC00BB68012B07D17B689B899BB21A467B692A
:100C0C0013407B6111E0BB68022B07D17B681B8A08
:100C1C009BB21A467B6913407B6106E07B689B8A1A
:100C2C009BB21A467B6913407B617B881B0A9BB283
:100C3C00FB600122FB6802FA03F3FB607B681B88F4
:100C4C009BB21A46FB681340FB607B69002B05D0F6
:100C5C00FB68002B02D00123FB7401E00023FB7422
:100C6C00FB7C18461C37BD4680BC704780B582B0F3
:100C7C0000AF40F225512548FFF79EFF0346002B9D
:100C8C003FD02248FFF788FF0346FB71204B1B889F
:100C9C001BB2002B35DB1E4B1B8803F48043002B4F
:100CAC0010D0FB790A2B03D0194B00221A8028E0B4
:100CBC00174B1B886FEA43436FEA53439AB2144BAA
:100CCC001A801EE0FB790D2B07D1114B1B8843F4C6
:100CDC0080439AB20E4B1A8013E00D4B1B88C3F362
:100CEC000D030C49FA79CA54094B1B8801339AB28B
:100CFC00074B1A80064B1B88C72B02D9044B0022CA
:100D0C001A8000BF0837BD4680BD00BF00380140C7
:100D1C00E40000201C000020002103E00B4B5B587A
:100D2C00435004310A480B4B42189A42F6D30A4AF4
:100D3C0002E0002342F8043B084B9A42F9D3FFF738
:100D4C007FFD00F00FF8FFF71FFD7047D813000868
:100D5C00000000200000002000000020E80000201F
:100D6C00FEE700000E4B70B51E460E4C0025E41A33
:100D7C00A410A54204D056F8253098470135F8E761
:100D8C0000F016F8084B094C1E46E41AA410002576
:100D9C00A54204D056F8253098470135F8E770BDC8
:100DAC00D0130008D0130008D0130008D413000887
:100DBC00F8B500BFF8BC08BC9E467047F8B500BF3C
:080DCC00F8BC08BC9E4670470C
:100DD40048656C6C6F576F726C64210000000000F2
:100DE400000000000000000000000000000000F807
:100DF40000000000000000333000000000100C066A
:100E0400100C0600000000000000000040C0784004
:100E1400C0784000043F04043F040400007088FCD0
:100E240008300000001820FF211E0000F008F00028
:100E3400E018000000211C031E211E0000F0088899
:100E4400700000001E2123241927211010160E0003
:100E5400000000000000000000000000000000E0AE
:100E640018040200000000071820400000020418C3
:100E7400E00000000040201807000000404080F01F
:100E8400804040000202010F01020200000000F055
:100E9400000000000101011F010101000000000029
:100EA4000000000080B0700000000000000000009E
:100EB4000000000000010101010101010000000027
:100EC40000000000003030000000000000000000BE
:100ED40080601804006018060100000000E010089B
:100EE4000810E000000F102020100F00001010F870
:100EF400000000000020203F2020000000700808AF
:100F0400088870000030282422213000003008882E
:100F1400884830000018202020110E000000C02056
:100F240010F8000000070424243F240000F8088877
:100F3400880808000019212020110E0000E0108804
:100F440088180000000F112020110E000038080836
:100F5400C83808000000003F000000000070880846
:100F640008887000001C222121221C0000E01008C7
:100F74000810E0000000312222110F00000000C020
:100F8400C0000000000000303000000000000080BD
:100F940000000000000080600000000000008040AD
:100FA40020100800000102040810200040404040C6
:100FB4004040400004040404040404000008102019
:100FC400408000000020100804020100007048085E
:100FD4000808F0000000003036010000C030C828C6
:100FE400E810E0000718272423140B000000C03881
:100FF400E0000000203C23020227382008F88888FB
:1010040088700000203F202020110E00C030080806
:1010140008083800071820202010080008F80808DD
:101024000810E000203F202020100F0008F88888D6
:10103400E8081000203F20202320180008F88888A2
:10104400E8081000203F200003000000C03008081A
:101054000838000007182020221E020008F80800A3
:101064000008F808203F210101213F20000808F86A
:10107400080800000020203F20200000000008088D
:10108400F8080800C08080807F00000008F888C04D
:1010940028180800203F20012638200008F80800FE
:1010A40000000000203F20202020300008F8F80035
:1010B400F8F80800203F003F003F200008F830C047
:1010C4000008F808203F200007183F00E010080837
:1010D4000810E0000F10202020100F0008F8080866
:1010E4000808F000203F210101010000E010080879
:1010F4000810E0000F18242438504F0008F888889E
:1011040088887000203F2000030C3020007088087D
:10111400080838000038202121221C00180808F88B
:10112400080818000000203F2000000008F808000C
:101134000008F808001F202020201F0008788800DD
:1011440000C83808000007380E010000F80800F84D
:101154000008F800033C0700073C030008186880F7
:101164008068180820302C03032C30200838C8006D
:10117400C83808000000203F2000000010080808BC
:10118400C83808002038262120201800000000FE5E
:10119400020202000000007F40404000000C30C00A
:1011A40000000000000000010638C0000002020236
:1011B400FE000000004040407F00000000000402E8
:1011C4000202040000000000000000000000000013
:1011D4000000000080808080808080800002020403
:1011E40000000000000000000000000000008080FB
:1011F400808000000019242222223F2008F8008069
:1012040080000000003F112020110E00000000802B
:1012140080800000000E11202020110000000080BA
:101224008088F800000E112020103F2000008080EC
:1012340080800000001F222222221300008080F000
:10124400888888180020203F20200000000080802B
:1012540080808000006B94949493600008F8008070
:1012640080800000203F210000203F2000809898CB
:10127400000000000020203F20200000000000802B
:101284009898000000C08080807F000008F800006B
:1012940080808000203F24022D302000000808F8C0
:1012A400000000000020203F20200000808080807B
:1012B40080808000203F20003F20003F808000800D
:1012C40080800000203F210000203F20000080801B
:1012D40080800000001F202020201F0080800080CC
:1012E4008000000080FFA12020110E00000000807B
:1012F40080808000000E112020A0FF80808080006C
:101304008080800020203F21200001000000808098
:10131400808080000033242424241900008080E08D
:10132400808000000000001F20200000808000005A
:1013340000808000001F202020103F20808080003B
:101344000080808000010E3008060100808000804B
:10135400008080800F300C030C300F000080800070
:10136400808080000020312E0E312000808080009B
:101374000080808080818E7018060100008080804B
:10138400808080000021302C2221300000000000E9
:10139400807C020200000000003F4040000000008A
:1013A400FF00000000000000FF0000000002027CBB
:1013B400800000000040403F0000000000060101E2
:0C13C40002020404000000000000000011
:0413D00031010008DF
:0413D4000D010008FF
:0400000508000D25BD
:00000001FF
