:10000300D6D0CEC4B2E2CAD400BBB6D3ADC4FA00D4
:10001300D2F2CEAAD7A8D7A200CBF9D2D4D7A8D2EE
:10002300B500D6D001000100010001003FF821080E
:1000330021082108210821083FF8210801000100B7
:1000430001000100CEC4020001000100FFFE1010F8
:1000530010100820082004400280010002800440A0
:1000630008203018C006CFD400001FF01010101065
:100073001FF0101010101FF004404444244414488F
:1000830014500440FFFE0000CABE00003FF8000009
:10009300000000000000FFFE010001001110110824
:1000A30021044102810205000200B2E2000427C4D8
:1000B3001444145485544554455415541554255427
:1000C300E55421042284224424140808CAD40028B5
:1000D30020241024102007FE0020F02017E0112018
:1000E30011101110151019CA170A02060002C8AB25
:1000F3000100010002800440082010102FE8C1060F
:10010300010001001FF00100010001007FFC00005D
:10011300B6AF004000407C40004001FC0044FE4478
:1001230020442044208448844484FD044504022858
:100133000410B5E70100010001003FF82108210880
:1001430021083FF82108210821083FF8210A01026C
:10015300010200FED7D300007FF80010002000400A
:1001630001800100FFFE0100010001000100010008
:10017300010005000200BBB600800080FC8004FC87
:10018300050449082A401440104028A024A0451023
:100193008110020804040802D3AD00002080133C40
:1001A300122402240224F2241224122412B4132847
:1001B30012201020282047FE0000C4FA090009007D
:1001C30011FC32045448995011481244144411400C
:1001D300108002005104511290120FF0D2F200006D
:1001E3007FFC40044104410441045FF44104428420
:1001F300424444244814501440047FFC4004CEAAD3
:10020300010021001100110001007FF8020802081B
:100213000288044804480808100820084050802039
:10022300D7A80100010001003FF802000200FFFE11
:10023300040008000FF00010002006400180004079
:100243000020D2B504400440044004404444244404
:1002530024481448145014600440044004400440EB
:10026300FFFE0000CBF90208071C38E02080208045
:100273003E8022FE228822883E88208820884108EA
:10028300410882080408D2D400100410221021105F
:10029300211020102010202020202020244028502E
:1002A3003088210402020402D7A2008020401000FB
:1002B30017FC804040404040104013FC2040E04089
:1002C3002040204020402FFE0000A1A1000000009C
:1002D300000000000000000000000000000000001B
:0C02E3000000000000000000000000000F
:1008D100E4FDFCC3ED9FEC9E5015E4FBFA0BBB005D
:0F08E100010AEB64FA4A70F50DBD00010C80E4CA
:0108F00022E5
:100927007E08EF30E704D2918002C291C290D29044
:06093700EF25E0FFDEECFD
:01093D002297
:0A098100C294C293120927D29422F7
:050955001209817F057D
:0C095A00E4F51FC294D293120927D29436
:01096600226E
:04090F00AD07AC067E
:10091300E4F517C294D293AF04120927AF05120965
:0309230027D29444
:0109260022AE
:0E096700C2927F647E001208D1D2920208D1A3
:1004E5001209677F111209817F787E001208D17F7A
:1004F500211209817F211209817FB11209557F3AA5
:1005050012095A7F3A12095A7FB21209557F3A12D7
:10051500095A7F3A12095A7FB31209557F3A1209CF
:100525005A7F3A12095A7F0512095A7F3A12095A17
:100535007F3A12095A7FB41209817F0312095A7F43
:10054500C01209817F6212095A7F0212095A7F047B
:1005550012095A7FC11209817FC012095A7FC2123E
:1005650009817F0D12095AE4FF12095A7FC3120946
:10057500817F8D12095A7F6A12095A7FC412098137
:100585007F8D12095A7FEE12095A7FC51209817FA4
:100595000E12095A7FE01209817F1012095A7F0E47
:1005A50012095A7F0212095A7F0312095A7F0E1245
:1005B500095A7F0712095A7F0212095A7F07120941
:1005C5005A7F0A12095A7F1212095A7F2712095AAD
:1005D5007F3712095AE4FF12095A7F0D12095A7F13
:1005E5000E12095A7F1012095A7FE11209817F10F4
:1005F50012095A7F0E12095A7F0312095A7F0312F4
:10060500095A7F0F12095A7F0612095A7F021209E9
:100615005A7F0812095A7F0A12095A7F1312095A7A
:100625007F2612095A7F3612095AE4FF12095A7FAA
:100635000D12095A7F0E12095A7F1012095A7F3A74
:100645001209557F361209817FC812095A7F29027E
:02065500098119
:100865008F827F2A120981E4FF12095AAF82EF2491
:100875001AFF12095AE4FF12095AEB241AFF12094A
:100885005A7F2B120981E4FF12095AED04FF120960
:100895005AE4FF12095AE51E04FF12095A7F2C0279
:0208A5000981C7
:1008F1008A318B32EF2401FBE43EFAED2401F51E2F
:0E090100E43CF51D120865AF32AE3102090F5D
:0408A7008E088F091F
:1008AB00751D00751E9F7B4F7A00E4FDFCFFFE1249
:1008BB000865E4FBE4FAAF09AE0812090F0ABA5057
:0508CB00F50BBBA0EFDE
:0108D0002205
:080657007B1F7A007C007E008D
:0C065F008E088F098C0A8D0B8A0C8B0D05
:10066B00751500751615AB10AA11A9121208137087
:10067B000302079DC39480500302078FE4F513F523
:10068B0014C3E5149516E51395154003020776ABD5
:10069B0010AA11A912120813FF90002575F022E57C
:1006AB0014120859E51375F022A42583F583E493FE
:1006BB006F600302076B90000112082CFF9000265D
:1006CB0075F022E514120859E51375F022A4258361
:1006DB00F583E4936F600302076BE509240FFBE4DA
:1006EB003508FAE50B240FF51EE4350AF51DAD0BA5
:1006FB00AC0AAF09AE08120865E4FBE4FA900027D8
:10070B0075F022E514120859E51375F022A4258320
:10071B00F583E5822BF582E43583F583E493FD3392
:10072B0095E0FC74807E00A802088006CEA2E71339
:10073B00CE13D8F8FFEE5CFEEF5D4E6006AF0DAE4C
:10074B000C8010E50D650F7004E50C650E6007AFAE
:10075B000FAE0E12090F0ABA08A30BEB6420709BA5
:10076B000514E5147002051302068C74022512F5AC
:10077B0012E43511F51174102509F509E43508F566
:10078B000802067174012512F512E43511F51102F8
:02079B000671E5
:01079D002239
:0C02EF008E208F218C228D238A248B25E9
:1002FB0085202F852130AB28AA29A92A1208137033
:10030B00030204E4C3948050030204D6E4F52DF5F4
:10031B002EAB28AA29A92A120813FF90002575F0E5
:10032B0022E52E120859E52D75F022A42583F583BD
:10033B00E4936F60030204A990000112082CFF9054
:10034B00002675F022E52E120859E52D75F022A432
:10035B002583F583E4936F60030204A9F52BE4F581
:10036B002C90002775F022E52E120859E52D75F01B
:10037B0022A42583F58375F002E52B120859E4932B
:10038B00FD3395E0FC74807E00A82C088006CEA27D
:10039B00E713CE13D8F8FFEE5CFEEF5D4E601C7ECC
:1003AB0000E521252CFFEE3520FE7C00E523252BD7
:1003BB00FDEC3522FCAB25AA248026E525652770AC
:1003CB0004E5246526601D7E00E521252CFFEE3516
:1003DB0020FE7C00E523252BFDEC3522FCAB27AA68
:1003EB00261208F1052CE52CC39408500302036C6C
:1003FB00E4F52C90002875F022E52E120859E52D16
:10040B0075F022A42583F58375F002E52B120859AC
:10041B00E493FD3395E0FC74807E00A82C088006E5
:10042B00CEA2E713CE13D8F8FFEE5CFEEF5D4E6065
:10043B0024AF2C7E00E521252CCFEE3520CF2408D0
:10044B00CF3400FE7C00E523252BFDEC3522FCABE5
:10045B0025AA24802EE52565277004E524652660F2
:10046B0025AF2C7E00E521252CCFEE3520CF24089F
:10047B00CF3400FE7C00E523252BFDEC3522FCABB5
:10048B0027AA261208F1052CE52CC3940850030269
:10049B0003FE052BE52BC394105003020369052EB5
:1004AB00E52E7002052DC39432E52D940050030206
:1004BB00031C7402252AF52AE43529F52974102525
:1004CB0021F521E43520F5200203017401252AF5DD
:0904DB002AE43529F52902030188
:0104E40022F5
:10079E0074FFFFFE1208A7750EFF750FE07510FFB0
:1007AE007511007512037D0A7F0812065774FFF546
:1007BE000EF50FF51075110075120C7D327F1012AB
:1007CE000657750E00750F1F7510FF751100751207
:1007DE001374FFFBFA7D467C007F087E0012065FD5
:1007EE00750E00750F1F7510FF75110075121C74B4
:1007FE00FFFBFA7D5A7C007F087E0012065F7F08A1
:05080E007E070208D185
:10093E0053B1FB43B2041204E5D29512079E7FAC6D
:07094E007E0D1208D180F4B8
:030000000209757D
:0C097500787FE4F6D8FD75813202093E5F
:10081300BB010689828A83E0225002E722BBFE02E3
:09082300E32289828A83E4932216
:10082C00BB010CE58229F582E5833AF583E0225081
:10083C0006E92582F8E622BBFE06E92582F8E222CB
:0D084C00E58229F582E5833AF583E49322E5
:0C085900A42582F582E5F03583F58322AA
:00000001FF
