:020000040800F2
:10000000680F0020910500087D0200087F020008AB
:100010008B02000897020008A302000800000000FD
:10002000000000000000000000000000AF02000817
:10003000B102000800000000A7050008B302000894
:10004000AB050008AB050008AB050008B7020008C7
:10005000AB050008AB050008B502000867160008EC
:10006000AB050008AB050008AB050008AB050008B0
:10007000AB050008AB050008AB050008AB050008A0
:10008000AB050008AB050008AB050008AB05000890
:10009000AB050008AB050008AB050008AB05000880
:1000A000AB050008AB050008AB050008AB05000870
:1000B000AB050008AB050008AB050008AB05000860
:1000C000AB050008AB050008AB050008AB05000850
:1000D000AB05000887150008193C0008AB050008AF
:1000E000AB050008AB050008AB05000800F002F8FE
:1000F00000F0B4F80AA090E8000C82448344AAF10E
:100100000107DA4501D100F0A9F8AFF2090EBAE80B
:100110000F0013F0010F18BFFB1A43F0010318473B
:10012000C8A30000E8A300000A444FF0000C10F838
:10013000013B13F0070408BF10F8014B1D1108BF65
:1001400010F8015B641E05D010F8016B641E01F805
:10015000016BF9D113F0080F1EBF10F8014BAD1C55
:100160000C1B09D16D1E58BF01F801CBFAD505E073
:1001700014F8016B01F8016B6D1EF9D59142D6D3CD
:10018000704700000023002400250026103A28BFF5
:1001900078C1FBD8520728BF30C148BF0B607047F9
:1001A0006E2906F0C183702905F05F87662909F082
:1001B0006C83652909F06983672909F066836129E1
:1001C000AFF3008003681B0A28BF41F08001692952
:1001D00005F0D086642905F0CD86752905F0CA861C
:1001E0006F2906F0BE86782905F02B87E92906F0ED
:1001F0005986E42906F05686F52906F05386EF293C
:1002000006F0BB86F82905F02A870368DB0928BFBA
:1002100041F08001632906F0DA85732906F0DF8555
:10022000E32906F0B787F32906F0BC870020704762
:100230001FB59DE8030006F0CBFA06F0F1FE0400BE
:100240000020002108F0A2FC401C6060002000217A
:1002500008F0B2FCE0601FBD10B510BD07F0FAF960
:100260001146FFF7E5FF01F078FB07F018FA03B439
:10027000FFF7F2FF03BC07F089FA000070470EA1F8
:100280001C4801F05CF900BFFEE71BA1194801F012
:1002900056F900BFFEE727A1164801F050F900BF4C
:1002A000FEE733A1134801F04AF900BFFEE77047AB
:1002B00070477047704770470D0A2A2A2A2A2A2A4F
:1002C0002A2A2A2A2A2A2A2A2A2A2A2A2A486172F1
:1002D000644661756C745F48616E646C65722A2A4D
:1002E0002A2A2A2A2A2A2A2A2A2A2A2A2A2A2A2A6E
:1002F0002A0D0A00003801400D0A2A2A2A2A2A2A31
:100300002A2A2A2A2A2A2A2A2A2A2A2A2A4D656DAC
:100310004D616E6167655F48616E646C65722A2A23
:100320002A2A2A2A2A2A2A2A2A2A2A2A2A2A2A2A2D
:100330002A0D0A000D0A2A2A2A2A2A2A2A2A2A2AC1
:100340002A2A2A2A2A2A2A2A2A4275734661756C81
:10035000745F48616E646C65722A2A2A2A2A2A2AE6
:100360002A2A2A2A2A2A2A2A2A2A2A2A0D0A00007E
:100370000D0A2A2A2A2A2A2A2A2A2A2A2A2A2A2A1A
:100380002A2A2A2A2A55736167654661756C745F4B
:1003900048616E646C65722A2A2A2A2A2A2A2A2A25
:1003A0002A2A2A2A2A2A2A2A2A2A0D0A0000000092
:1003B0000CB50020019000906C48006840F480303B
:1003C0006A49086000BF6948006800F40030009086
:1003D0000198401C0190009818B90198B0F5A06FE1
:1003E000F1D16248006800F4003010B101200090A3
:1003F00001E0002000900098012843D15C4800688B
:1004000040F010005A4908600846006820F00300D8
:1004100008600846006840F00200086053484068E1
:10042000524948600846406848600846406840F4C1
:10043000806048600846406820F47C1048600846A8
:10044000406840F4E81048600846006840F080705A
:10045000086000BF4548006800F000700028F9D02F
:100460004248406820F00300404948600846406820
:1004700040F00200486000BF3C48406800F00C00BB
:100480000828F9D10CBD10B5FFF792FF10BD10B5CB
:100490003648006840F0010034490860084640686A
:1004A00034490840314948600846006832490840EC
:1004B0002E4908600846006820F48020086008463D
:1004C000406820F4FE0048604FF41F008860FFF78A
:1004D000DAFF4FF000602949086010BD10B5002117
:1004E00000200022214B5B6803F00C0121B104299C
:1004F00006D0082928D107E0214B224C236027E0B1
:100500001F4B204C236023E0184B5B6803F47010F2
:10051000164B5B6803F48032022303EB904022B950
:10052000194B4343174C23600DE0104B5B6803F4F9
:10053000003323B1144B4343124C236003E0104BB0
:100540004343104C236003E00D4B0E4C236000BF6F
:1005500000BF064B5B68C3F303130C4CE15C094B13
:100560001B68CB40074C236010BD00000010024008
:10057000002002400000FFF8FFFFF6FE08ED00E05B
:1005800000127A000000002000093D000400002055
:100590000948804709480047FEE7FEE7FEE7FEE717
:1005A000FEE7FEE7FEE7FEE7FEE7FEE70448054953
:1005B000054A064B704700008F040008ED00000854
:1005C00068050020680F00206807002068070020E9
:1005D00031490143314A1160704770B50021002351
:1005E0000F22C47804B32D4C246804F4E064C4F5ED
:1005F000E064210AC1F10403CA40447804FA03F11B
:100600008478144021430901254C0678A1550478CB
:1006100004F01F050124AC4005786D11AD0005F113
:10062000E025C5F8004109E0047804F01F05012425
:10063000AC401C4D0678761145F8264070BD1A4A2C
:100640000A400243154B1B1F1A60704739B1134A09
:10065000121D12680243114B1B1D1A6006E00F4A5F
:10066000121D126882430D4B1B1D1A60704704282F
:1006700008D14FF0E021096941F004014FF0E02278
:10068000116107E04FF0E021096921F004014FF00A
:10069000E0221161704700000000FA050CED00E057
:1006A00000E400E080E100E080FFFF1F10B5044699
:1006B000CC48844208D10121042000F02DFB002108
:1006C000042000F029FB46E0C748844208D10121FC
:1006D000082000F021FB0021082000F01DFB3AE07B
:1006E000C248844208D10121102000F015FB0021EE
:1006F000102000F011FB2EE0BD48844208D10121FA
:10070000202000F009FB0021202000F005FB22E062
:10071000B848844208D10121402000F0FDFA0021B0
:10072000402000F0F9FA16E0B348844208D10121D4
:10073000802000F0F1FA0021802000F0EDFA0AE0BC
:10074000AE48844207D10121801500F0E5FA00216E
:10075000A01500F0E1FA10BD10B50121084600F027
:10076000DBFA0021012000F0D7FA10BD2DE9F0419D
:10077000024600250026002000230024002791F8CF
:1007800003C00CF00F0591F803C00CF0100CBCF185
:10079000000F03D091F802C04CEA050591F800C0A3
:1007A000BCF1000F31D0146800202BE04FF0010C99
:1007B0000CFA00F3B1F800C00CEA03069E4220D107
:1007C00083004FF00F0C0CFA03F7BC4305FA03FC4F
:1007D0004CEA040491F803C0BCF1280F06D14FF095
:1007E000010C0CFA00FCC2F814C00AE091F803C036
:1007F000BCF1480F05D14FF0010C0CFA00FCC2F817
:1008000010C0401C0828D1D31460B1F800C0BCF15E
:10081000FF0F34DD546800202EE000F1080C4FF08B
:10082000010808FA0CF3B1F800C00CEA03069E4276
:1008300021D183004FF00F0C0CFA03F7BC4305FAEB
:1008400003FC4CEA040491F803C0BCF1280F05D165
:1008500000F1080C08FA0CF8C2F8148091F803C0F3
:10086000BCF1480F07D100F1080C4FF0010808FA5D
:100870000CF8C2F81080401C0828CED35460BDE8A4
:10088000F0814FF6FF710180022181700421C17057
:1008900070470246002093680B400BB1012000E036
:1008A000002070470146886880B2704702460020E9
:1008B000D3680B400BB1012000E0002070470146D7
:1008C000C86880B2704701617047416170470AB1E2
:1008D000016100E041617047C16070474FF48032B0
:1008E0000A4382618161826182698269704702463E
:1008F0000020434B18684FF68073184040EA0210FE
:1009000008433F4B186070473E49C8617047F0B5D7
:100910000A46002300240021002500F00046B6F11D
:10092000004F02D1364EF16901E0354E7168C0F3D7
:10093000034583B200F44016B6F5401F08D121F0FC
:1009400070612F4E766826F070662D4F7E6012E043
:1009500000F48016B6F5801F06D1032606FA05F4CA
:10096000A14341F0706106E0460D360103FA06F638
:10097000B14341F0706122B1460D360103FA06F62B
:10098000314300F00046B6F1004F02D11C4EF16138
:1009900001E01B4E7160F0BD30B500228B071C0FCB
:1009A0000F2303FA04F2164B08338C1053F824304B
:1009B0009343134C08348D1044F8253023468C1093
:1009C00053F824308C07240F00FA04F423430C4C12
:1009D00008348D1044F8253030BD0A49DC310860F8
:1009E0007047000000080140000C01400010014069
:1009F0000014014000180140001C0140002001408B
:100A00000000014000002042DF48006840F0010083
:100A1000DD49086008464068DC490840DA4948601A
:100A200008460068DA490840D74908600846006867
:100A300020F4802008600846406820F4FE004860EA
:100A40004FF41F0088607047CF49096821F4803156
:100A5000CD4A11601146096821F480211160B0F57A
:100A6000803F03D0B0F5802F0ED106E0C64909685B
:100A700041F48031C44A116007E0C349096841F478
:100A8000A021C14A116000E000BF00BF704710B54F
:100A900001460022002300204A11012A02D1BA4C4B
:100AA000236806E0022A02D1B74C236A01E0B64C63
:100AB000636A01F01F02012494401C400CB1012024
:100AC00000E0002010BD38B5002000900024002573
:100AD00000BF3120FFF7DBFF05460098401C009067
:100AE0000098B0F5A06F01D0002DF2D03120FFF7B3
:100AF000CEFF08B1012400E00024204638BD0146A5
:100B00000020A14A106820F0F80040EAC1001060FF
:100B10007047A04908607047024600209A4B586809
:100B200020F47C1042EA01031843974B5860704749
:100B300098490866704701460020934A506820F0A3
:100B400003000843506070478F48406800F00C0075
:100B50007047014600208C4A506820F0F00008439E
:100B60005060704701460020874A506820F4E060DA
:100B700008435060704701460020834A506820F4C3
:100B8000605040EAC1005060704729B17E4A527AF5
:100B900002437D4B5A7204E07B4A527A82437A4B7D
:100BA0005A7270477B49D83108607047014600206F
:100BB000754A506820F44040084350607047002157
:100BC000714A20321170704A82F82010012802D038
:100BD00004280AD104E001216B4A2032117005E09B
:100BE0000521694A2032117000E000BF00BF704744
:100BF0006949086070476449096A0143624A1162A1
:100C00007047654944390860704730B500210022BB
:100C1000002400235C4D6D6805F00C0121B104290E
:100C200005D0082923D105E05C4D056022E05B4D2D
:100C300005601FE0544D6D6805F47012524D6D68EB
:100C400005F48034022505EB92421CB9544D5543FE
:100C500005600BE04C4D6D6805F400351DB1504D3D
:100C60005543056002E04D4D5543056002E04B4D94
:100C7000056000BF00BF444D6D6805F0F001090933
:100C8000484D6B5C0568DD4045603F4D6D6805F47F
:100C9000E061090A434D6B5C4568DD4085603A4D73
:100CA0006D6805F46051C90A3E4D6B5C4568DD40D6
:100CB000C560354D6D6805F44041890B3A4D6B5C5C
:100CC000C568B5FBF3F5056130BD29B12E4A5269FF
:100CD00002432D4B5A6104E02B4A526982432A4B4E
:100CE0005A61704729B1284A92690243264B9A619A
:100CF00004E0254A92698243234B9A61704729B1E7
:100D0000214AD2690243204BDA6104E01E4AD269CB
:100D100082431D4BDA61704729B11B4AD2680243F6
:100D2000194BDA6004E0184AD2688243164BDA6045
:100D3000704729B1144A12690243134B1A6104E047
:100D4000114A12698243104B1A61704712494039A7
:100D5000086070470F49C86470470B49C8717047F5
:100D60000948406A40F08070074948627047014670
:100D70000020054A92680A400AB1012000E00020E4
:100D80007047014988727047001002400000FFF868
:100D9000FFFFF6FE000042428004424200127A0049
:100DA00000093D00140000202400002010B5044676
:100DB000FB48844209D101218803FFF7ADFF0021E0
:100DC0004FF48040FFF7A8FF32E0F648844209D193
:100DD00001214804FFF7ADFF00214FF40030FFF779
:100DE000A8FF25E0F048844209D101218804FFF7DB
:100DF000A0FF00214FF48020FFF79BFF18E0EB4895
:100E0000844209D10121C804FFF793FF00214FF468
:100E10000020FFF78EFF0BE0E548844208D1012156
:100E20000805FFF786FF00214FF48010FFF781FFD0
:100E300010BD2DE9F04786B005460E460024A246B7
:100E400000BFA1460027B08900B100BF2F462C8A01
:100E50004CF6FF700440F08804432C82AC894EF6B7
:100E6000F3100440B0883189084371890843044372
:100E7000AC81AC8A4FF6FF400440B0890443AC8299
:100E800001A8FFF7C2FEC648874202D1DDF810A0D4
:100E900001E0DDF80CA0A88900F4004040B10AEBA5
:100EA000CA0000EB0A1031684900B0FBF1F807E016
:100EB0000AEBCA0000EB0A1031688900B0FBF1F8B8
:100EC0006420B8FBF0F004012009642101FB1089C3
:100ED000A88900F4004040B1322000EBC900B0FB0B
:100EE000F1F000F00700044308E0322000EB0910A5
:100EF0006421B0FBF1F000F00F0004432C8106B038
:100F0000BDE8F0874FF41651016000218180C18057
:100F100001810C21418100218181704710B5024679
:100F20000020108A4FF2FF0318400B884C8823439F
:100F30008C882343CC8823431843108210BD0021A2
:100F4000018041808180C180704721B1828942F453
:100F50000052828104E082894DF6FF731A4082813B
:100F60007047F0B50346002400260025002040F617
:100F70006A17B94200D100BF1846C1F3421401F00C
:100F80001F06012707FA06F5012C01D10C3004E0F9
:100F9000022C01D1103000E014301AB107682F4341
:100FA000076002E00768AF430760F0BD1AB1838AAB
:100FB0000B43838202E0838A8B4383827047028AD9
:100FC0004FF6F0731A400282028A0A430282704787
:100FD00082894FF2FF731A40828182890A4382819B
:100FE000704721B1828942F00202828104E0828945
:100FF0004FF6FD731A4082817047028A4FF6DF7305
:101000001A400282028A0A430282704721B1028A90
:1010100042F48042028204E0028A4BF6FF731A40D7
:1010200002827047C1F308028280704701468888B7
:10103000C0F308007047818941F001018181704748
:10104000028BD2B20283028B42EA012202837047F2
:10105000028B02F47F420283028B0A4302837047B1
:1010600021B1828A42F02002828204E0828A4FF615
:10107000DF731A408282704721B1828A42F01002E7
:10108000828204E0828A4FF6EF731A4082827047B0
:1010900021B1828A42F00802828204E0828A4FF6FD
:1010A000F7731A408282704721B1828942F400426C
:1010B000828103E08289C2F30E028281704721B1EE
:1010C000828A42F40062828204E0828A4FF2FF73D5
:1010D0001A4082827047828A4FF6FB731A408282DE
:1010E000828A0A438282704721B1828A42F00202D8
:1010F000828204E0828A4FF6FD731A408282704732
:1011000002460020B1F5007F00D100BF13880B40DC
:101110000BB1012000E00020704701F40072B2F52D
:10112000007F00D100BFCA430280704770B50246FD
:10113000002400230025002040F66A16B14200D1A9
:1011400000BFC1F3421501F01F03012606FA03F3A5
:10115000012D02D19689334006E0022D02D1168A74
:10116000334001E0968A33400C12012606FA04F45B
:101170001688344013B10CB1012000E0002070BD8E
:1011800010B50022002340F66A14A14200D100BF2E
:101190000A1201249440A3B2DC43048010BD000075
:1011A000003801400044004000480040004C00402E
:1011B00000500040002044490860091D0860091DD6
:1011C0000860091D086041483F49143108607047B4
:1011D00000213D498279002A3AD00A461268036804
:1011E0009A430B461A600A1D126803689A430B1D46
:1011F0001A60027911440A6803681A430A60324A85
:101200000832126803689A432F4B08331A601A1D7C
:10121000126803689A432C4B0C331A604279102AE7
:101220000ED11A1F126803681A43274B08331A603D
:101230001A1D126803681A43234B0C331A600DE021
:101240002149427911440A6803681A430A6005E09B
:10125000027911440A6803689A430A6070470021C2
:10126000016001710C2141710021817170471649A3
:10127000103109680143144A103211607047014669
:101280000020114A143212680A400AB1012000E01D
:10129000002070470C491431086070470146002057
:1012A0000022094B1B6803EA0102074B14331B6839
:1012B0000B4013B10AB1012000E000207047024941
:1012C000143108607047000000040140FFFF0F0068
:1012D0004FF0E020006920F004004FF0E0210861A9
:1012E0000920364908700846007800EB4001C1EB40
:1012F000C0104FF6FF7101EAC00031490880704705
:10130000002120F07F402D4A127842434FF0E02325
:101310005A6100229A6101221A6100BF4FF0E02257
:10132000116901F001021AB101F48032002AF5D0EE
:1013300000224FF0E0231A619A617047002100B942
:10134000704720F07F401E4A128842434FF0E0234E
:101350005A6100229A6101221A6100BF4FF0E02217
:10136000116901F001021AB101F48032002AF5D0AE
:1013700000224FF0E0231A619A6100BFE0E770B5E8
:101380000446002600254FF4FA7094FBF0F0C6B234
:101390004FF4FA7094FBF0F100FB114085B205E0C8
:1013A0004FF4FA70FFF7CAFF701EC6B2002EF7D1D5
:1013B00015B12846FFF7C2FF70BD000028000020CD
:1013C0002A00002010B586B0044601210420FFF752
:1013D00089FC01218803FFF785FC18208DF8170090
:1013E0004FF40070ADF8140003208DF8160005A925
:1013F0006B48FFF7BBF904208DF817000002ADF829
:10140000140003208DF8160005A96548FFF7AEF912
:1014100001940020ADF810000C20ADF80E00002063
:10142000ADF80C00ADF80A00ADF8080001A95D4860
:10143000FFF7FFFC01215B48FFF787FD012240F227
:1014400025515848FFF78DFD25208DF8000001201B
:101450008DF8030000208DF8010002208DF80200B5
:101460006846FFF7BAF806B010BD10B586B004465E
:1014700001210420FFF736FC01214804FFF73FFC5F
:1014800018208DF817000420ADF8140003208DF803
:10149000160005A94248FFF769F904208DF81700E6
:1014A0000820ADF8140003208DF8160005A93C486B
:1014B000FFF75CF901940020ADF810000C20ADF8A6
:1014C0000E000020ADF80C00ADF80A00ADF80800E1
:1014D00001A93548FFF7ADFC01213348FFF735FD81
:1014E000012240F225513048FFF73BFD26208DF8C0
:1014F000000001208DF8030000208DF801008DF818
:1015000002006846FFF769F806B010BD2DE9F0410A
:1015100007460C46154600260DE014F8011B384618
:10152000FFF780FD00BF40213846FFF7E9FD0028A6
:10153000F9D0701C86B2AE42EFDBBDE8F0810FB48B
:1015400030B5CBB0054601AC50A800904FF4947173
:1015500001A8009B4F9A04F071FC002000900BE062
:1015600014F8011B2846FFF75DFD00BF4021284607
:10157000FFF7C6FD0028F9D020780028F0D14BB045
:1015800030BC5DF814FB10B540F225510548FFF75B
:10159000CDFD18B120210348FFF7BFFD10BD0000AD
:1015A00000080140003801400044004010B50446E6
:1015B00084F001024FF400510D48FFF788F90D48FF
:1015C000047010BD08B501211020FFF78BFB10201F
:1015D0008DF803004002ADF8000003208DF80200F2
:1015E00069460348FFF7C2F80020FFF7DFFF08BD98
:1015F000001001402C0000201FB501210420FFF73E
:1016000071FB01210846FFF76DFB48208DF80F00A4
:101610000220ADF80C0003208DF80E0003A91E482F
:10162000FFF7A4F801210020FFF7B6F9022001908E
:1016300000208DF808000C208DF8090001208DF89D
:101640000A0001A8FFF7C4FD07208DF80000022062
:101650008DF801008DF8020001208DF80300684626
:10166000FEF7BBFF1FBD10B50A20FFF767FE022182
:101670000948FFF70EF950B908480078012803D14E
:101680000020FFF793FF02E00120FFF78FFF022009
:10169000FFF715FE10BD0000000801402C000020DF
:1016A00010B56648006820F00F00644908600846DD
:1016B000006840F003000860002201215F48FFF746
:1016C00006F91420FFF73AFE012211465B48FFF7A6
:1016D000FEF81E20FFF714FE10BD10B50024574879
:1016E000006820F00F00554908600846006840F087
:1016F0000800086004E0601CC4B20120FFF700FE8F
:1017000001214E48FFF7C5F808B1642CF3DB642CC7
:1017100001DB012010BD002404E0601CC4B20120E4
:10172000FFF7EEFD01214548FFF7B3F808B9642C37
:10173000F3DB642C01DB0120ECE70020EAE710B5C5
:10174000002404E0601CC4B20120FFF7D9FD012190
:101750003A48FFF79EF808B1642CF3DB002404E05C
:10176000601CC4B20120FFF7CBFD01213348FFF715
:1017700090F808B9642CF3DB2820FFF7C1FD0121A4
:101780002E48FFF786F808B1012010BD0020FCE7C5
:1017900070B50024002506E06006040EFFF7CFFFB9
:1017A0000443681CC5B2082DF6DB204670BD7CB52D
:1017B00005460E46FFF774FFFFF78FFFF8B90024C8
:1017C00005E0FFF7E5FF0DF80400601CC4B2052C2E
:1017D000F7DB9DF800009DF8011008449DF8021009
:1017E00008449DF8031008449DF80410884208D16D
:1017F0009DF8000030709DF80200287001E0012083
:101800007CBD0020FCE708B501210420FFF76AFA3F
:101810000120ADF8000010208DF8030003208DF8A2
:10182000020069460548FEF7A1FF01210348FFF7C2
:101830004AF8FFF735FFFFF750FF08BD00080140E9
:1018400008B56648027866A1684604F011FB1023CB
:101850006A460021362004F071F96248027860A1DE
:10186000684604F005FB10236A460321362004F085
:1018700065F95D48007828B108220621362004F079
:101880007AF904E009220621362004F074F908BD33
:1018900010B504F0E3F904F077F8012200210846BE
:1018A00004F069F902220021122004F064F90022F8
:1018B0001146242004F05FF903220021482004F09F
:1018C0005AF904220321002004F055F905220321CE
:1018D000122004F050F900220321242004F04BF9D7
:1018E000102342A20321482004F028F906221146C1
:1018F000002004F040F907220621122004F03BF9F1
:1019000000220621242004F036F910BD10B54FF452
:10191000A060FEF75DFEFFF7DBFC4FF4E130FFF760
:1019200051FD4FF4E130FFF7A0FDFFF765FEFFF733
:1019300049FE07E02EA13248FFF701FE4FF47A700E
:10194000FFF71DFDFFF75FFF0028F3D1FFF7A0FFB2
:101950002CA12B48FFF7F3FD10BD00250024FFF755
:10196000D5FF02F015F92CA12548FFF7E8FD03E0AB
:101970004FF4FA70FFF7E2FC2EA130A002F0A9F8B4
:101980000028F5D139A11E48FFF7D9FD03E04FF437
:10199000FA70FFF7D3FC00F0EEF90028F7D100F061
:1019A0009EFC1AE0681C80B20546642808DB0D49DD
:1019B0000A48FFF7FCFE00F02DFC002502F06AF853
:1019C000002002F0C3F8044614B1204600F0B2FC37
:1019D000FFF736FF0A20FFF7D2FCE3E72D000020D7
:1019E000253264002E0000202C000020250000007D
:1019F0004448543131204572726F72200D0A000044
:101A00000038014020486172647761726520696E18
:101A10006974204F4B0D0A00436F6E6E656374202E
:101A20004D51545473205365727665722E2E2E0DCF
:101A30000A000000434F4E4E4543540041542B438F
:101A4000495053544152543D22544350222C226D4C
:101A5000717474732E6865636C6F7564732E636F35
:101A60006D222C313838330D0A000000436F6E6E42
:101A7000656374204D51545420536572766572200D
:101A8000537563636573730D0A000000F0B58BB086
:101A9000054600260024284604F03CFDC7B20DB1DF
:101AA0001C2F02DA01200BB0F0BD06E0A85D01A9F1
:101AB00088550020A855701CC6B2BE42F6DB002037
:101AC00001A988550026002455E001A8805D2B2837
:101AD00010D008DC202814D023282ED0252825D08B
:101AE00026283FD130E02F2812D03D2833D03F2880
:101AF00038D114E02819FEA104F076FDE01CC4B230
:101B000036E02819FBA104F06FFDE01CC4B22FE001
:101B10002819F9A104F068FDE01CC4B228E02819D6
:101B2000F6A104F061FDE01CC4B221E02819F4A183
:101B300004F05AFDE01CC4B21AE02819F1A104F027
:101B400053FDE01CC4B213E02819EFA104F04CFDD2
:101B5000E01CC4B20CE02819ECA104F045FDE01C27
:101B6000C4B205E001A8805D2855601CC4B200BF66
:101B700000BF701CC6B2BE42A7DB0020285500BFC4
:101B800091E72DE9F04FC9B005460C4616461F46B1
:101B90000DF5A47898E8000F0020489055B14CB19D
:101BA000DB48864206D32FB1B9F1000F02D0BAF15B
:101BB000780F03DA012049B0BDE8F08F402118A862
:101BC00004F0B7FD384604F0A5FC05903B4648AA52
:101BD0004021009018A800F0A1FF482106A804F0B9
:101BE000A8FDBBF1000F09D0CAA03346CBA2482103
:101BF0008DE8310006A804F051F909E0C5A033468C
:101C0000CCA248218DE81101039506A804F046F9FD
:101C1000402128A804F08DFD06A804F07BFC059067
:101C200018A804F077FC049028A8009006AA18A829
:101C3000DDE9041300F02CFE00204890402138A874
:101C400004F077FD28A804F065FC059028AB48AAAD
:101C50004021009038A800F0C1FE38A8FFF716FF19
:101C6000BBF1000F0CD038A8AAA12B46B9A2CDE930
:101C70000046CDE902105146484604F00FF90CE049
:101C800038A8A4A12B46C14ACDE901860094CDE92C
:101C900003105146484604F001F900208BE72DE976
:101CA000F041ACB001270D250026002405F1F0001D
:101CB00004F060F806461EB938462CB0BDE8F08145
:101CC00003E04FF4FA70FFF739FBB1A1B2A001F0C5
:101CD00000FF0028F5D10120902108AA0023CDE9BA
:101CE0000032CDE90210B6A3C14AC2A1C4A0FFF7D9
:101CF00048FFC6A10D20CDE9000105F1F00108ABB8
:101D0000C34A304604F0CAF8304604F003FC1FFA18
:101D100080F84146304601F002FFFA2001F016FF3C
:101D2000044624B1BBA1204604F0BEFB0446CCB15E
:101D300000200390BA4803A904ABBA4ACDE90010C9
:101D4000B949204604F060FA04280AD1B44803993E
:101D500004ABB44ACDE90010B4A1BC48FFF7EFFBD7
:101D6000002700BF304604F034F8B9A1B9A001F053
:101D7000B0FE3846A1E730B5B3B000202F903090C8
:101D8000319032900125A02107AAA0A3CDE900320D
:101D9000CDE902108AA3964A96A199A0FFF7F1FE19
:101DA00007A894A399A2AFA10090A848FFF7C7FB8A
:101DB0002FA8002102910391CDE9041008460121CA
:101DC0000B0292A2CDE9001007A98AA001F007F842
:101DD000002842D1309A91B22F9801F0A0FEFA204B
:101DE00001F0B4FE0446002C33D0204600F0C2FFC0
:101DF00002282ED1204601F057F9062823D2DFE829
:101E000000F003090E13181DA2A19048FFF797FBDD
:101E100000251DE0A4A18D48FFF791FB18E0A9A1C2
:101E20008A48FFF78CFB13E0AFA18848FFF787FBD8
:101E30000EE0B5A18548FFF782FB09E0BBA183480E
:101E4000FFF77DFB04E0C4A18048FFF778FB00BFEB
:101E500000BF2FA800F046FF03E0C6A17B48FFF7B4
:101E60006EFB284633B030BD10B58CB0044630212F
:101E7000684604F05EFCC8A1204604F027FB302130
:101E8000684604F056FCCA480278CAA1684603F0C6
:101E9000EFFF6946204604F0A7FB3021684604F0B6
:101EA00048FCCA480278CAA1684603F0E1FF6946C7
:101EB000204604F099FB3021684604F03AFCCA48F9
:101EC000007808B1C9A000E0CAA00246CBA16846CC
:101ED00003F0CEFF6946204604F086FBCCA12046E5
:101EE00004F082FB204604F015FBC0B20CB010BD1C
:101EF0002532420025323000253246002533460087
:101F00002532350025323300253236002533440092
:101F10009554415D736861310000000025640A2515
:101F2000730A70726F64756374732F25730A257357
:101F30000000000025640A25730A70726F647563DF
:101F400074732F25732F646576696365732F25730A
:101F50000A25730076657273696F6E3D257326726C
:101F600065733D70726F6475637473252532462501
:101F7000732665743D2564266D6574686F643D2520
:101F800073267369676E3D257300000010A4000876
:101F9000434F4E4E4543540041542B4349505354F4
:101FA0004152543D22544350222C223138332E3298
:101FB00033302E34302E3333222C38300D0A0000CB
:101FC000626E706C5A6E466D564664534E544A6A41
:101FD0004F545A4B566B493155486C61596E56787F
:101FE000516A4A4A6554464755334D3D000000004A
:101FF00000CF9D7444514179363032493751000049
:10200000323031382D31302D333100006431000051
:1020100058A400086465766963655F696400000020
:10202000D4020020C4020020C4A3000863726561CA
:102030007465206465766963653A2025732C2025D4
:10204000732C2025642C2025730D0A0000380140D4
:102050004F4B000041542B434950434C4F53450DC7
:102060000A0000004F6E654E45545F4465764C692A
:102070006E6B0D0A4E414D453A2025732C09505286
:102080004F49443A2025732C094B45593A25730D85
:102090000A000000546970733A09C1ACBDD3B3C9DA
:1020A000B9A60D0A000000005741524E3A09C1ACD2
:1020B000BDD3CAA7B0DCA3BAD0ADD2E9B4EDCEF39C
:1020C0000D0A00005741524E3A09C1ACBDD3CAA710
:1020D000B0DCA3BAB7C7B7A8B5C4636C69656E7442
:1020E00069640D0A000000005741524E3A09C1AC24
:1020F000BDD3CAA7B0DCA3BAB7FECEF1C6F7CAA754
:10210000B0DC0D0A000000005741524E3A09C1AC44
:10211000BDD3CAA7B0DCA3BAD3C3BBA7C3FBBBF272
:10212000C3DCC2EBB4EDCEF30D0A00005741524EB2
:102130003A09C1ACBDD3CAA7B0DCA3BAB7C7B7A828
:10214000C1B4BDD328B1C8C8E7746F6B656EB7C79B
:10215000B7A8290D0A0000004552523A09C1ACBD8A
:10216000D3CAA7B0DCA3BACEB4D6AAB4EDCEF30DD1
:102170000A0000005741524E3A094D5154545F50E5
:1021800061636B6574436F6E6E656374204661694D
:102190006C65640D0A0000007B226964223A2231DA
:1021A0003233222C22706172616D73223A7B0000FF
:1021B0002D0000202274656D70223A7B2276616CBE
:1021C0007565223A25647D2C000000002E00002059
:1021D0002268756D69223A7B2276616C7565223AB8
:1021E00025647D2C000000002C00002074727565B1
:1021F0000000000066616C7365000000226C65647D
:10220000223A7B2276616C7565223A25737D000047
:102210007D7D000030B5C5B00020419042904390D4
:102220004490002400254FF4807101A804F081FA45
:1022300001A8FFF719FE0446002C23D041A8002373
:102240002246AFF238210090AFF2582001F01DF87D
:10225000A0B908E001A8415D429A501C4290419803
:102260008154681C05B2A542F4DB429A91B24198B0
:1022700001F055FC41A800F035FD03E06DA1754863
:10228000FFF75DF945B030BD70B588B005460C4626
:102290000020049005900690079023462A466EA1E0
:1022A0006C48FFF74CF9204604F034F9064604A8C0
:1022B0000121002200923346CDE9012103902246FC
:1022C00029460A2000F0FFFE38B9059A91B2049819
:1022D00001F025FC04A800F005FD08B070BD00B5B4
:1022E00095B00020119012901390149003A80290C2
:1022F000AFF2E820AFF204335FA23821009003A8C8
:1023000003F0CCFD03AA64A15248FFF718F911A805
:10231000012302AA00210090142001F0C0F838B96E
:10232000129A91B2119801F0FAFB11A800F0DAFCB0
:1023300015B000BD2DE9F04F89B007460020089088
:10234000079006900590049000250026804681465F
:10235000384600F00FFD0546032D04D0042D3BD078
:10236000092D50D141E0524804A905AA08ABCDE996
:102370000021029006AA07A9384601F0C8F90646CE
:10238000002E28D18246BDF814000899CDE900102E
:10239000BDF8183047A12F48079AFFF7D0F80898E2
:1023A00002F024FB834652A1584602F025FF039019
:1023B00051A1039802F020FF044644B1E0680128CF
:1023C00002D1FFF7F3F802E00020FFF7EFF85846DC
:1023D00001F00AFD00BF00BF384601F098FA18B9B5
:1023E00046A11C48FFF7ABF810E0384601F0D6F8DC
:1023F00020B94AA11748FFF7A2F803E04EA11548FB
:10240000FFF79DF802E04FF0FF3600BF00BF01F07C
:1024100041FB701C10B909B0BDE8F08F0F2D01D041
:10242000032D05D1079803F0D4FC089803F0D1FCE4
:1024300000BFF0E75741524E3A094544505F4E65A0
:1024400077427566666572204661696C65640D0A3F
:1024500000000000003801405075626C697368200C
:10246000546F7069633A2025732C204D73673A20AE
:1024700025730D0A00000000247379732F25732F34
:1024800025732F7468696E672F70726F7065727430
:10249000792F73657400000053756273637269620B
:1024A0006520546F7069633A2025730D0A0000009F
:1024B00030000020746F7069633A2025732C2074FB
:1024C0006F7069635F6C656E3A2025642C207061C3
:1024D000796C6F61643A2025732C207061796C6F80
:1024E00061645F6C656E3A2025640D0A000000008F
:1024F000706172616D7300006C6564005469707383
:102500003A094D515454205075626C6973682053D8
:10251000656E64204F4B0D0A000000005469707313
:102520003A094D5154542053756273637269626560
:10253000204F4B0D0A000000546970733A094D5149
:1025400054542053756273637269626520457272D8
:102550000D0A0000F0B50446142C06DA01EA020563
:1025600023EA010685EA060019E0282C04DA81EA4C
:10257000020787EA030012E03C2C0ADA01EA0205AE
:1025800001EA030787EA050602EA030787EA06006D
:1025900005E0502C03DA81EA020787EA0300F0BD68
:1025A0000146142901DAF7480AE0282901DAF64839
:1025B00006E03C2901DAF54802E0502900DAF44847
:1025C0007047F0B5024601209040441EE54301EA01
:1025D000050020FA02F601EA0400C2F1200C00FA1C
:1025E0000CF746EA07031846F0BDF0B50246C2F103
:1025F000200C012000FA0CF0441EE54301EA04001F
:1026000000FA02F601EA0500C2F1200C20FA0CF7EC
:1026100046EA07031846F0BD2DE9F04FDDB0074646
:102620008A4615460AF1080909F101094FEACA006C
:102630005B9048464FEAE97109EB91618E1148467B
:102640004FEAE97109EB91618911A9EB81115C9164
:102650005C98002800DD761C5C98C0F14000814445
:10266000D04604E0002007F8080008F10108B8EBA4
:10267000861FF7DB802007F80A000121C1EB8611D5
:102680005B9878545B98C0F307200221C1EB861158
:1026900078545B98C0F307400321C1EB861178544E
:1026A0005B98000E0421C1EB86117854B94856900E
:1026B000B9485790B748C0435890B748C04359905D
:1026C000B6485A904FF00008A5E0002452E0102CC4
:1026D00032D24FEA881000EB8400385C000601A972
:1026E00041F824004FEA881000EB8400401C385C5D
:1026F00051F824104FF4803202FB001001A941F878
:1027000024004FEA881000EB8400801C385C51F8EC
:102710002410121202FB001001A941F824004FEA14
:10272000881000EB8400C01C385C51F82410084469
:1027300001A941F824001CE0502C1AD2E01E01AA85
:1027400052F82000A4F1080201AB53F822205040B7
:10275000A4F10E0253F822205040A4F1100253F8C5
:10276000222080EA02010120FFF73FFF01A941F882
:102770002400641C502CAAD3569855905798549016
:1027800058985390599852905A98519000242AE0A2
:1027900005205599FFF729FF83462046529B539AFF
:1027A0005499FFF7D7FE5844009051990098084477
:1027B00000902046FFF7F4FE00990844009001A81D
:1027C00050F8241000980844009052985190539863
:1027D00052901E205499FFF708FF5390559854903B
:1027E00000985590641C502CD2D3569955980844A3
:1027F00056905799549808445790589953980844BC
:10280000589059995298084459905A9951980844A7
:102810005A9008F10108B045FFF657AF5698E87096
:102820005698000AA8705698000C68705698000ECA
:1028300028705798E8715798000AA8715798000CAB
:1028400068715798000E28715898E8725898000AD5
:10285000A8725898000C68725898000E28725998FF
:10286000E8735998000AA8735998000C687359982E
:10287000000E28735A98E8745A98000AA8745A9857
:10288000000C68745A98000E28745DB0BDE8F08F93
:102890002DE9F04FADF5B36D07460E4692469846CA
:1028A000DDF8BC9540254FF0360B5C20CDF8940543
:1028B000002404E000200DF254510855641C402C03
:1028C000F8DBAE421DD0AE420FDD4A4631463846F7
:1028D000FFF7A2FE002405E019F804000DF25451A0
:1028E0000855641C142CF7DB14E0AE4212DA002405
:1028F00004E0385D0DF254510855641CB442F8DB15
:1029000008E0002404E0385D0DF254510855641CC1
:10291000AC42F8DB002408E00DF25450005D80EA80
:102920000B000DF214510855641C402CF4DB0024FC
:1029300005E00DF21450005D15A90855641C402CEB
:10294000F7DB002406E01AF8041015AA04F1400091
:102950001154641C4445F6DB08EB05014A4615A8F2
:10296000FFF75AFE002409E00DF25450005DDDF837
:10297000941548400DF2D4410855641C402CF3DBFB
:10298000002413E09979825AA1EBD96EDCBC1B8F2D
:10299000D6C162CA0123456789ABCDEFF0E1D2C34E
:1029A0000DF2D440005D0DF80400641C402CF7DBF0
:1029B000002406E019F8041004F140000DF800109E
:1029C000641C142CF6DB4A4605F114016846FFF737
:1029D00023FE0DF5B36DBDE8F08F00002DE9F04F3B
:1029E00007468946099C00250026AC46A846AA460B
:1029F00000211CB900201060BDE8F08F0320B4FB5B
:102A0000F0F04FF0030BB4FBFBFE0BFB1E4BBBF1D6
:102A1000000F02D04FF0010B01E04FF0000B00EB74
:102A20000B06B6F1804F05D34FF0FF3010606FF00A
:102A30002900E1E7B600701C814500D327B9701C5E
:102A400010606FF02900D7E70320B4FBF0F000EB33
:102A500040060025394629E013F801CB13F8018B15
:102A600013F801AB87484FEA9C0B10F80B0001F8F4
:102A7000010B4FEA0C1000EB281000F03F00DFF8CC
:102A800004B21BF8000001F8010B4FEA880000EBCC
:102A9000AA1000F03F001BF8000001F8010B0AF03B
:102AA0003F001BF8000001F8010BED1CB542D3D329
:102AB000A5422DD213F801CB681CA04202D213F814
:102AC000010B00E0002080466E48CCF3850B10F827
:102AD0000B0001F8010B4FEA0C1000EB281000F07E
:102AE0003F00DFF8A0B11BF8000001F8010B681CE3
:102AF000A04207D23F2000EA88001BF8000001F83E
:102B0000010B02E03D2001F8010B3D2001F8010B13
:102B1000C81B10600020087000BF6DE72DE9F0476A
:102B2000074689469046DDF820C000210022002497
:102B300000260025002004460246014645E0002606
:102B400001E0491C761C614502D2585C2028F8D06F
:102B5000614500D13BE0ACEB0100022807D3585C93
:102B60000D2804D1481C185C0A2800D12CE0585CC0
:102B70000A2800D128E01EB16FF02B00BDE8F087D5
:102B8000585C3D2806D1601C0446022802D96FF02B
:102B90002B00F3E7585C7F2806DC585CDFF8E8A0E0
:102BA0001AF800007F2802D16FF02B00E6E7585C8E
:102BB000DFF8D4A01AF80000402803DA14B16FF04F
:102BC0002B00DBE7521C00BF491C6145B7D300BF97
:102BD0001AB90020C8F80000D0E7D00800EB400088
:102BE0004FEA400A02F0070000EB40004000C01D21
:102BF0000AEBD002121B0FB1914504D2C8F8002095
:102C00006FF02900BAE703240020064602463D463D
:102C100031E018780D2805D018780A2802D01878E5
:102C2000202800D125E01878DFF85CA01AF8000011
:102C3000402801D1012000E00020241A1878DFF894
:102C400048A01AF8000066F39F100646501C024682
:102C500004280DD1002214B1300C05F8010B012C11
:102C600002D9300A05F8010B022C01D905F8016BD5
:102C700000BF491E5B1C0029CBD1E81BC8F800002F
:102C800000207BE77E990008BE99000870B50446D5
:102C90000E460025206898B901202073304603F0C5
:102CA00069F820602068E0B100206060A66003E061
:102CB0000020216848556D1CA068A842F8D810E093
:102CC0000220207303E00020216848556D1CA06895
:102CD000A842F8D800206060A068B04201D200206D
:102CE000206070BD10B50446207B012802D1206809
:102CF00003F06FF8002020606060A060207310BDBA
:102D00000246002301230DE002F07F000870D20983
:102D10002AB1087840F080000870491C01E018468C
:102D200070475B1C042BEFDD4FF0FF30F8E7F0B588
:102D300004460D462646012300201060002114E0C1
:102D4000775C07F07F07106807FB03001060705C7A
:102D500000F0800008B9481CF0BDDB01B3F5001F8E
:102D600002D36FF00100F7E7491CA942E8DB4FF0FE
:102D7000FF30F1E7F8B50446FF2720780511012D53
:102D800001DB0E2D01DD3846F8BD032D24D10020D6
:102D900000906A460421601CFFF7C9FF2044461CCE
:102DA0000098022803D3207800F0010008B1FF202A
:102DB000EAE77078317840EA0120801C0099884267
:102DC00001D9FF20E0E7F8A1B01C03F06DFB08B1CA
:102DD0000F2700E0032700E02F463846D4E72DE90F
:102DE000FF4F83B082468B469146159C00250020FC
:102DF00002900F270190484603F08CFB0FFA80F8F1
:102E0000B9F1000F03D1012007B0BDE8F08F08F140
:102E10000200384487B2109808B145F002051298B4
:102E200078B145F00405129803F074FBC0B202902B
:102E3000139803F06FFB01460298001D08443844C4
:102E400087B2119820B1012804D0022808D104E0EB
:102E500000BF07E045F00C0504E045F0140501E073
:102E60000220D1E700BF149808B145F02405BAF15B
:102E7000000F02D0BBF1000F01D10320C4E745F0E1
:102E8000C005504603F046FB0646584603F042FB99
:102E90003044001D384487B239462046FFF7F6FE1D
:102EA000206808B90420AFE73946206803F01FFC0A
:102EB00010216268501C606020688154D4E90023AE
:102EC000D118781FFFF71CFF00B20190019800286D
:102ED00004DA2046FFF706FF052095E761680198B0
:102EE0000844606000216268501C60602068815462
:102EF00004216268501C6060206881544D21626822
:102F0000501C60602068815451216268501C6060D0
:102F10002068815454216268501C6060206881548C
:102F20006268501C60602068815404216268501CF3
:102F30006060206881546168481C60602068455466
:102F40000698010A6268501C6060206881540698E7
:102F5000C1B26268501C606020688154C8F30721C8
:102F60006268501C6060206881546268501C606018
:102F7000206800F80280D4E90012881842464946C9
:102F800003F080FA60684044606005F00400B8B364
:102F90000026139808B986A01390129803F0BAFA85
:102FA00086B2310A6268501C606020688154626891
:102FB000501C606020688654D4E90012881832469C
:102FC000129903F05FFA606830446060139803F070
:102FD000A1FA86B2310A6268501C60602068815490
:102FE0006268501C606020688654D4E9001288181A
:102FF0003246139903F046FA60683044606000BFBF
:1030000005F08000C8B1504603F084FA86B2310A58
:103010006268501C6060206881546268501C606067
:1030200020688654D4E9001288183246514603F0CD
:1030300029FA60683044606000BF05F04000C8B104
:10304000584603F067FA86B2310A6268501C606025
:10305000206881546268501C606020688654D4E9FE
:10306000001288183246594603F00CFA6068304462
:10307000606000BF0020C7E610B50446022120466C
:10308000FFF704FE206808B9012010BDE021626846
:10309000501C60602068815400216268501C606090
:1030A000206881540020F0E701464878022801D0CA
:1030B00001207047887810B18878012801D1C8783C
:1030C000F7E7FF20F5E72DE9FF4F83B0834617466A
:1030D0009946139C0025002600200290019080460E
:1030E000BBF1000F03D1012007B0BDE8F08F00262F
:1030F0000AE00498805D232803D00498805D2B2883
:1031000001D10220F0E7761C0498805D0028F0D100
:1031100048F03008119808B148F0010806EB0900A2
:10312000851C109820B1012804D002280AD105E09E
:1031300000BF09E048F00208AD1C05E048F00408B3
:10314000AD1C01E00320CFE700BF67B33878022849
:1031500021D14FF0000A00BF50460AF1010A385C45
:103160007D28F9D1AAF1030A0AF10700029002981A
:10317000A9EB000AE81CA0EB0A012046FFF786FD38
:10318000206808B90420AFE7EA1CA2EB0A01206816
:1031900003F0ADFA1FE0691D2046FFF777FD2068B8
:1031A00040B90420A0E70AE02463726571000000C2
:1031B00000000000691D206803F099FA0BE0691D0A
:1031C0002046FFF763FD206808B904208CE7691DDD
:1031D000206803F08CFA6168481C6060206800F881
:1031E0000180D4E9000281182846FFF789FD01908B
:1031F0000198002804DA2046FFF774FD052073E7E4
:103200006168019808446060C6F307216268501C39
:103210006060206881546268501C60602068865439
:10322000D4E9001288183246049903F02BF960683B
:1032300030446060109860B14FEA1B216268501CF6
:103240006060206881546268501C6060206800F8EB
:1032500002B0C7B1387802280BD1D4E9001288181F
:103260003946029A03F0CCF961680298084460601C
:1032700009E0D4E9001288184A46394603F0C0F93B
:1032800060684844606000202EE72DE9F04190B06E
:1032900004460D4616469846169F2346F7A230214F
:1032A00004A8009502F0FAFD01200021CDE90001FB
:1032B00033460A4604A9CDE902070A20FFF703FFB7
:1032C00018B1012010B0BDE8F0810020FAE72DE927
:1032D000F04F85B080460D469146012004900027AE
:1032E000002600244FF0000A404603F013F900F1D5
:1032F0000D0B584602F03EFD07461FB9049805B075
:10330000BDE8F08F4246E5A1384602F0B1FD3846EF
:1033100003F000F9C6B2F01D00EB050AAAEB0500A8
:1033200002F028FD044624B9384602F052FD049804
:10333000E5E70220207000206070A6703246394612
:10334000E01C03F05DF9290EF01C2154C5F3074180
:10335000301D2154C5F30721701D2154B01D255483
:1033600001200021CDE9000153462246CFA1CDE93D
:1033700002090A20FFF7A7FE08B90020049038468A
:1033800002F027FD204602F024FD0498B7E72DE95E
:10339000F84380460C4615461E462F2108F10600CC
:1033A00003F066F807460020009017B90120BDE839
:1033B000F8837F1C6A46042108F10100FFF7B7FC7F
:1033C000252002F0D7FC2060206808B90220EEE733
:1033D0002521206803F08BF924223946206803F068
:1033E0000FF9243700982C3830803188481C02F0BF
:1033F000C1FC2860286820B9206802F0EAFC03209C
:10340000D5E73288511C286803F071F932883946B3
:10341000286803F0F5F80020C9E72DE9FF5F0746AB
:103420000D469046384603F075F886B2284603F0FC
:1034300071F81FFA80FA4FF00009F01D02F09AFCB3
:1034400004461CB9012004B0BDE8F09FF11D2046E0
:1034500003F04DF996A0016821608088A080324673
:103460003946204603F00EF8284603F053F8834609
:103470000120002100915B462A46CDE90208019116
:1034800021460A20FFF71FFE10B94FF0000901E0A6
:103490004FF00109204602F09CFC4846D3E72DE995
:1034A000FF5F8046174699460E9C0026B246B346FB
:1034B0000025B8F1000F03D1012004B0BDE8F09F52
:1034C0000BE057F8250008B90220F6E757F8250069
:1034D00003F020F80644681CC5B24D45F1DB09EB4A
:1034E0004900801C00EB060A0AF105012046FFF79F
:1034F000CDFB206808B90320DFE782216268501CF9
:10350000606020688154D4E9000281185046FFF7BA
:10351000F7FB0FFA80FBBBF1000F04DA2046FFF740
:10352000E1FB0420C9E76068584460604FEA182155
:103530006268501C6060206881546268501C606042
:10354000206800F80280002524E057F8250002F0EA
:10355000E1FF0646C6F307216268501C60602068E0
:1035600081546268501C606020688654D4E900234E
:10357000D01857F82510324602F084FF60683044B6
:1035800060600198C1B26268501C6060206881541C
:10359000681CC5B24D45D8DB00208EE70146FF20F0
:1035A0008A78A2B9CA78142A11D10A7932B1012ACB
:1035B00005D0022A04D0802A06D103E000BF00BF54
:1035C000002003E0012001E0022000BF00BF70479F
:1035D0002DE9F05F80460F4691461C460026B24614
:1035E000B3460025B8F1000F02D10120BDE8F09FDD
:1035F0000BE057F8250008B90220F7E757F8250037
:1036000002F088FF0644681CC5B24D45F1DB02207C
:1036100000EB490000EB060A0AF105012046FFF71E
:1036200035FB206808B90320E0E7A2216268501C3E
:10363000606020688154D4E9000281185046FFF789
:103640005FFB0FFA80FBBBF1000F04DA2046FFF7A7
:1036500049FB0420CAE76068584460604FEA1821BB
:103660006268501C6060206881546268501C606011
:10367000206800F8028000253CE000002473797384
:103680002F25732F25732F7468696E672F70726FE3
:1036900070657274792F706F737400007B2264738D
:1036A0005F6964223A222573227D00002464700041
:1036B00024637273702F000057F8250002F02AFF70
:1036C0000646C6F307216268501C6060206881547A
:1036D0006268501C606020688654D4E90023D018CA
:1036E00057F82510324602F0CDFE60683044606025
:1036F000681CC5B24D45DFDB002077E7014601209D
:103700008A781AB9CA781E2A00D1002070472DE99C
:10371000FC5F81460D4614461E46DDE90C8B99F888
:10372000000000F00F0A002001900AF0080000904D
:10373000CAF341008BF8000001AA042109F101003D
:10374000FFF7F5FA4844471C0198022802D30AF013
:10375000010010B1FF20BDE8FC9F7878397840EA7D
:10376000012020802088801C0199884201D9FF20F7
:10377000F1E7AFF2CC51B81C02F096FE08B10F2071
:10378000E9E79BF8000020B101283DD0022877D15D
:103790003BE0009808B1FF20DDE72188481C02F0DB
:1037A000E9FA2860286808B9FF20D4E72288511C6C
:1037B000286802F09CFF2288B91C286802F020FFCC
:1037C0000198801E2188401AA8F80000B8F800105F
:1037D000481C02F0CFFA3060306820B9286802F047
:1037E000F8FAFF20B7E7B8F80020511C306802F063
:1037F0007EFFB8F80020B4F800C0BB1C0CEB03013E
:10380000306802F0FDFE4FE000BF2088801C019967
:10381000884201D9FF209EE72088C01C395C20889F
:10382000801C385C41EA00210E9801800E9808B98E
:10383000FF2090E72188481C02F09CFA2860286845
:1038400008B9FF2087E72288511C286802F04FFF43
:103850002288B91C286802F0D3FE0198001F218835
:10386000401AA8F80000B8F80010481C02F082FACC
:103870003060306828B9286802F0ABFAFF206AE7A8
:1038800010E0B8F80020511C306802F030FFB8F8A2
:103890000020B4F800C03B1D0CEB0301306802F0BF
:1038A000AFFE01E0FF2056E700BF2B21284602F0C3
:1038B000DFFD20B92321284602F0DAFD08B1FF2000
:1038C00049E7002047E770B505460C46042120462D
:1038D000FFF7DCF9206808B9012070BD402162685B
:1038E000501C60602068815402216268501C606036
:1038F0002068815429126268501C606020688154DD
:103900006268501C6060206885540020E5E701462D
:103910004878022801D001207047887820B9C878FB
:103920000A2801D10020F7E70120F5E770B5054628
:103930000C4604212046FFF7A9F9206808B90120A8
:1039400070BD50216268501C606020688154022163
:103950006268501C60602068815429126268501CA3
:103960006060206881546268501C606020688554E3
:103970000020E5E701464878022801D00120704781
:10398000887820B9C8780A2801D10020F7E70120FB
:10399000F5E770B505460C4604212046FFF776F999
:1039A000206808B9012070BD62216268501C606007
:1039B0002068815402216268501C60602068815434
:1039C00029126268501C6060206881546268501C33
:1039D0006060206885540020E5E7024650780228A0
:1039E00001D0012070479078B0EB112F05D1D0782D
:1039F000CBB2984201D10020F4E70120F2E770B584
:103A000005460C4604212046FFF740F9206808B916
:103A1000012070BD70216268501C60602068815474
:103A200002216268501C606020688154291262681B
:103A3000501C6060206881546268501C606020687F
:103A400085540020E5E701464878022801D001208E
:103A50007047887820B9C8780A2801D10020F7E794
:103A60000120F5E710B5044602212046FFF70EF9C4
:103A7000206808B9012010BDC0216268501C606038
:103A80002068815400216268501C60602068815465
:103A90000020F0E710B54FF400716F4802F027FEE8
:103AA00000206E49088010BD6C48008808B90120CC
:103AB00070476A4800886A490988884203D1002013
:103AC00066490880F4E76548008865490880012058
:103AD000EEE72DE9F04104460D46C826204602F0E7
:103AE00019FD87B23A4621465E48FDF70FFD0FE00B
:103AF000FFF7DAFF48B92946574802F0D5FC20B154
:103B0000FFF7C8FF0020BDE8F0810A20FDF716FC92
:103B1000301EA6F10101CEB2EAD10120F3E730B5A3
:103B200089B004460D46FFF7B5FF2A464EA101A80D
:103B300002F09EF950A101A8FFF7CBFF20B92A4659
:103B400021464848FDF7E2FC09B030BD70B5054696
:103B5000002400BFFFF7A8FF80B948A13E4802F04B
:103B6000A3FC044654B13A21204602F081FC0446ED
:103B700014B1641C204670BD0020FCE70520FDF751
:103B8000DDFB281EA5F101018DB2E3D100BFF2E7F4
:103B900010B5FFF77FFF3BA13C48FDF7D0FC03E0E9
:103BA0004FF4FA70FDF7CAFB39A13AA0FFF791FF75
:103BB0000028F5D139A13548FDF7C1FC03E04FF4E9
:103BC000FA70FDF7BBFB32A137A0FFF782FF002898
:103BD000F5D139A12D48FDF7B2FC03E04FF4FA709E
:103BE000FDF7ACFB2AA138A0FFF773FF0028F5D141
:103BF00039A12648FDF7A3FC03E04FF4FA70FDF766
:103C00009DFB38A139A0FFF764FF0028F5D13FA143
:103C10001E48FDF794FC10BD10B540F22551114827
:103C2000FDF784FAB8B10D480088B0F5007F02D3E3
:103C300000200A4908800B48001D0088C1B20748CF
:103C400002880088401C054B1880034881542021BD
:103C50000448FDF762FA10BD040300203200002082
:103C6000340000200044004041542B434950534548
:103C70004E443D25640D0A003E0000004950442C8E
:103C800000000000312E2041540D0A000038014090
:103C90004F4B000041540D0A00000000322E20431B
:103CA000574D4F44450D0A0041542B43574D4F4447
:103CB000453D310D0A000000332E2041542B43575F
:103CC000444843500D0A000041542B435744484395
:103CD000503D312C310D0A00342E2043574A4150BB
:103CE0000D0A0000474F54204950000041542B4317
:103CF000574A41503D22616263222C226162633146
:103D00003233343536220D0A00000000352E2045AE
:103D100053503832363620496E6974204F4B0D0AA5
:103D200000000000FE480068704770B504460D466C
:103D30002CB9AC4201D0012070BD0020FCE70DB9C8
:103D40000120F9E705E0207808B90020F4E7641CB9
:103D50006D1C207802F064F80646287802F060F8BE
:103D60008642F0D0207802F05BF80646287802F010
:103D700057F8301AE0E770B50446204602F0CAFB57
:103D8000451C2846E74909688847061E00D170BDD2
:103D90002A462146304602F033FC3046F7E730B978
:103DA000E149E04A1160E149E14A11607047016868
:103DB00009B1016800E0DC49DA4A1160416809B1E3
:103DC000416800E0D949DA4A116000BFEEE710B55A
:103DD0002820D4490968884704461CB12821204678
:103DE00002F0A7FC204610BD70B5044622E025680D
:103DF000A08900F4807020B9A06810B1A068FFF716
:103E0000F3FFA08900F4807028B9206918B1C8496F
:103E1000206909688847A08900F4007028B9206AE1
:103E200018B1C349206A096888472046C049096813
:103E300088472C46002CDAD170BD2DE9F04F8BB0AD
:103E400083468A460020044605460026B94F0021D5
:103E5000884689460990012008909AF800002D288C
:103E600002D1B54F0AF1010A9AF80000302801D1B9
:103E70000AF1010A9AF80000312822DB9AF80000C2
:103E800039281EDC00BF1AF8011BA1F1300005F033
:103E900028F90022A94BCDE906012046294605F064
:103EA00073F9CDE90401DDE9062304F09BFE044625
:103EB0000D469AF80000302803DB9AF800003928F4
:103EC000E1DD9AF800002E2830D19AF80100302860
:103ED0002CDB9AF80100392828DC0AF1010A00BF1E
:103EE0001AF8011BA1F1300005F0FBF80022934BFA
:103EF000CDE906012046294605F046F9CDE9040141
:103F0000DDE9062304F06EFE04460D460022894BCF
:103F10004046494605F05EFB804689469AF8000017
:103F2000302803DB9AF800003928D9DD9AF8000020
:103F3000652803D09AF80000452823D10AF1010A28
:103F40009AF800002B2802D10AF1010A08E09AF839
:103F500000002D2804D14FF0FF3008900AF1010A2B
:103F600008E01AF8010B3038099901EB810100EBE8
:103F7000410009909AF80000302803DB9AF800000D
:103F80003928EEDDDDE9082101FB02F005F0A9F892
:103F900042464B46CDE9000104F024FE02460B46A2
:103FA000CDE902010020654904F0DEF822462B46E7
:103FB000CDE906013046394605F0E6F8CDE90401C1
:103FC000DDE9062305F0E0F804460D46CBE9064599
:103FD0002046294605F056F8CBF814000320CBF80C
:103FE0000C0050460BB0BDE8F08F0146491E41EA77
:103FF000610141EAA10141EA211141EA212141EA9D
:104000002141481C70472DE9F04104460E460CB191
:10401000206810B90020BDE8F081A06806446068FF
:10402000B04203DBA16820680844F4E73046FFF79C
:10403000DCFF074638463B490968884705463DB9D5
:104040003B49206809688847002060602060E2E7FB
:1040500025B12846D4E9001202F0D2FA344920688A
:104060000968884767602560A0682844D3E770B571
:1040700004460CB1206808B9002070BDA168206812
:104080004518284602F046FAA1680844F5E72DE9EC
:10409000FC4782460E464FF00009DAE90645002249
:1040A00013462046294604F0B1FF13D12EB1022158
:1040B0003046FFF7A8FF814604E00220194909684D
:1040C00088478146B9F1000F03D01DA00088A9F8E8
:1040D00000009FE0DAF8140005F003F807462246D6
:1040E0002B4605F077FA21F000410022154BCDE96F
:1040F000000105F00DF83ED8134A144B204629461E
:1041000005F006F837D80022114B2046294605F065
:1041100039F930D806B315213046FFF774FF19E09E
:10412000380000203C000020755D0008D35D0008C9
:10413000400000200000F03F0000F0BF00002440DD
:10414000300000000000B03C0000C0FFFFFFDF4176
:104150000000E0C1814604E01520FA49096888475B
:104160008146B9F1000F55D0F7A14846DAF814207E
:1041700001F07EFE4EE02EB140213046FFF743FFB6
:10418000814604E04020EF49096888478146B9F13B
:10419000000F3FD02046294603F078FF074622460D
:1041A0002B4605F017FA21F000410022E74BCDE93C
:1041B000000104F0ADFF0FD825F000412746E44A86
:1041C000E44B384604F0A4FF06D222462B46E2A177
:1041D000484601F04DFE1DE025F000412746E04A2B
:1041E000E04B384604F094FF07D325F0004100224D
:1041F000DD4B384605F0C6F806D222462B46DBA139
:10420000484601F035FE05E022462B46D8A1484637
:1042100001F02EFE4846BDE8FC87014600220878E2
:10422000302806DB0878392803DC08783038024467
:1042300015E00878412806DB0878462803DC087872
:10424000373802440BE00878612806DB08786628D6
:1042500003DC08785738024401E00020704712015F
:10426000491C0878302806DB0878392803DC0878F0
:104270003038024415E00878412806DB08784628E3
:1042800003DC0878373802440BE00878612806DB45
:104290000878662803DC08785738024401E00020DB
:1042A000DCE71201491C0878302806DB0878392839
:1042B00003DC08783038024415E00878412806DB32
:1042C0000878462803DC0878373802440BE0087881
:1042D000612806DB0878662803DC08785738024432
:1042E00001E00020BAE71201491C0878302806DBFB
:1042F0000878392803DC08783038024415E008785B
:10430000412806DB0878462803DC08783738024461
:104310000BE00878612806DB0878662803DC08785B
:104320005738024401E0002098E7104696E72DE94F
:10433000F05F8346884608F10104002798F80000E2
:10434000222805D08B48C0F800800020BDE8F09FEF
:1043500004E014F8011B5C2900D1641C2078222899
:1043600004D0207810B1781C071EF2D1781C754952
:10437000096888478146B9F1000F01D10020E5E7BF
:1043800008F101044D469EE020785C2804D014F822
:10439000010B05F8010B96E0641C2078722818D0F8
:1043A00006DC622809D066280BD06E287ED10CE08E
:1043B000742812D07528F9D113E0082005F8010BF4
:1043C0007FE00C2005F8010B7BE00A2005F8010BCB
:1043D00077E00D2005F8010B73E0092005F8010BCB
:1043E0006FE0601CFFF719FF0646241DB6F55C4F11
:1043F00002D3B6F5604F00D306B962E0B6F5584F68
:104400001CD3B6F55C4F19D260785C2802D1A07835
:10441000752800D055E0E01CFFF7FFFE8246A41D82
:10442000BAF55C4F02D3BAF5604F00D349E0C6F34A
:104430000901504661F39F2000F580360427802E45
:1044400001D2012708E0B6F5006F01D2022703E090
:10445000B6F5803F00D203273D44012F20D0022F24
:1044600015D0032F0AD0042F24D106F0BF0040F04E
:104470008001681E05460170B60900BF06F0BF0046
:1044800040F08001681E05460170B60900BF06F0C5
:10449000BF0040F08001681E05460170B60900BFEC
:1044A0003548C05D3043C1B2681E00E005E00546F6
:1044B000017000BF00BF3D4403E0207805F8010B08
:1044C00000BF00BF641C2078222803D02078002879
:1044D0007FF45AAF002028702078222800D1641C75
:1044E000CBF810900420CBF80C0020462EE72DE9E5
:1044F000F05F804689460027BB46454611E0287894
:10450000002802DD2878202805DB2878222802D020
:1045100028785C2801D1012000E0002040EA0B0B44
:104520006D1C28780028EAD1BBF1000F3ED1A5EB25
:104530000807B9F1000F21D0F91C4846FFF763FDC9
:10454000064620E03C000020256400000000B03C4E
:1045500044F3C2E4E4E9634C252E30660000000019
:104560008DEDB5A0F7C6B03E65CDCD412565000007
:1045700025660000380000203E9A0008F81CFD491E
:1045800009688847064616B90020BDE8F09F344602
:10459000222004F8010B4146204601F097FF22201B
:1045A000E0550021781C21543046EEE7B8F1000FA9
:1045B00016D1B9F1000F05D003214846FFF723FDBE
:1045C000064604E00320EB490968884706460EB911
:1045D0000020DAE7E8A1304601F078FF3046D4E762
:1045E00045460BE05146E5A001F042FF08B17F1CB3
:1045F00003E0BAF1200F00DA7F1D6D1C95F800A0D2
:10460000BAF1000F02D0781C071EEBD1B9F1000FF0
:1046100005D0F91C4846FFF7F6FC064604E0F81CF6
:10462000D4490968884706460EB90020ADE73446EC
:104630004546222004F8010B47E028781F280ADDB0
:104640002878222807D028785C2804D015F8010B98
:1046500004F8010B39E05C2004F8010B15F8011B8C
:104660008A460C2919D006DC082912D0092920D045
:104670000A2922D115E00D2917D0222905D05C295D
:104680001BD15C2004F8010B1EE0222004F8010B72
:104690001AE0622004F8010B16E0662004F8010B12
:1046A00012E06E2004F8010B0EE0722004F8010BFA
:1046B0000AE0742004F8010B06E05246B1A120463E
:1046C00001F0D6FB641D00BF00BF28780028B4D1DC
:1046D000222004F8010B002004F8010B304654E7B7
:1046E00070B504460D4629462069FFF700FF70BDEE
:1046F00000E0401C20B1017811B101782029F8DDDB
:1047000070472DE9F04706460C4620787B2804D0F8
:104710009E4804600020BDE8F0870620F060601C21
:10472000FFF7E6FF044620787D2801D1601CF2E700
:10473000FFF74DFB0546B060B06808B90020EAE716
:104740002046FFF7D5FF804641462846FFF7EFFD9C
:104750000746FFF7CDFF04460CB90020DBE72869C8
:1047600028620020286120783A2803D08748046016
:104770000020D0E7601CFFF7BBFF8046414628467B
:1047800000F099F80746FFF7B3FF04460CB9002084
:10479000C1E731E0FFF71BFB071E00D1BBE72F602D
:1047A0007D603D46601CFFF7A3FF814649462846D1
:1047B000FFF7BDFD8046FFF79BFF04460CB90020C4
:1047C000A9E7286928620020286120783A2803D0C8
:1047D0006E48046000209EE7601CFFF789FF814659
:1047E0004946284600F067F88046FFF781FF0446F7
:1047F0000CB900208FE700BF20782C28CAD0207881
:104800007D2801D1601C86E760480460002082E7B3
:104810002DE9F04705460C4620785B2804D05B481C
:1048200004600020BDE8F0870520E860601CFFF709
:104830005FFF044620785D2801D1601CF2E7FFF796
:10484000C6FA0646A860A86808B90020EAE720462C
:10485000FFF74EFF80464146304600F02CF80746F1
:10486000FFF746FF04460CB90020DBE717E0FFF72F
:10487000AEFA071E00D1D5E737607E603E46601C69
:10488000FFF736FF81464946304600F014F880466F
:10489000FFF72EFF04460CB90020C3E700BF2078C5
:1048A0002C28E4D020785D2801D1601CBAE7374875
:1048B00004600020B6E770B505460C460CB9002030
:1048C00070BD042232A1204601F043FE18B9022037
:1048D000E860201DF4E705222FA1204601F039FEF3
:1048E00018B90020E860601DEAE704222CA12046E8
:1048F00001F02FFE20B90120E8606861201DDFE78C
:104900002078222804D121462846FFF710FDD7E75A
:1049100020782D2805D02078302807DB207839280A
:1049200004DC21462846FFF788FAC9E720785B288F
:1049300004D121462846FFF76BFFC1E720787B288A
:1049400004D121462846FFF7DCFEB9E70F48046092
:104950000020B5E72DE9F04780460D4616460024B5
:10496000FFF735FA0746002008490860E7B9BDE8B7
:10497000F08700003C00002022220000225C080C8E
:104980000A0D090075253034780000003800002039
:104990006E756C6C0000000066616C736500000051
:1049A00074727565000000004046FFF7A1FE814665
:1049B00049463846FFF77FFF04462CB93846FFF7D3
:1049C00013FA0020BDE8F08766B12046FFF790FE9D
:1049D0000446207830B13846FFF706FAFE480460F6
:1049E0000020EFE705B12C603846EBE710B5044630
:1049F000002211462046FFF7ADFF10BD2DE9FF4F05
:104A000089B0884616461F460020089007900690F9
:104A10004FF0070A00250998D0F80890002002906E
:104A20000190009004E00298401C0290D9F8009098
:104A3000B9F1000FF7D10298002835D157B116B15E
:104A400008F1040000E0032001463846FFF7DBFAD6
:104A5000069009E016B108F1040100E003210846C0
:104A6000DE49096888470690069818B900200DB0FD
:104A7000BDE8F08F069C7B2004F8010B66B10A208C
:104A800004F8010B002503E0092004F8010B6D1C5C
:104A9000A8F10100A842F7DC7D2004F8010B0020FA
:104AA00004F8010B0698E2E7002F77D0BD680EB13D
:104AB000022000E0012082460AF101013846FFF79A
:104AC000A2FA04460CB90020D1E77B2004F8010BC0
:104AD00016B10A2004F8010B00202070B868504479
:104AE000B8600998D0F8089008F1010868E0B6B1FC
:104AF00041463846FFF787FA04460CB90020B6E76E
:104B00000020039005E0092004F8010B0398401CE5
:104B1000039003984045F6DBB8684044B8603946D6
:104B2000D9F82000FFF7E3FC3846FFF7A0FAB86099
:104B30000EB1022000E00120824651463846FFF7C0
:104B400062FA04460CB9002091E73A2004F8010B00
:104B500016B1092004F8010BB8685044B8603B4610
:104B600032464146484600F078FA3846FFF77FFA69
:104B7000B8600EB1012000E00020D9F8001009B1A2
:104B8000012100E0002100EB010A0AF10101384691
:104B9000FFF739FA044614B9002068E734E0D9F881
:104BA000000010B12C2004F8010B16B10A2004F803
:104BB000010B00202070B8685044B860D9F800900C
:104BC000B9F1000F93D116B108F1010000E0022005
:104BD00001463846FFF717FA04460CB9002046E7AD
:104BE0004EB1002503E0092004F8010B6D1CA8F16B
:104BF0000100A842F7DC7D2004F8010B00202070A2
:104C000038682844069005E10299880073490968CC
:104C100088470890089808B9002028E7029988007A
:104C20006E49096888470790079828B96C49089821
:104C30000968884700201AE702988100089801F067
:104C400078FD02988100079801F073FD0998D0F86B
:104C5000089008F1010806B1C2442EE00021D9F8FD
:104C60002000FFF744FC0490079941F82500002339
:104C700032464146484600F0F0F929466D1C059041
:104C8000089A42F82100049898B1059888B10598CF
:104C900001F040FC8346049801F03CFC0BEB000162
:104CA000891C16B108F1020000E00020084482448B
:104CB00001E001200190D9F80090B9F1000FCDD1A9
:104CC000019820B9504645490968884706900698DA
:104CD00008B901200190019818B3002514E0079845
:104CE00050F8250028B1079951F825003C4909687A
:104CF0008847089850F8250028B1089951F82500F0
:104D00003749096888476D1C02988542E7DB3449BA
:104D10000798096888473249089809688847002039
:104D2000A5E67B21069801700698441C16B10A205E
:104D300004F8010B00202070002548E05EB100203F
:104D4000039005E0092004F8010B0398401C039030
:104D500003984045F6DB079951F8250001F0DAFB8E
:104D60000090079850F825102046009A01F048FC62
:104D7000009804443A2004F8010B16B1092004F805
:104D8000010B089850F82510204601F09FFB089968
:104D900051F8250001F0BEFB04440298401EA842D1
:104DA00002D02C2004F8010B16B10A2004F8010BE4
:104DB00000202070079951F82500094909688847A3
:104DC000089951F825000649096888476D1C029822
:104DD0008542B3DB024905E0380000203C0000209A
:104DE00040000020079809688847F7490898096833
:104DF00088474EB1002503E0092004F8010B6D1C23
:104E0000A8F10100A842F7DC7D2004F8010B002086
:104E100004F8010B06982AE62DE9FF4F85B092466B
:104E20001E464FF0000B052003900598D0F808802F
:104E3000D946002500200290019003E009F1010904
:104E4000D8F80080B8F1000FF8D1B9F1000F16D1F1
:104E50002EB103213046FFF7D6F8834604E0032045
:104E6000DA49096888478346BBF1000F03D0D8A10F
:104E7000584601F02BFB584609B0BDE8F08F002ED4
:104E800057D0B56801213046FFF7BDF804460CB98C
:104E90000020F1E75B202070B068401CB0600598EE
:104EA000D0F808802EE0334652460699491C404609
:104EB00000F0D3F83046FFF7DAF8B060D8F8000019
:104EC000F0B1BAF1000F01D0022000E00120039000
:104ED0000399491C3046FFF796F804460CB90020A8
:104EE000CAE72C2004F8010BBAF1000F02D02020F1
:104EF00004F8010B00202070B16803980844B060EA
:104F0000D8F80080B8F1000F02D002980028CAD06B
:104F100002213046FFF777F804460CB90020ABE7D2
:104F20005D2004F8010B00202070306800EB050BB9
:104F300091E04FEA8900A5490968884707460FB9FB
:104F4000002099E74FEA8901384601F0F2FB059805
:104F5000D0F8088021E0002352460699491C4046BB
:104F600000F07BF8049029466D1C049847F8210056
:104F7000049870B1049801F0CDFA801CBAF1000FCA
:104F800001D0012100E0002101440398084403906E
:104F900001E001200290D8F80080B8F1000F02D0A3
:104FA00002980028D7D0029820B988490398096848
:104FB00088478346BBF1000F01D10120029002987F
:104FC00090B1002508E057F8250020B157F82500DA
:104FD0007D49096888476D1C4D45F4DB38467A49A0
:104FE00009688847002047E75B208BF800000BF139
:104FF000010400202070002521E057F8250001F071
:1050000089FA019057F825102046019A01F0F8FA24
:1050100001980444A9F10100A8420AD02C2004F808
:10502000010BBAF1000F02D0202004F8010B002080
:10503000207057F825006449096888476D1C4D4564
:10504000DBDB38466049096888475D2004F8010BBE
:10505000002004F8010B58460EE72DE9F041044604
:105060000F4690461D46002614B90020BDE8F08189
:10507000002D49D0207B072845D2DFE800F0101C26
:1050800004282E343C0005212846FEF7BCFF0646C6
:1050900026B1AFF20471304601F018FA33E0062170
:1050A0002846FEF7B0FF064626B1AFF2147130462F
:1050B00001F00CFA27E005212846FEF7A4FF06467A
:1050C00026B1AFF22471304601F000FA1BE0294608
:1050D0002046FEF7DCFF064615E029462046FFF78E
:1050E000FFFA06460FE02B46424639462046FFF7B8
:1050F00093FE064607E02B46424639462046FFF718
:105100007DFC064600BF37E0207B072833D2DFE86E
:1051100000F00A1004161C222A00AFF28C70FEF771
:105120002AFE064627E0AFF29070FEF724FE064600
:1051300021E0AFF29470FEF71EFE06461BE0002150
:105140002046FEF7A4FF064615E000212046FFF7A3
:10515000C7FA06460FE00023424639462046FFF7CD
:105160005BFE064607E00023424639462046FFF72D
:1051700045FC064600BF00BF304677E710B5044641
:105180000023012219462046FFF767FF10BD10B526
:10519000044600231A4619462046FFF75EFF10BD5D
:1051A000FEB505460C46164620460849096888475C
:1051B00000900194002002906B4632460021284660
:1051C000FFF74BFFFEBD0000400000203C00002028
:1051D0005B5D000001468A68002001E0401C126807
:1051E000002AFBD170470246906801E0491E006822
:1051F00008B10029FADC704770B505460E46AC6868
:1052000000E024682CB13146206AFEF78EFD0028AC
:10521000F7D1204670BD01604860704770B5054603
:10522000FEF7D5FD04460CB9002070BD28222946A2
:10523000204601F02AFA00202062E06840F48070E5
:10524000E0600020606020602046EEE770B5054613
:105250000E46AC6806B970BD0CB9AE6009E000E05E
:10526000246814B120680028FAD131462046FFF79F
:10527000D2FF00BFEFE770B506460D46144604B9ED
:1052800070BD206A18B1FE49206A0968884728461F
:10529000FEF771FD206221463046FFF7D7FF00BFC1
:1052A000EEE770B506460D46144604B970BDA089F8
:1052B00000F4007028B9206A18B1F149206A096821
:1052C00088472562E06840F40070E060214630467F
:1052D000FFF7BCFF00BFE9E770B505460C46204666
:1052E000FFF79CFF064631462846FFF7AFFF70BD2B
:1052F0002DE9F04105460E4614462046FFF78EFF85
:1053000007463A4631462846FFF7B5FFBDE8F0812B
:1053100010B502460B46916801E009685B1E09B1B1
:10532000002BFADC09B9002010BD486810B1D1E9A2
:1053300000042060086810B1D1E900406060906806
:10534000884201D1086890600020086048600846E3
:10535000EAE770B504460D4629462046FFF7D8FF18
:105360000646FEF741FD70BD2DE9F04105460F46AA
:105370000026AC6801E0761C24682CB13946206A0E
:10538000FEF7D3FC0028F6D12CB131462846FFF7B2
:10539000BFFFBDE8F0810020FBE770B504460D4675
:1053A00029462046FFF7E0FF0646FEF71DFD70BDCB
:1053B0002DE9F04106460F461446B56801E02D6818
:1053C0007F1E0DB1002FFADC2DB921463046FFF7C4
:1053D0003DFFBDE8F0812560686860606C60B06882
:1053E000A84201D1B46001E06068046000BFF0E74A
:1053F0002DE9F04106460F461446B56801E02D68D8
:105400007F1E0DB1002FFADC0DB9BDE8F0812868D0
:10541000206068686060206808B120684460B068F7
:10542000A84201D1B46001E06068046000206860B7
:1054300028602846FEF7D8FC00BFE6E72DE9F041DA
:1054400005460E4617464FF00008AC6802E008F12A
:10545000010824682CB13146206AFEF766FC00285A
:10546000F5D144B13046FEF786FC38623A464146F3
:105470002846FFF7BDFFBDE8F08110B5FEF7A7FC99
:1054800004460CB10220E060204610BD10B5FEF7C6
:105490009EFC04460CB10120E060204610BD10B512
:1054A000FEF795FC04460CB10020E060204610BDDC
:1054B00070B50546FEF78BFC044624B10DB1012002
:1054C00000E00020E060204670BD70B505460E4645
:1054D000FEF77DFC044644B10320E060C4E90656B3
:1054E0002846314603F0CEFD6061204670BD70B5A0
:1054F0000546FEF76CFC04462CB10420E06028460B
:10550000FEF739FC2061204670BD10B5FEF75FFC48
:1055100004460CB10520E060204610BD10B5FEF732
:1055200056FC04460CB10620E060204610BD2DE973
:10553000F05F81468A460025AB46FFF7E6FF064648
:10554000002410E059F8240003F0CBFD0746FFF7D4
:10555000BCFF05460CB9B56003E029465846FFF785
:105560005AFEAB46641C0EB15445EBDB3046BDE839
:10557000F09F2DE9F05F81468A460025AB46FFF794
:10558000C4FF0646002410E059F8240004F00CF98A
:105590000746FFF79AFF05460CB9B56003E02946B8
:1055A0005846FFF738FEAB46641C0EB15445EBDBA2
:1055B0003046BDE8F09F2DE9F047074688460025B4
:1055C000A946FFF7A2FF0646002410E007EBC4003F
:1055D000D0E900211046FFF778FF05460CB9B56009
:1055E00003E029464846FFF716FEA946641C0EB1A3
:1055F0004445EBDB3046BDE8F0872DE9F047074630
:1056000088460025A946FFF780FF064600240DE0E6
:1056100057F82400FFF76BFF05460CB9B56003E0AF
:1056200029464846FFF7F7FDA946641C0EB14445DC
:10563000EEDB3046BDE8F0872DE9F04705468946A8
:105640004FF0000815B90020BDE8F087FEF7BFFB5A
:1056500004460CB90020F7E7E86820F48070E060A9
:1056600068696061D5E90601C4E90601286968B185
:105670002869FEF780FB2061206938B9204601E0E7
:1056800040000020FEF7B0FB0020DDE7286A50B1A3
:10569000286AFEF770FB2062206A20B92046FEF7D8
:1056A000A3FB0020D0E7B9F1000F01D12046CBE7E2
:1056B000AF6816E001213846FFF7BEFF064626B95F
:1056C0002046FEF791FB0020BEE7B8F1000F05D0A1
:1056D000C8F80060C6F80480B04601E0A660B04695
:1056E0003F68002FE6D12046AEE7014655E002783C
:1056F000202A01D1401C50E00278092A01D1401C27
:105700004BE002780D2A01D1401C46E002780A2ABB
:1057100001D1401C41E002782F2A0BD142782F2A78
:1057200008D100E0401C0278002A36D002780A2A0C
:1057300033D0F7E702782F2A0ED142782A2A0BD1EC
:1057400000E0401C02782AB102782A2AF9D1427876
:105750002F2AF6D1801C20E00278222A19D110F8D5
:10576000012B01F8012B0AE002785C2A03D110F822
:10577000012B01F8012B10F8012B01F8012B027805
:1057800012B10278222AEFD110F8012B01F8012B77
:1057900003E010F8012B01F8012B0278002AA6D1B2
:1057A0000A70704710B50221F948FBF78CF8012107
:1057B000F748FBF788F80121F548FBF786F8022146
:1057C000F348FBF782F810BD10B50221F048FBF753
:1057D0007AF80121EE48FBF778F80121EC48FBF755
:1057E00072F810BD10B50221E948FBF76CF80221F0
:1057F000E748FBF76AF810BD2DE9F04105462C4655
:105800000221E348FBF761F8002619E0274607F07C
:105810008007802F04D10121DD48FBF754F803E015
:105820000121DB48FBF751F86006040E0221D8483D
:10583000FBF749F80221D648FBF747F8701CC6B2BF
:10584000082EE3DBBDE8F08110B50446FFF7AAFFA0
:105850007820FFF7D1FFFFF7C5FF0020FFF7CCFF4F
:10586000FFF7C0FF2046FFF7C7FFFFF7BBFFFFF7BB
:10587000ABFF10BD10B50446FFF794FF7820FFF78B
:10588000BBFFFFF7AFFF4020FFF7B6FFFFF7AAFF10
:105890002046FFF7B1FFFFF7A5FFFFF795FF10BD0B
:1058A00070B504460D461DB1E0B2FFF7E3FF02E01C
:1058B000E0B2FFF7C9FF70BD70B50646002418E0DE
:1058C00004F1B0000021FFF7EBFF00210846FFF7CD
:1058D000E7FF00211020FFF7E3FF002505E001218D
:1058E0003046FFF7DDFF681CC5B2802DF7DB601C7A
:1058F000C4B2082CE4DB70BD06E041F6650100E0AF
:10590000491E0029FCD1401E0028F6D170470146EF
:1059100005E0002001E0421CD0B27B28FBDB0A1E20
:10592000A1F10101F5D1704770B504460D4605F1AE
:10593000B0000021FFF7B4FF102141EA141000214C
:10594000FFF7AEFF04F00F000021FFF7A9FF70BDC5
:1059500010B500218D20FFF7A3FF00211420FFF7D1
:105960009FFF0021AF20FFF79BFF10BD10B5002166
:105970008D20FFF795FF00211020FFF791FF0021F8
:10598000AE20FFF78DFF10BD70B5002418E004F1C4
:10599000B0000021FFF784FF00210846FFF780FFD9
:1059A00000211020FFF77CFF002505E001210020E9
:1059B000FFF776FF681CC5B2802DF7DB601CC4B210
:1059C000082CE4DB70BD70B5002418E004F1B000D1
:1059D0000021FFF765FF00210846FFF761FF002166
:1059E0001020FFF75DFF002505E001210846FFF7C5
:1059F00057FF681CC5B2802DF7DB601CC4B2082CB1
:105A0000E4DB70BD2DE9F04707460E469046994607
:105A100000250024A8F12000C5B27F2F02DD002759
:105A2000B01CC6B2B9F1100F24D131463846FFF789
:105A30007BFF002408E004EB0511564A505C01216D
:105A4000FFF72EFF601CC4B2082CF4DB701CC1B23F
:105A50003846FFF769FF002409E004EB051108311F
:105A60004C4A505C0121FFF71BFF601CC4B2082C9C
:105A7000F3DB12E031463846FFF756FF00240AE018
:105A800005EB4501444A02EB4101085D0121FFF7A6
:105A900007FF601CC4B2062CF2DBBDE8F08710B52E
:105AA0000246012000E050430B1EA1F10104E1B2C7
:105AB000F9D110BD2DE9FF5F074691461E460E9DA8
:105AC0004FF0000A002435E0301B401EC1B20A200E
:105AD000FFF7E5FFB9FBF0F00A21B0FBF1F201FBA3
